{
	"contracts/BookFactory.sol": {
		"BookFactory": {
			"abi": [
				{
					"inputs": [
						{
							"internalType": "uint256",
							"name": "",
							"type": "uint256"
						}
					],
					"name": "books",
					"outputs": [
						{
							"internalType": "contract Book",
							"name": "",
							"type": "address"
						}
					],
					"stateMutability": "view",
					"type": "function"
				},
				{
					"inputs": [
						{
							"internalType": "uint256",
							"name": "_bookID",
							"type": "uint256"
						},
						{
							"internalType": "string",
							"name": "_bookTitle",
							"type": "string"
						}
					],
					"name": "newBook",
					"outputs": [],
					"stateMutability": "payable",
					"type": "function"
				}
			],
			"devdoc": {
				"kind": "dev",
				"methods": {},
				"version": 1
			},
			"evm": {
				"assembly": "    /* \"contracts/BookFactory.sol\":1022:1386  contract BookFactory... */\n  mstore(0x40, 0x80)\n  callvalue\n  dup1\n  iszero\n  tag_1\n  jumpi\n  0x00\n  dup1\n  revert\ntag_1:\n  pop\n  dataSize(sub_0)\n  dup1\n  dataOffset(sub_0)\n  0x00\n  codecopy\n  0x00\n  return\nstop\n\nsub_0: assembly {\n        /* \"contracts/BookFactory.sol\":1022:1386  contract BookFactory... */\n      mstore(0x40, 0x80)\n      jumpi(tag_1, lt(calldatasize, 0x04))\n      shr(0xe0, calldataload(0x00))\n      dup1\n      0x68744046\n      eq\n      tag_2\n      jumpi\n      dup1\n      0xf2785a4e\n      eq\n      tag_3\n      jumpi\n    tag_1:\n      0x00\n      dup1\n      revert\n        /* \"contracts/BookFactory.sol\":1080:1099  Book[] public books */\n    tag_2:\n      callvalue\n      dup1\n      iszero\n      tag_4\n      jumpi\n      0x00\n      dup1\n      revert\n    tag_4:\n      pop\n      tag_5\n      0x04\n      dup1\n      calldatasize\n      sub\n      dup2\n      add\n      swap1\n      tag_6\n      swap2\n      swap1\n      tag_7\n      jump\t// in\n    tag_6:\n      tag_8\n      jump\t// in\n    tag_5:\n      mload(0x40)\n      tag_9\n      swap2\n      swap1\n      tag_10\n      jump\t// in\n    tag_9:\n      mload(0x40)\n      dup1\n      swap2\n      sub\n      swap1\n      return\n        /* \"contracts/BookFactory.sol\":1106:1384  function newBook(uint _bookID, string memory _bookTitle) public payable... */\n    tag_3:\n      tag_11\n      0x04\n      dup1\n      calldatasize\n      sub\n      dup2\n      add\n      swap1\n      tag_12\n      swap2\n      swap1\n      tag_13\n      jump\t// in\n    tag_12:\n      tag_14\n      jump\t// in\n    tag_11:\n      stop\n        /* \"contracts/BookFactory.sol\":1080:1099  Book[] public books */\n    tag_8:\n      0x00\n      dup2\n      dup2\n      sload\n      dup2\n      lt\n      tag_15\n      jumpi\n      0x00\n      dup1\n      revert\n    tag_15:\n      swap1\n      0x00\n      mstore\n      keccak256(0x00, 0x20)\n      add\n      0x00\n      swap2\n      pop\n      sload\n      swap1\n      0x0100\n      exp\n      swap1\n      div\n      0xffffffffffffffffffffffffffffffffffffffff\n      and\n      dup2\n      jump\t// out\n        /* \"contracts/BookFactory.sol\":1106:1384  function newBook(uint _bookID, string memory _bookTitle) public payable... */\n    tag_14:\n        /* \"contracts/BookFactory.sol\":1228:1237  Book book */\n      0x00\n        /* \"contracts/BookFactory.sol\":1257:1266  msg.value */\n      callvalue\n        /* \"contracts/BookFactory.sol\":1268:1275  _bookID */\n      dup4\n        /* \"contracts/BookFactory.sol\":1277:1287  _bookTitle */\n      dup4\n        /* \"contracts/BookFactory.sol\":1297:1301  this */\n      address\n        /* \"contracts/BookFactory.sol\":1240:1303  (new Book){value:msg.value}(_bookID, _bookTitle, address(this)) */\n      mload(0x40)\n      tag_18\n      swap1\n      tag_19\n      jump\t// in\n    tag_18:\n      tag_20\n      swap4\n      swap3\n      swap2\n      swap1\n      tag_21\n      jump\t// in\n    tag_20:\n      mload(0x40)\n      dup1\n      swap2\n      sub\n      swap1\n      dup3\n      create\n      swap1\n      pop\n      dup1\n      iszero\n      dup1\n      iszero\n      tag_22\n      jumpi\n      returndatasize\n      0x00\n      dup1\n      returndatacopy\n      revert(0x00, returndatasize)\n    tag_22:\n      pop\n        /* \"contracts/BookFactory.sol\":1228:1303  Book book = (new Book){value:msg.value}(_bookID, _bookTitle, address(this)) */\n      swap1\n      pop\n        /* \"contracts/BookFactory.sol\":1361:1366  books */\n      0x00\n        /* \"contracts/BookFactory.sol\":1372:1376  book */\n      dup2\n        /* \"contracts/BookFactory.sol\":1361:1377  books.push(book) */\n      swap1\n      dup1\n      0x01\n      dup2\n      sload\n      add\n      dup1\n      dup3\n      sstore\n      dup1\n      swap2\n      pop\n      pop\n      0x01\n      swap1\n      sub\n      swap1\n      0x00\n      mstore\n      keccak256(0x00, 0x20)\n      add\n      0x00\n      swap1\n      swap2\n      swap1\n      swap2\n      swap1\n      swap2\n      0x0100\n      exp\n      dup2\n      sload\n      dup2\n      0xffffffffffffffffffffffffffffffffffffffff\n      mul\n      not\n      and\n      swap1\n      dup4\n      0xffffffffffffffffffffffffffffffffffffffff\n      and\n      mul\n      or\n      swap1\n      sstore\n      pop\n        /* \"contracts/BookFactory.sol\":1182:1384  {... */\n      pop\n        /* \"contracts/BookFactory.sol\":1106:1384  function newBook(uint _bookID, string memory _bookTitle) public payable... */\n      pop\n      pop\n      jump\t// out\n    tag_19:\n      dataSize(sub_0)\n      dup1\n      dataOffset(sub_0)\n      dup4\n      codecopy\n      add\n      swap1\n      jump\t// out\n        /* \"#utility.yul\":7:82   */\n    tag_24:\n        /* \"#utility.yul\":40:46   */\n      0x00\n        /* \"#utility.yul\":73:75   */\n      0x40\n        /* \"#utility.yul\":67:76   */\n      mload\n        /* \"#utility.yul\":57:76   */\n      swap1\n      pop\n        /* \"#utility.yul\":7:82   */\n      swap1\n      jump\t// out\n        /* \"#utility.yul\":88:205   */\n    tag_25:\n        /* \"#utility.yul\":197:198   */\n      0x00\n        /* \"#utility.yul\":194:195   */\n      dup1\n        /* \"#utility.yul\":187:199   */\n      revert\n        /* \"#utility.yul\":211:328   */\n    tag_26:\n        /* \"#utility.yul\":320:321   */\n      0x00\n        /* \"#utility.yul\":317:318   */\n      dup1\n        /* \"#utility.yul\":310:322   */\n      revert\n        /* \"#utility.yul\":334:411   */\n    tag_27:\n        /* \"#utility.yul\":371:378   */\n      0x00\n        /* \"#utility.yul\":400:405   */\n      dup2\n        /* \"#utility.yul\":389:405   */\n      swap1\n      pop\n        /* \"#utility.yul\":334:411   */\n      swap2\n      swap1\n      pop\n      jump\t// out\n        /* \"#utility.yul\":417:539   */\n    tag_28:\n        /* \"#utility.yul\":490:514   */\n      tag_59\n        /* \"#utility.yul\":508:513   */\n      dup2\n        /* \"#utility.yul\":490:514   */\n      tag_27\n      jump\t// in\n    tag_59:\n        /* \"#utility.yul\":483:488   */\n      dup2\n        /* \"#utility.yul\":480:515   */\n      eq\n        /* \"#utility.yul\":470:533   */\n      tag_60\n      jumpi\n        /* \"#utility.yul\":529:530   */\n      0x00\n        /* \"#utility.yul\":526:527   */\n      dup1\n        /* \"#utility.yul\":519:531   */\n      revert\n        /* \"#utility.yul\":470:533   */\n    tag_60:\n        /* \"#utility.yul\":417:539   */\n      pop\n      jump\t// out\n        /* \"#utility.yul\":545:684   */\n    tag_29:\n        /* \"#utility.yul\":591:596   */\n      0x00\n        /* \"#utility.yul\":629:635   */\n      dup2\n        /* \"#utility.yul\":616:636   */\n      calldataload\n        /* \"#utility.yul\":607:636   */\n      swap1\n      pop\n        /* \"#utility.yul\":645:678   */\n      tag_62\n        /* \"#utility.yul\":672:677   */\n      dup2\n        /* \"#utility.yul\":645:678   */\n      tag_28\n      jump\t// in\n    tag_62:\n        /* \"#utility.yul\":545:684   */\n      swap3\n      swap2\n      pop\n      pop\n      jump\t// out\n        /* \"#utility.yul\":690:1019   */\n    tag_7:\n        /* \"#utility.yul\":749:755   */\n      0x00\n        /* \"#utility.yul\":798:800   */\n      0x20\n        /* \"#utility.yul\":786:795   */\n      dup3\n        /* \"#utility.yul\":777:784   */\n      dup5\n        /* \"#utility.yul\":773:796   */\n      sub\n        /* \"#utility.yul\":769:801   */\n      slt\n        /* \"#utility.yul\":766:885   */\n      iszero\n      tag_64\n      jumpi\n        /* \"#utility.yul\":804:883   */\n      tag_65\n      tag_25\n      jump\t// in\n    tag_65:\n        /* \"#utility.yul\":766:885   */\n    tag_64:\n        /* \"#utility.yul\":924:925   */\n      0x00\n        /* \"#utility.yul\":949:1002   */\n      tag_66\n        /* \"#utility.yul\":994:1001   */\n      dup5\n        /* \"#utility.yul\":985:991   */\n      dup3\n        /* \"#utility.yul\":974:983   */\n      dup6\n        /* \"#utility.yul\":970:992   */\n      add\n        /* \"#utility.yul\":949:1002   */\n      tag_29\n      jump\t// in\n    tag_66:\n        /* \"#utility.yul\":939:1002   */\n      swap2\n      pop\n        /* \"#utility.yul\":895:1012   */\n      pop\n        /* \"#utility.yul\":690:1019   */\n      swap3\n      swap2\n      pop\n      pop\n      jump\t// out\n        /* \"#utility.yul\":1025:1151   */\n    tag_30:\n        /* \"#utility.yul\":1062:1069   */\n      0x00\n        /* \"#utility.yul\":1102:1144   */\n      0xffffffffffffffffffffffffffffffffffffffff\n        /* \"#utility.yul\":1095:1100   */\n      dup3\n        /* \"#utility.yul\":1091:1145   */\n      and\n        /* \"#utility.yul\":1080:1145   */\n      swap1\n      pop\n        /* \"#utility.yul\":1025:1151   */\n      swap2\n      swap1\n      pop\n      jump\t// out\n        /* \"#utility.yul\":1157:1217   */\n    tag_31:\n        /* \"#utility.yul\":1185:1188   */\n      0x00\n        /* \"#utility.yul\":1206:1211   */\n      dup2\n        /* \"#utility.yul\":1199:1211   */\n      swap1\n      pop\n        /* \"#utility.yul\":1157:1217   */\n      swap2\n      swap1\n      pop\n      jump\t// out\n        /* \"#utility.yul\":1223:1365   */\n    tag_32:\n        /* \"#utility.yul\":1273:1282   */\n      0x00\n        /* \"#utility.yul\":1306:1359   */\n      tag_70\n        /* \"#utility.yul\":1324:1358   */\n      tag_71\n        /* \"#utility.yul\":1333:1357   */\n      tag_72\n        /* \"#utility.yul\":1351:1356   */\n      dup5\n        /* \"#utility.yul\":1333:1357   */\n      tag_30\n      jump\t// in\n    tag_72:\n        /* \"#utility.yul\":1324:1358   */\n      tag_31\n      jump\t// in\n    tag_71:\n        /* \"#utility.yul\":1306:1359   */\n      tag_30\n      jump\t// in\n    tag_70:\n        /* \"#utility.yul\":1293:1359   */\n      swap1\n      pop\n        /* \"#utility.yul\":1223:1365   */\n      swap2\n      swap1\n      pop\n      jump\t// out\n        /* \"#utility.yul\":1371:1497   */\n    tag_33:\n        /* \"#utility.yul\":1421:1430   */\n      0x00\n        /* \"#utility.yul\":1454:1491   */\n      tag_74\n        /* \"#utility.yul\":1485:1490   */\n      dup3\n        /* \"#utility.yul\":1454:1491   */\n      tag_32\n      jump\t// in\n    tag_74:\n        /* \"#utility.yul\":1441:1491   */\n      swap1\n      pop\n        /* \"#utility.yul\":1371:1497   */\n      swap2\n      swap1\n      pop\n      jump\t// out\n        /* \"#utility.yul\":1503:1640   */\n    tag_34:\n        /* \"#utility.yul\":1564:1573   */\n      0x00\n        /* \"#utility.yul\":1597:1634   */\n      tag_76\n        /* \"#utility.yul\":1628:1633   */\n      dup3\n        /* \"#utility.yul\":1597:1634   */\n      tag_33\n      jump\t// in\n    tag_76:\n        /* \"#utility.yul\":1584:1634   */\n      swap1\n      pop\n        /* \"#utility.yul\":1503:1640   */\n      swap2\n      swap1\n      pop\n      jump\t// out\n        /* \"#utility.yul\":1646:1799   */\n    tag_35:\n        /* \"#utility.yul\":1744:1792   */\n      tag_78\n        /* \"#utility.yul\":1786:1791   */\n      dup2\n        /* \"#utility.yul\":1744:1792   */\n      tag_34\n      jump\t// in\n    tag_78:\n        /* \"#utility.yul\":1739:1742   */\n      dup3\n        /* \"#utility.yul\":1732:1793   */\n      mstore\n        /* \"#utility.yul\":1646:1799   */\n      pop\n      pop\n      jump\t// out\n        /* \"#utility.yul\":1805:2049   */\n    tag_10:\n        /* \"#utility.yul\":1909:1913   */\n      0x00\n        /* \"#utility.yul\":1947:1949   */\n      0x20\n        /* \"#utility.yul\":1936:1945   */\n      dup3\n        /* \"#utility.yul\":1932:1950   */\n      add\n        /* \"#utility.yul\":1924:1950   */\n      swap1\n      pop\n        /* \"#utility.yul\":1960:2042   */\n      tag_80\n        /* \"#utility.yul\":2039:2040   */\n      0x00\n        /* \"#utility.yul\":2028:2037   */\n      dup4\n        /* \"#utility.yul\":2024:2041   */\n      add\n        /* \"#utility.yul\":2015:2021   */\n      dup5\n        /* \"#utility.yul\":1960:2042   */\n      tag_35\n      jump\t// in\n    tag_80:\n        /* \"#utility.yul\":1805:2049   */\n      swap3\n      swap2\n      pop\n      pop\n      jump\t// out\n        /* \"#utility.yul\":2055:2172   */\n    tag_36:\n        /* \"#utility.yul\":2164:2165   */\n      0x00\n        /* \"#utility.yul\":2161:2162   */\n      dup1\n        /* \"#utility.yul\":2154:2166   */\n      revert\n        /* \"#utility.yul\":2178:2295   */\n    tag_37:\n        /* \"#utility.yul\":2287:2288   */\n      0x00\n        /* \"#utility.yul\":2284:2285   */\n      dup1\n        /* \"#utility.yul\":2277:2289   */\n      revert\n        /* \"#utility.yul\":2301:2403   */\n    tag_38:\n        /* \"#utility.yul\":2342:2348   */\n      0x00\n        /* \"#utility.yul\":2393:2395   */\n      0x1f\n        /* \"#utility.yul\":2389:2396   */\n      not\n        /* \"#utility.yul\":2384:2386   */\n      0x1f\n        /* \"#utility.yul\":2377:2382   */\n      dup4\n        /* \"#utility.yul\":2373:2387   */\n      add\n        /* \"#utility.yul\":2369:2397   */\n      and\n        /* \"#utility.yul\":2359:2397   */\n      swap1\n      pop\n        /* \"#utility.yul\":2301:2403   */\n      swap2\n      swap1\n      pop\n      jump\t// out\n        /* \"#utility.yul\":2409:2589   */\n    tag_39:\n        /* \"#utility.yul\":2457:2534   */\n      0x4e487b7100000000000000000000000000000000000000000000000000000000\n        /* \"#utility.yul\":2454:2455   */\n      0x00\n        /* \"#utility.yul\":2447:2535   */\n      mstore\n        /* \"#utility.yul\":2554:2558   */\n      0x41\n        /* \"#utility.yul\":2551:2552   */\n      0x04\n        /* \"#utility.yul\":2544:2559   */\n      mstore\n        /* \"#utility.yul\":2578:2582   */\n      0x24\n        /* \"#utility.yul\":2575:2576   */\n      0x00\n        /* \"#utility.yul\":2568:2583   */\n      revert\n        /* \"#utility.yul\":2595:2876   */\n    tag_40:\n        /* \"#utility.yul\":2678:2705   */\n      tag_86\n        /* \"#utility.yul\":2700:2704   */\n      dup3\n        /* \"#utility.yul\":2678:2705   */\n      tag_38\n      jump\t// in\n    tag_86:\n        /* \"#utility.yul\":2670:2676   */\n      dup2\n        /* \"#utility.yul\":2666:2706   */\n      add\n        /* \"#utility.yul\":2808:2814   */\n      dup2\n        /* \"#utility.yul\":2796:2806   */\n      dup2\n        /* \"#utility.yul\":2793:2815   */\n      lt\n        /* \"#utility.yul\":2772:2790   */\n      0xffffffffffffffff\n        /* \"#utility.yul\":2760:2770   */\n      dup3\n        /* \"#utility.yul\":2757:2791   */\n      gt\n        /* \"#utility.yul\":2754:2816   */\n      or\n        /* \"#utility.yul\":2751:2839   */\n      iszero\n      tag_87\n      jumpi\n        /* \"#utility.yul\":2819:2837   */\n      tag_88\n      tag_39\n      jump\t// in\n    tag_88:\n        /* \"#utility.yul\":2751:2839   */\n    tag_87:\n        /* \"#utility.yul\":2859:2869   */\n      dup1\n        /* \"#utility.yul\":2855:2857   */\n      0x40\n        /* \"#utility.yul\":2848:2870   */\n      mstore\n        /* \"#utility.yul\":2638:2876   */\n      pop\n        /* \"#utility.yul\":2595:2876   */\n      pop\n      pop\n      jump\t// out\n        /* \"#utility.yul\":2882:3011   */\n    tag_41:\n        /* \"#utility.yul\":2916:2922   */\n      0x00\n        /* \"#utility.yul\":2943:2963   */\n      tag_90\n      tag_24\n      jump\t// in\n    tag_90:\n        /* \"#utility.yul\":2933:2963   */\n      swap1\n      pop\n        /* \"#utility.yul\":2972:3005   */\n      tag_91\n        /* \"#utility.yul\":3000:3004   */\n      dup3\n        /* \"#utility.yul\":2992:2998   */\n      dup3\n        /* \"#utility.yul\":2972:3005   */\n      tag_40\n      jump\t// in\n    tag_91:\n        /* \"#utility.yul\":2882:3011   */\n      swap2\n      swap1\n      pop\n      jump\t// out\n        /* \"#utility.yul\":3017:3325   */\n    tag_42:\n        /* \"#utility.yul\":3079:3083   */\n      0x00\n        /* \"#utility.yul\":3169:3187   */\n      0xffffffffffffffff\n        /* \"#utility.yul\":3161:3167   */\n      dup3\n        /* \"#utility.yul\":3158:3188   */\n      gt\n        /* \"#utility.yul\":3155:3211   */\n      iszero\n      tag_93\n      jumpi\n        /* \"#utility.yul\":3191:3209   */\n      tag_94\n      tag_39\n      jump\t// in\n    tag_94:\n        /* \"#utility.yul\":3155:3211   */\n    tag_93:\n        /* \"#utility.yul\":3229:3258   */\n      tag_95\n        /* \"#utility.yul\":3251:3257   */\n      dup3\n        /* \"#utility.yul\":3229:3258   */\n      tag_38\n      jump\t// in\n    tag_95:\n        /* \"#utility.yul\":3221:3258   */\n      swap1\n      pop\n        /* \"#utility.yul\":3313:3317   */\n      0x20\n        /* \"#utility.yul\":3307:3311   */\n      dup2\n        /* \"#utility.yul\":3303:3318   */\n      add\n        /* \"#utility.yul\":3295:3318   */\n      swap1\n      pop\n        /* \"#utility.yul\":3017:3325   */\n      swap2\n      swap1\n      pop\n      jump\t// out\n        /* \"#utility.yul\":3331:3485   */\n    tag_43:\n        /* \"#utility.yul\":3415:3421   */\n      dup3\n        /* \"#utility.yul\":3410:3413   */\n      dup2\n        /* \"#utility.yul\":3405:3408   */\n      dup4\n        /* \"#utility.yul\":3392:3422   */\n      calldatacopy\n        /* \"#utility.yul\":3477:3478   */\n      0x00\n        /* \"#utility.yul\":3468:3474   */\n      dup4\n        /* \"#utility.yul\":3463:3466   */\n      dup4\n        /* \"#utility.yul\":3459:3475   */\n      add\n        /* \"#utility.yul\":3452:3479   */\n      mstore\n        /* \"#utility.yul\":3331:3485   */\n      pop\n      pop\n      pop\n      jump\t// out\n        /* \"#utility.yul\":3491:3903   */\n    tag_44:\n        /* \"#utility.yul\":3569:3574   */\n      0x00\n        /* \"#utility.yul\":3594:3660   */\n      tag_98\n        /* \"#utility.yul\":3610:3659   */\n      tag_99\n        /* \"#utility.yul\":3652:3658   */\n      dup5\n        /* \"#utility.yul\":3610:3659   */\n      tag_42\n      jump\t// in\n    tag_99:\n        /* \"#utility.yul\":3594:3660   */\n      tag_41\n      jump\t// in\n    tag_98:\n        /* \"#utility.yul\":3585:3660   */\n      swap1\n      pop\n        /* \"#utility.yul\":3683:3689   */\n      dup3\n        /* \"#utility.yul\":3676:3681   */\n      dup2\n        /* \"#utility.yul\":3669:3690   */\n      mstore\n        /* \"#utility.yul\":3721:3725   */\n      0x20\n        /* \"#utility.yul\":3714:3719   */\n      dup2\n        /* \"#utility.yul\":3710:3726   */\n      add\n        /* \"#utility.yul\":3759:3762   */\n      dup5\n        /* \"#utility.yul\":3750:3756   */\n      dup5\n        /* \"#utility.yul\":3745:3748   */\n      dup5\n        /* \"#utility.yul\":3741:3757   */\n      add\n        /* \"#utility.yul\":3738:3763   */\n      gt\n        /* \"#utility.yul\":3735:3847   */\n      iszero\n      tag_100\n      jumpi\n        /* \"#utility.yul\":3766:3845   */\n      tag_101\n      tag_37\n      jump\t// in\n    tag_101:\n        /* \"#utility.yul\":3735:3847   */\n    tag_100:\n        /* \"#utility.yul\":3856:3897   */\n      tag_102\n        /* \"#utility.yul\":3890:3896   */\n      dup5\n        /* \"#utility.yul\":3885:3888   */\n      dup3\n        /* \"#utility.yul\":3880:3883   */\n      dup6\n        /* \"#utility.yul\":3856:3897   */\n      tag_43\n      jump\t// in\n    tag_102:\n        /* \"#utility.yul\":3575:3903   */\n      pop\n        /* \"#utility.yul\":3491:3903   */\n      swap4\n      swap3\n      pop\n      pop\n      pop\n      jump\t// out\n        /* \"#utility.yul\":3923:4263   */\n    tag_45:\n        /* \"#utility.yul\":3979:3984   */\n      0x00\n        /* \"#utility.yul\":4028:4031   */\n      dup3\n        /* \"#utility.yul\":4021:4025   */\n      0x1f\n        /* \"#utility.yul\":4013:4019   */\n      dup4\n        /* \"#utility.yul\":4009:4026   */\n      add\n        /* \"#utility.yul\":4005:4032   */\n      slt\n        /* \"#utility.yul\":3995:4117   */\n      tag_104\n      jumpi\n        /* \"#utility.yul\":4036:4115   */\n      tag_105\n      tag_36\n      jump\t// in\n    tag_105:\n        /* \"#utility.yul\":3995:4117   */\n    tag_104:\n        /* \"#utility.yul\":4153:4159   */\n      dup2\n        /* \"#utility.yul\":4140:4160   */\n      calldataload\n        /* \"#utility.yul\":4178:4257   */\n      tag_106\n        /* \"#utility.yul\":4253:4256   */\n      dup5\n        /* \"#utility.yul\":4245:4251   */\n      dup3\n        /* \"#utility.yul\":4238:4242   */\n      0x20\n        /* \"#utility.yul\":4230:4236   */\n      dup7\n        /* \"#utility.yul\":4226:4243   */\n      add\n        /* \"#utility.yul\":4178:4257   */\n      tag_44\n      jump\t// in\n    tag_106:\n        /* \"#utility.yul\":4169:4257   */\n      swap2\n      pop\n        /* \"#utility.yul\":3985:4263   */\n      pop\n        /* \"#utility.yul\":3923:4263   */\n      swap3\n      swap2\n      pop\n      pop\n      jump\t// out\n        /* \"#utility.yul\":4269:4923   */\n    tag_13:\n        /* \"#utility.yul\":4347:4353   */\n      0x00\n        /* \"#utility.yul\":4355:4361   */\n      dup1\n        /* \"#utility.yul\":4404:4406   */\n      0x40\n        /* \"#utility.yul\":4392:4401   */\n      dup4\n        /* \"#utility.yul\":4383:4390   */\n      dup6\n        /* \"#utility.yul\":4379:4402   */\n      sub\n        /* \"#utility.yul\":4375:4407   */\n      slt\n        /* \"#utility.yul\":4372:4491   */\n      iszero\n      tag_108\n      jumpi\n        /* \"#utility.yul\":4410:4489   */\n      tag_109\n      tag_25\n      jump\t// in\n    tag_109:\n        /* \"#utility.yul\":4372:4491   */\n    tag_108:\n        /* \"#utility.yul\":4530:4531   */\n      0x00\n        /* \"#utility.yul\":4555:4608   */\n      tag_110\n        /* \"#utility.yul\":4600:4607   */\n      dup6\n        /* \"#utility.yul\":4591:4597   */\n      dup3\n        /* \"#utility.yul\":4580:4589   */\n      dup7\n        /* \"#utility.yul\":4576:4598   */\n      add\n        /* \"#utility.yul\":4555:4608   */\n      tag_29\n      jump\t// in\n    tag_110:\n        /* \"#utility.yul\":4545:4608   */\n      swap3\n      pop\n        /* \"#utility.yul\":4501:4618   */\n      pop\n        /* \"#utility.yul\":4685:4687   */\n      0x20\n        /* \"#utility.yul\":4674:4683   */\n      dup4\n        /* \"#utility.yul\":4670:4688   */\n      add\n        /* \"#utility.yul\":4657:4689   */\n      calldataload\n        /* \"#utility.yul\":4716:4734   */\n      0xffffffffffffffff\n        /* \"#utility.yul\":4708:4714   */\n      dup2\n        /* \"#utility.yul\":4705:4735   */\n      gt\n        /* \"#utility.yul\":4702:4819   */\n      iszero\n      tag_111\n      jumpi\n        /* \"#utility.yul\":4738:4817   */\n      tag_112\n      tag_26\n      jump\t// in\n    tag_112:\n        /* \"#utility.yul\":4702:4819   */\n    tag_111:\n        /* \"#utility.yul\":4843:4906   */\n      tag_113\n        /* \"#utility.yul\":4898:4905   */\n      dup6\n        /* \"#utility.yul\":4889:4895   */\n      dup3\n        /* \"#utility.yul\":4878:4887   */\n      dup7\n        /* \"#utility.yul\":4874:4896   */\n      add\n        /* \"#utility.yul\":4843:4906   */\n      tag_45\n      jump\t// in\n    tag_113:\n        /* \"#utility.yul\":4833:4906   */\n      swap2\n      pop\n        /* \"#utility.yul\":4628:4916   */\n      pop\n        /* \"#utility.yul\":4269:4923   */\n      swap3\n      pop\n      swap3\n      swap1\n      pop\n      jump\t// out\n        /* \"#utility.yul\":4929:5047   */\n    tag_46:\n        /* \"#utility.yul\":5016:5040   */\n      tag_115\n        /* \"#utility.yul\":5034:5039   */\n      dup2\n        /* \"#utility.yul\":5016:5040   */\n      tag_27\n      jump\t// in\n    tag_115:\n        /* \"#utility.yul\":5011:5014   */\n      dup3\n        /* \"#utility.yul\":5004:5041   */\n      mstore\n        /* \"#utility.yul\":4929:5047   */\n      pop\n      pop\n      jump\t// out\n        /* \"#utility.yul\":5053:5152   */\n    tag_47:\n        /* \"#utility.yul\":5105:5111   */\n      0x00\n        /* \"#utility.yul\":5139:5144   */\n      dup2\n        /* \"#utility.yul\":5133:5145   */\n      mload\n        /* \"#utility.yul\":5123:5145   */\n      swap1\n      pop\n        /* \"#utility.yul\":5053:5152   */\n      swap2\n      swap1\n      pop\n      jump\t// out\n        /* \"#utility.yul\":5158:5327   */\n    tag_48:\n        /* \"#utility.yul\":5242:5253   */\n      0x00\n        /* \"#utility.yul\":5276:5282   */\n      dup3\n        /* \"#utility.yul\":5271:5274   */\n      dup3\n        /* \"#utility.yul\":5264:5283   */\n      mstore\n        /* \"#utility.yul\":5316:5320   */\n      0x20\n        /* \"#utility.yul\":5311:5314   */\n      dup3\n        /* \"#utility.yul\":5307:5321   */\n      add\n        /* \"#utility.yul\":5292:5321   */\n      swap1\n      pop\n        /* \"#utility.yul\":5158:5327   */\n      swap3\n      swap2\n      pop\n      pop\n      jump\t// out\n        /* \"#utility.yul\":5333:5640   */\n    tag_49:\n        /* \"#utility.yul\":5401:5402   */\n      0x00\n        /* \"#utility.yul\":5411:5524   */\n    tag_119:\n        /* \"#utility.yul\":5425:5431   */\n      dup4\n        /* \"#utility.yul\":5422:5423   */\n      dup2\n        /* \"#utility.yul\":5419:5432   */\n      lt\n        /* \"#utility.yul\":5411:5524   */\n      iszero\n      tag_121\n      jumpi\n        /* \"#utility.yul\":5510:5511   */\n      dup1\n        /* \"#utility.yul\":5505:5508   */\n      dup3\n        /* \"#utility.yul\":5501:5512   */\n      add\n        /* \"#utility.yul\":5495:5513   */\n      mload\n        /* \"#utility.yul\":5491:5492   */\n      dup2\n        /* \"#utility.yul\":5486:5489   */\n      dup5\n        /* \"#utility.yul\":5482:5493   */\n      add\n        /* \"#utility.yul\":5475:5514   */\n      mstore\n        /* \"#utility.yul\":5447:5449   */\n      0x20\n        /* \"#utility.yul\":5444:5445   */\n      dup2\n        /* \"#utility.yul\":5440:5450   */\n      add\n        /* \"#utility.yul\":5435:5450   */\n      swap1\n      pop\n        /* \"#utility.yul\":5411:5524   */\n      jump(tag_119)\n    tag_121:\n        /* \"#utility.yul\":5542:5548   */\n      dup4\n        /* \"#utility.yul\":5539:5540   */\n      dup2\n        /* \"#utility.yul\":5536:5549   */\n      gt\n        /* \"#utility.yul\":5533:5634   */\n      iszero\n      tag_122\n      jumpi\n        /* \"#utility.yul\":5622:5623   */\n      0x00\n        /* \"#utility.yul\":5613:5619   */\n      dup5\n        /* \"#utility.yul\":5608:5611   */\n      dup5\n        /* \"#utility.yul\":5604:5620   */\n      add\n        /* \"#utility.yul\":5597:5624   */\n      mstore\n        /* \"#utility.yul\":5533:5634   */\n    tag_122:\n        /* \"#utility.yul\":5382:5640   */\n      pop\n        /* \"#utility.yul\":5333:5640   */\n      pop\n      pop\n      pop\n      jump\t// out\n        /* \"#utility.yul\":5646:6010   */\n    tag_50:\n        /* \"#utility.yul\":5734:5737   */\n      0x00\n        /* \"#utility.yul\":5762:5801   */\n      tag_124\n        /* \"#utility.yul\":5795:5800   */\n      dup3\n        /* \"#utility.yul\":5762:5801   */\n      tag_47\n      jump\t// in\n    tag_124:\n        /* \"#utility.yul\":5817:5888   */\n      tag_125\n        /* \"#utility.yul\":5881:5887   */\n      dup2\n        /* \"#utility.yul\":5876:5879   */\n      dup6\n        /* \"#utility.yul\":5817:5888   */\n      tag_48\n      jump\t// in\n    tag_125:\n        /* \"#utility.yul\":5810:5888   */\n      swap4\n      pop\n        /* \"#utility.yul\":5897:5949   */\n      tag_126\n        /* \"#utility.yul\":5942:5948   */\n      dup2\n        /* \"#utility.yul\":5937:5940   */\n      dup6\n        /* \"#utility.yul\":5930:5934   */\n      0x20\n        /* \"#utility.yul\":5923:5928   */\n      dup7\n        /* \"#utility.yul\":5919:5935   */\n      add\n        /* \"#utility.yul\":5897:5949   */\n      tag_49\n      jump\t// in\n    tag_126:\n        /* \"#utility.yul\":5974:6003   */\n      tag_127\n        /* \"#utility.yul\":5996:6002   */\n      dup2\n        /* \"#utility.yul\":5974:6003   */\n      tag_38\n      jump\t// in\n    tag_127:\n        /* \"#utility.yul\":5969:5972   */\n      dup5\n        /* \"#utility.yul\":5965:6004   */\n      add\n        /* \"#utility.yul\":5958:6004   */\n      swap2\n      pop\n        /* \"#utility.yul\":5738:6010   */\n      pop\n        /* \"#utility.yul\":5646:6010   */\n      swap3\n      swap2\n      pop\n      pop\n      jump\t// out\n        /* \"#utility.yul\":6016:6112   */\n    tag_51:\n        /* \"#utility.yul\":6053:6060   */\n      0x00\n        /* \"#utility.yul\":6082:6106   */\n      tag_129\n        /* \"#utility.yul\":6100:6105   */\n      dup3\n        /* \"#utility.yul\":6082:6106   */\n      tag_30\n      jump\t// in\n    tag_129:\n        /* \"#utility.yul\":6071:6106   */\n      swap1\n      pop\n        /* \"#utility.yul\":6016:6112   */\n      swap2\n      swap1\n      pop\n      jump\t// out\n        /* \"#utility.yul\":6118:6236   */\n    tag_52:\n        /* \"#utility.yul\":6205:6229   */\n      tag_131\n        /* \"#utility.yul\":6223:6228   */\n      dup2\n        /* \"#utility.yul\":6205:6229   */\n      tag_51\n      jump\t// in\n    tag_131:\n        /* \"#utility.yul\":6200:6203   */\n      dup3\n        /* \"#utility.yul\":6193:6230   */\n      mstore\n        /* \"#utility.yul\":6118:6236   */\n      pop\n      pop\n      jump\t// out\n        /* \"#utility.yul\":6242:6775   */\n    tag_21:\n        /* \"#utility.yul\":6411:6415   */\n      0x00\n        /* \"#utility.yul\":6449:6451   */\n      0x60\n        /* \"#utility.yul\":6438:6447   */\n      dup3\n        /* \"#utility.yul\":6434:6452   */\n      add\n        /* \"#utility.yul\":6426:6452   */\n      swap1\n      pop\n        /* \"#utility.yul\":6462:6533   */\n      tag_133\n        /* \"#utility.yul\":6530:6531   */\n      0x00\n        /* \"#utility.yul\":6519:6528   */\n      dup4\n        /* \"#utility.yul\":6515:6532   */\n      add\n        /* \"#utility.yul\":6506:6512   */\n      dup7\n        /* \"#utility.yul\":6462:6533   */\n      tag_46\n      jump\t// in\n    tag_133:\n        /* \"#utility.yul\":6580:6589   */\n      dup2\n        /* \"#utility.yul\":6574:6578   */\n      dup2\n        /* \"#utility.yul\":6570:6590   */\n      sub\n        /* \"#utility.yul\":6565:6567   */\n      0x20\n        /* \"#utility.yul\":6554:6563   */\n      dup4\n        /* \"#utility.yul\":6550:6568   */\n      add\n        /* \"#utility.yul\":6543:6591   */\n      mstore\n        /* \"#utility.yul\":6608:6686   */\n      tag_134\n        /* \"#utility.yul\":6681:6685   */\n      dup2\n        /* \"#utility.yul\":6672:6678   */\n      dup6\n        /* \"#utility.yul\":6608:6686   */\n      tag_50\n      jump\t// in\n    tag_134:\n        /* \"#utility.yul\":6600:6686   */\n      swap1\n      pop\n        /* \"#utility.yul\":6696:6768   */\n      tag_135\n        /* \"#utility.yul\":6764:6766   */\n      0x40\n        /* \"#utility.yul\":6753:6762   */\n      dup4\n        /* \"#utility.yul\":6749:6767   */\n      add\n        /* \"#utility.yul\":6740:6746   */\n      dup5\n        /* \"#utility.yul\":6696:6768   */\n      tag_52\n      jump\t// in\n    tag_135:\n        /* \"#utility.yul\":6242:6775   */\n      swap5\n      swap4\n      pop\n      pop\n      pop\n      pop\n      jump\t// out\n    stop\n\n    sub_0: assembly {\n            /* \"contracts/BookFactory.sol\":738:1020  contract Book... */\n          mstore(0x40, 0x80)\n            /* \"contracts/BookFactory.sol\":839:1018  constructor(uint _bookID, string memory _bookTitle, address _seller) public payable... */\n          mload(0x40)\n          sub(codesize, bytecodeSize)\n          dup1\n          bytecodeSize\n          dup4\n          codecopy\n          dup2\n          dup2\n          add\n          0x40\n          mstore\n          dup2\n          add\n          swap1\n          tag_1\n          swap2\n          swap1\n          tag_2\n          jump\t// in\n        tag_1:\n            /* \"contracts/BookFactory.sol\":946:953  _bookID */\n          dup3\n            /* \"contracts/BookFactory.sol\":937:943  bookID */\n          0x01\n            /* \"contracts/BookFactory.sol\":937:953  bookID = _bookID */\n          dup2\n          swap1\n          sstore\n          pop\n            /* \"contracts/BookFactory.sol\":975:985  _bookTitle */\n          dup2\n            /* \"contracts/BookFactory.sol\":963:972  bookTitle */\n          0x00\n            /* \"contracts/BookFactory.sol\":963:985  bookTitle = _bookTitle */\n          swap1\n          dup2\n          tag_5\n          swap2\n          swap1\n          tag_6\n          jump\t// in\n        tag_5:\n          pop\n            /* \"contracts/BookFactory.sol\":1004:1011  _seller */\n          dup1\n            /* \"contracts/BookFactory.sol\":995:1001  seller */\n          0x02\n          0x00\n            /* \"contracts/BookFactory.sol\":995:1011  seller = _seller */\n          0x0100\n          exp\n          dup2\n          sload\n          dup2\n          0xffffffffffffffffffffffffffffffffffffffff\n          mul\n          not\n          and\n          swap1\n          dup4\n          0xffffffffffffffffffffffffffffffffffffffff\n          and\n          mul\n          or\n          swap1\n          sstore\n          pop\n            /* \"contracts/BookFactory.sol\":839:1018  constructor(uint _bookID, string memory _bookTitle, address _seller) public payable... */\n          pop\n          pop\n          pop\n            /* \"contracts/BookFactory.sol\":738:1020  contract Book... */\n          jump(tag_7)\n            /* \"#utility.yul\":7:82   */\n        tag_8:\n            /* \"#utility.yul\":40:46   */\n          0x00\n            /* \"#utility.yul\":73:75   */\n          0x40\n            /* \"#utility.yul\":67:76   */\n          mload\n            /* \"#utility.yul\":57:76   */\n          swap1\n          pop\n            /* \"#utility.yul\":7:82   */\n          swap1\n          jump\t// out\n            /* \"#utility.yul\":88:205   */\n        tag_9:\n            /* \"#utility.yul\":197:198   */\n          0x00\n            /* \"#utility.yul\":194:195   */\n          dup1\n            /* \"#utility.yul\":187:199   */\n          revert\n            /* \"#utility.yul\":211:328   */\n        tag_10:\n            /* \"#utility.yul\":320:321   */\n          0x00\n            /* \"#utility.yul\":317:318   */\n          dup1\n            /* \"#utility.yul\":310:322   */\n          revert\n            /* \"#utility.yul\":334:411   */\n        tag_11:\n            /* \"#utility.yul\":371:378   */\n          0x00\n            /* \"#utility.yul\":400:405   */\n          dup2\n            /* \"#utility.yul\":389:405   */\n          swap1\n          pop\n            /* \"#utility.yul\":334:411   */\n          swap2\n          swap1\n          pop\n          jump\t// out\n            /* \"#utility.yul\":417:539   */\n        tag_12:\n            /* \"#utility.yul\":490:514   */\n          tag_52\n            /* \"#utility.yul\":508:513   */\n          dup2\n            /* \"#utility.yul\":490:514   */\n          tag_11\n          jump\t// in\n        tag_52:\n            /* \"#utility.yul\":483:488   */\n          dup2\n            /* \"#utility.yul\":480:515   */\n          eq\n            /* \"#utility.yul\":470:533   */\n          tag_53\n          jumpi\n            /* \"#utility.yul\":529:530   */\n          0x00\n            /* \"#utility.yul\":526:527   */\n          dup1\n            /* \"#utility.yul\":519:531   */\n          revert\n            /* \"#utility.yul\":470:533   */\n        tag_53:\n            /* \"#utility.yul\":417:539   */\n          pop\n          jump\t// out\n            /* \"#utility.yul\":545:688   */\n        tag_13:\n            /* \"#utility.yul\":602:607   */\n          0x00\n            /* \"#utility.yul\":633:639   */\n          dup2\n            /* \"#utility.yul\":627:640   */\n          mload\n            /* \"#utility.yul\":618:640   */\n          swap1\n          pop\n            /* \"#utility.yul\":649:682   */\n          tag_55\n            /* \"#utility.yul\":676:681   */\n          dup2\n            /* \"#utility.yul\":649:682   */\n          tag_12\n          jump\t// in\n        tag_55:\n            /* \"#utility.yul\":545:688   */\n          swap3\n          swap2\n          pop\n          pop\n          jump\t// out\n            /* \"#utility.yul\":694:811   */\n        tag_14:\n            /* \"#utility.yul\":803:804   */\n          0x00\n            /* \"#utility.yul\":800:801   */\n          dup1\n            /* \"#utility.yul\":793:805   */\n          revert\n            /* \"#utility.yul\":817:934   */\n        tag_15:\n            /* \"#utility.yul\":926:927   */\n          0x00\n            /* \"#utility.yul\":923:924   */\n          dup1\n            /* \"#utility.yul\":916:928   */\n          revert\n            /* \"#utility.yul\":940:1042   */\n        tag_16:\n            /* \"#utility.yul\":981:987   */\n          0x00\n            /* \"#utility.yul\":1032:1034   */\n          0x1f\n            /* \"#utility.yul\":1028:1035   */\n          not\n            /* \"#utility.yul\":1023:1025   */\n          0x1f\n            /* \"#utility.yul\":1016:1021   */\n          dup4\n            /* \"#utility.yul\":1012:1026   */\n          add\n            /* \"#utility.yul\":1008:1036   */\n          and\n            /* \"#utility.yul\":998:1036   */\n          swap1\n          pop\n            /* \"#utility.yul\":940:1042   */\n          swap2\n          swap1\n          pop\n          jump\t// out\n            /* \"#utility.yul\":1048:1228   */\n        tag_17:\n            /* \"#utility.yul\":1096:1173   */\n          0x4e487b7100000000000000000000000000000000000000000000000000000000\n            /* \"#utility.yul\":1093:1094   */\n          0x00\n            /* \"#utility.yul\":1086:1174   */\n          mstore\n            /* \"#utility.yul\":1193:1197   */\n          0x41\n            /* \"#utility.yul\":1190:1191   */\n          0x04\n            /* \"#utility.yul\":1183:1198   */\n          mstore\n            /* \"#utility.yul\":1217:1221   */\n          0x24\n            /* \"#utility.yul\":1214:1215   */\n          0x00\n            /* \"#utility.yul\":1207:1222   */\n          revert\n            /* \"#utility.yul\":1234:1515   */\n        tag_18:\n            /* \"#utility.yul\":1317:1344   */\n          tag_61\n            /* \"#utility.yul\":1339:1343   */\n          dup3\n            /* \"#utility.yul\":1317:1344   */\n          tag_16\n          jump\t// in\n        tag_61:\n            /* \"#utility.yul\":1309:1315   */\n          dup2\n            /* \"#utility.yul\":1305:1345   */\n          add\n            /* \"#utility.yul\":1447:1453   */\n          dup2\n            /* \"#utility.yul\":1435:1445   */\n          dup2\n            /* \"#utility.yul\":1432:1454   */\n          lt\n            /* \"#utility.yul\":1411:1429   */\n          0xffffffffffffffff\n            /* \"#utility.yul\":1399:1409   */\n          dup3\n            /* \"#utility.yul\":1396:1430   */\n          gt\n            /* \"#utility.yul\":1393:1455   */\n          or\n            /* \"#utility.yul\":1390:1478   */\n          iszero\n          tag_62\n          jumpi\n            /* \"#utility.yul\":1458:1476   */\n          tag_63\n          tag_17\n          jump\t// in\n        tag_63:\n            /* \"#utility.yul\":1390:1478   */\n        tag_62:\n            /* \"#utility.yul\":1498:1508   */\n          dup1\n            /* \"#utility.yul\":1494:1496   */\n          0x40\n            /* \"#utility.yul\":1487:1509   */\n          mstore\n            /* \"#utility.yul\":1277:1515   */\n          pop\n            /* \"#utility.yul\":1234:1515   */\n          pop\n          pop\n          jump\t// out\n            /* \"#utility.yul\":1521:1650   */\n        tag_19:\n            /* \"#utility.yul\":1555:1561   */\n          0x00\n            /* \"#utility.yul\":1582:1602   */\n          tag_65\n          tag_8\n          jump\t// in\n        tag_65:\n            /* \"#utility.yul\":1572:1602   */\n          swap1\n          pop\n            /* \"#utility.yul\":1611:1644   */\n          tag_66\n            /* \"#utility.yul\":1639:1643   */\n          dup3\n            /* \"#utility.yul\":1631:1637   */\n          dup3\n            /* \"#utility.yul\":1611:1644   */\n          tag_18\n          jump\t// in\n        tag_66:\n            /* \"#utility.yul\":1521:1650   */\n          swap2\n          swap1\n          pop\n          jump\t// out\n            /* \"#utility.yul\":1656:1964   */\n        tag_20:\n            /* \"#utility.yul\":1718:1722   */\n          0x00\n            /* \"#utility.yul\":1808:1826   */\n          0xffffffffffffffff\n            /* \"#utility.yul\":1800:1806   */\n          dup3\n            /* \"#utility.yul\":1797:1827   */\n          gt\n            /* \"#utility.yul\":1794:1850   */\n          iszero\n          tag_68\n          jumpi\n            /* \"#utility.yul\":1830:1848   */\n          tag_69\n          tag_17\n          jump\t// in\n        tag_69:\n            /* \"#utility.yul\":1794:1850   */\n        tag_68:\n            /* \"#utility.yul\":1868:1897   */\n          tag_70\n            /* \"#utility.yul\":1890:1896   */\n          dup3\n            /* \"#utility.yul\":1868:1897   */\n          tag_16\n          jump\t// in\n        tag_70:\n            /* \"#utility.yul\":1860:1897   */\n          swap1\n          pop\n            /* \"#utility.yul\":1952:1956   */\n          0x20\n            /* \"#utility.yul\":1946:1950   */\n          dup2\n            /* \"#utility.yul\":1942:1957   */\n          add\n            /* \"#utility.yul\":1934:1957   */\n          swap1\n          pop\n            /* \"#utility.yul\":1656:1964   */\n          swap2\n          swap1\n          pop\n          jump\t// out\n            /* \"#utility.yul\":1970:2277   */\n        tag_21:\n            /* \"#utility.yul\":2038:2039   */\n          0x00\n            /* \"#utility.yul\":2048:2161   */\n        tag_72:\n            /* \"#utility.yul\":2062:2068   */\n          dup4\n            /* \"#utility.yul\":2059:2060   */\n          dup2\n            /* \"#utility.yul\":2056:2069   */\n          lt\n            /* \"#utility.yul\":2048:2161   */\n          iszero\n          tag_74\n          jumpi\n            /* \"#utility.yul\":2147:2148   */\n          dup1\n            /* \"#utility.yul\":2142:2145   */\n          dup3\n            /* \"#utility.yul\":2138:2149   */\n          add\n            /* \"#utility.yul\":2132:2150   */\n          mload\n            /* \"#utility.yul\":2128:2129   */\n          dup2\n            /* \"#utility.yul\":2123:2126   */\n          dup5\n            /* \"#utility.yul\":2119:2130   */\n          add\n            /* \"#utility.yul\":2112:2151   */\n          mstore\n            /* \"#utility.yul\":2084:2086   */\n          0x20\n            /* \"#utility.yul\":2081:2082   */\n          dup2\n            /* \"#utility.yul\":2077:2087   */\n          add\n            /* \"#utility.yul\":2072:2087   */\n          swap1\n          pop\n            /* \"#utility.yul\":2048:2161   */\n          jump(tag_72)\n        tag_74:\n            /* \"#utility.yul\":2179:2185   */\n          dup4\n            /* \"#utility.yul\":2176:2177   */\n          dup2\n            /* \"#utility.yul\":2173:2186   */\n          gt\n            /* \"#utility.yul\":2170:2271   */\n          iszero\n          tag_75\n          jumpi\n            /* \"#utility.yul\":2259:2260   */\n          0x00\n            /* \"#utility.yul\":2250:2256   */\n          dup5\n            /* \"#utility.yul\":2245:2248   */\n          dup5\n            /* \"#utility.yul\":2241:2257   */\n          add\n            /* \"#utility.yul\":2234:2261   */\n          mstore\n            /* \"#utility.yul\":2170:2271   */\n        tag_75:\n            /* \"#utility.yul\":2019:2277   */\n          pop\n            /* \"#utility.yul\":1970:2277   */\n          pop\n          pop\n          pop\n          jump\t// out\n            /* \"#utility.yul\":2283:2704   */\n        tag_22:\n            /* \"#utility.yul\":2372:2377   */\n          0x00\n            /* \"#utility.yul\":2397:2463   */\n          tag_77\n            /* \"#utility.yul\":2413:2462   */\n          tag_78\n            /* \"#utility.yul\":2455:2461   */\n          dup5\n            /* \"#utility.yul\":2413:2462   */\n          tag_20\n          jump\t// in\n        tag_78:\n            /* \"#utility.yul\":2397:2463   */\n          tag_19\n          jump\t// in\n        tag_77:\n            /* \"#utility.yul\":2388:2463   */\n          swap1\n          pop\n            /* \"#utility.yul\":2486:2492   */\n          dup3\n            /* \"#utility.yul\":2479:2484   */\n          dup2\n            /* \"#utility.yul\":2472:2493   */\n          mstore\n            /* \"#utility.yul\":2524:2528   */\n          0x20\n            /* \"#utility.yul\":2517:2522   */\n          dup2\n            /* \"#utility.yul\":2513:2529   */\n          add\n            /* \"#utility.yul\":2562:2565   */\n          dup5\n            /* \"#utility.yul\":2553:2559   */\n          dup5\n            /* \"#utility.yul\":2548:2551   */\n          dup5\n            /* \"#utility.yul\":2544:2560   */\n          add\n            /* \"#utility.yul\":2541:2566   */\n          gt\n            /* \"#utility.yul\":2538:2650   */\n          iszero\n          tag_79\n          jumpi\n            /* \"#utility.yul\":2569:2648   */\n          tag_80\n          tag_15\n          jump\t// in\n        tag_80:\n            /* \"#utility.yul\":2538:2650   */\n        tag_79:\n            /* \"#utility.yul\":2659:2698   */\n          tag_81\n            /* \"#utility.yul\":2691:2697   */\n          dup5\n            /* \"#utility.yul\":2686:2689   */\n          dup3\n            /* \"#utility.yul\":2681:2684   */\n          dup6\n            /* \"#utility.yul\":2659:2698   */\n          tag_21\n          jump\t// in\n        tag_81:\n            /* \"#utility.yul\":2378:2704   */\n          pop\n            /* \"#utility.yul\":2283:2704   */\n          swap4\n          swap3\n          pop\n          pop\n          pop\n          jump\t// out\n            /* \"#utility.yul\":2724:3079   */\n        tag_23:\n            /* \"#utility.yul\":2791:2796   */\n          0x00\n            /* \"#utility.yul\":2840:2843   */\n          dup3\n            /* \"#utility.yul\":2833:2837   */\n          0x1f\n            /* \"#utility.yul\":2825:2831   */\n          dup4\n            /* \"#utility.yul\":2821:2838   */\n          add\n            /* \"#utility.yul\":2817:2844   */\n          slt\n            /* \"#utility.yul\":2807:2929   */\n          tag_83\n          jumpi\n            /* \"#utility.yul\":2848:2927   */\n          tag_84\n          tag_14\n          jump\t// in\n        tag_84:\n            /* \"#utility.yul\":2807:2929   */\n        tag_83:\n            /* \"#utility.yul\":2958:2964   */\n          dup2\n            /* \"#utility.yul\":2952:2965   */\n          mload\n            /* \"#utility.yul\":2983:3073   */\n          tag_85\n            /* \"#utility.yul\":3069:3072   */\n          dup5\n            /* \"#utility.yul\":3061:3067   */\n          dup3\n            /* \"#utility.yul\":3054:3058   */\n          0x20\n            /* \"#utility.yul\":3046:3052   */\n          dup7\n            /* \"#utility.yul\":3042:3059   */\n          add\n            /* \"#utility.yul\":2983:3073   */\n          tag_22\n          jump\t// in\n        tag_85:\n            /* \"#utility.yul\":2974:3073   */\n          swap2\n          pop\n            /* \"#utility.yul\":2797:3079   */\n          pop\n            /* \"#utility.yul\":2724:3079   */\n          swap3\n          swap2\n          pop\n          pop\n          jump\t// out\n            /* \"#utility.yul\":3085:3211   */\n        tag_24:\n            /* \"#utility.yul\":3122:3129   */\n          0x00\n            /* \"#utility.yul\":3162:3204   */\n          0xffffffffffffffffffffffffffffffffffffffff\n            /* \"#utility.yul\":3155:3160   */\n          dup3\n            /* \"#utility.yul\":3151:3205   */\n          and\n            /* \"#utility.yul\":3140:3205   */\n          swap1\n          pop\n            /* \"#utility.yul\":3085:3211   */\n          swap2\n          swap1\n          pop\n          jump\t// out\n            /* \"#utility.yul\":3217:3313   */\n        tag_25:\n            /* \"#utility.yul\":3254:3261   */\n          0x00\n            /* \"#utility.yul\":3283:3307   */\n          tag_88\n            /* \"#utility.yul\":3301:3306   */\n          dup3\n            /* \"#utility.yul\":3283:3307   */\n          tag_24\n          jump\t// in\n        tag_88:\n            /* \"#utility.yul\":3272:3307   */\n          swap1\n          pop\n            /* \"#utility.yul\":3217:3313   */\n          swap2\n          swap1\n          pop\n          jump\t// out\n            /* \"#utility.yul\":3319:3441   */\n        tag_26:\n            /* \"#utility.yul\":3392:3416   */\n          tag_90\n            /* \"#utility.yul\":3410:3415   */\n          dup2\n            /* \"#utility.yul\":3392:3416   */\n          tag_25\n          jump\t// in\n        tag_90:\n            /* \"#utility.yul\":3385:3390   */\n          dup2\n            /* \"#utility.yul\":3382:3417   */\n          eq\n            /* \"#utility.yul\":3372:3435   */\n          tag_91\n          jumpi\n            /* \"#utility.yul\":3431:3432   */\n          0x00\n            /* \"#utility.yul\":3428:3429   */\n          dup1\n            /* \"#utility.yul\":3421:3433   */\n          revert\n            /* \"#utility.yul\":3372:3435   */\n        tag_91:\n            /* \"#utility.yul\":3319:3441   */\n          pop\n          jump\t// out\n            /* \"#utility.yul\":3447:3590   */\n        tag_27:\n            /* \"#utility.yul\":3504:3509   */\n          0x00\n            /* \"#utility.yul\":3535:3541   */\n          dup2\n            /* \"#utility.yul\":3529:3542   */\n          mload\n            /* \"#utility.yul\":3520:3542   */\n          swap1\n          pop\n            /* \"#utility.yul\":3551:3584   */\n          tag_93\n            /* \"#utility.yul\":3578:3583   */\n          dup2\n            /* \"#utility.yul\":3551:3584   */\n          tag_26\n          jump\t// in\n        tag_93:\n            /* \"#utility.yul\":3447:3590   */\n          swap3\n          swap2\n          pop\n          pop\n          jump\t// out\n            /* \"#utility.yul\":3596:4432   */\n        tag_2:\n            /* \"#utility.yul\":3694:3700   */\n          0x00\n            /* \"#utility.yul\":3702:3708   */\n          dup1\n            /* \"#utility.yul\":3710:3716   */\n          0x00\n            /* \"#utility.yul\":3759:3761   */\n          0x60\n            /* \"#utility.yul\":3747:3756   */\n          dup5\n            /* \"#utility.yul\":3738:3745   */\n          dup7\n            /* \"#utility.yul\":3734:3757   */\n          sub\n            /* \"#utility.yul\":3730:3762   */\n          slt\n            /* \"#utility.yul\":3727:3846   */\n          iszero\n          tag_95\n          jumpi\n            /* \"#utility.yul\":3765:3844   */\n          tag_96\n          tag_9\n          jump\t// in\n        tag_96:\n            /* \"#utility.yul\":3727:3846   */\n        tag_95:\n            /* \"#utility.yul\":3885:3886   */\n          0x00\n            /* \"#utility.yul\":3910:3974   */\n          tag_97\n            /* \"#utility.yul\":3966:3973   */\n          dup7\n            /* \"#utility.yul\":3957:3963   */\n          dup3\n            /* \"#utility.yul\":3946:3955   */\n          dup8\n            /* \"#utility.yul\":3942:3964   */\n          add\n            /* \"#utility.yul\":3910:3974   */\n          tag_13\n          jump\t// in\n        tag_97:\n            /* \"#utility.yul\":3900:3974   */\n          swap4\n          pop\n            /* \"#utility.yul\":3856:3984   */\n          pop\n            /* \"#utility.yul\":4044:4046   */\n          0x20\n            /* \"#utility.yul\":4033:4042   */\n          dup5\n            /* \"#utility.yul\":4029:4047   */\n          add\n            /* \"#utility.yul\":4023:4048   */\n          mload\n            /* \"#utility.yul\":4075:4093   */\n          0xffffffffffffffff\n            /* \"#utility.yul\":4067:4073   */\n          dup2\n            /* \"#utility.yul\":4064:4094   */\n          gt\n            /* \"#utility.yul\":4061:4178   */\n          iszero\n          tag_98\n          jumpi\n            /* \"#utility.yul\":4097:4176   */\n          tag_99\n          tag_10\n          jump\t// in\n        tag_99:\n            /* \"#utility.yul\":4061:4178   */\n        tag_98:\n            /* \"#utility.yul\":4202:4276   */\n          tag_100\n            /* \"#utility.yul\":4268:4275   */\n          dup7\n            /* \"#utility.yul\":4259:4265   */\n          dup3\n            /* \"#utility.yul\":4248:4257   */\n          dup8\n            /* \"#utility.yul\":4244:4266   */\n          add\n            /* \"#utility.yul\":4202:4276   */\n          tag_23\n          jump\t// in\n        tag_100:\n            /* \"#utility.yul\":4192:4276   */\n          swap3\n          pop\n            /* \"#utility.yul\":3994:4286   */\n          pop\n            /* \"#utility.yul\":4325:4327   */\n          0x40\n            /* \"#utility.yul\":4351:4415   */\n          tag_101\n            /* \"#utility.yul\":4407:4414   */\n          dup7\n            /* \"#utility.yul\":4398:4404   */\n          dup3\n            /* \"#utility.yul\":4387:4396   */\n          dup8\n            /* \"#utility.yul\":4383:4405   */\n          add\n            /* \"#utility.yul\":4351:4415   */\n          tag_27\n          jump\t// in\n        tag_101:\n            /* \"#utility.yul\":4341:4415   */\n          swap2\n          pop\n            /* \"#utility.yul\":4296:4425   */\n          pop\n            /* \"#utility.yul\":3596:4432   */\n          swap3\n          pop\n          swap3\n          pop\n          swap3\n          jump\t// out\n            /* \"#utility.yul\":4438:4537   */\n        tag_28:\n            /* \"#utility.yul\":4490:4496   */\n          0x00\n            /* \"#utility.yul\":4524:4529   */\n          dup2\n            /* \"#utility.yul\":4518:4530   */\n          mload\n            /* \"#utility.yul\":4508:4530   */\n          swap1\n          pop\n            /* \"#utility.yul\":4438:4537   */\n          swap2\n          swap1\n          pop\n          jump\t// out\n            /* \"#utility.yul\":4543:4723   */\n        tag_29:\n            /* \"#utility.yul\":4591:4668   */\n          0x4e487b7100000000000000000000000000000000000000000000000000000000\n            /* \"#utility.yul\":4588:4589   */\n          0x00\n            /* \"#utility.yul\":4581:4669   */\n          mstore\n            /* \"#utility.yul\":4688:4692   */\n          0x22\n            /* \"#utility.yul\":4685:4686   */\n          0x04\n            /* \"#utility.yul\":4678:4693   */\n          mstore\n            /* \"#utility.yul\":4712:4716   */\n          0x24\n            /* \"#utility.yul\":4709:4710   */\n          0x00\n            /* \"#utility.yul\":4702:4717   */\n          revert\n            /* \"#utility.yul\":4729:5049   */\n        tag_30:\n            /* \"#utility.yul\":4773:4779   */\n          0x00\n            /* \"#utility.yul\":4810:4811   */\n          0x02\n            /* \"#utility.yul\":4804:4808   */\n          dup3\n            /* \"#utility.yul\":4800:4812   */\n          div\n            /* \"#utility.yul\":4790:4812   */\n          swap1\n          pop\n            /* \"#utility.yul\":4857:4858   */\n          0x01\n            /* \"#utility.yul\":4851:4855   */\n          dup3\n            /* \"#utility.yul\":4847:4859   */\n          and\n            /* \"#utility.yul\":4878:4896   */\n          dup1\n            /* \"#utility.yul\":4868:4949   */\n          tag_105\n          jumpi\n            /* \"#utility.yul\":4934:4938   */\n          0x7f\n            /* \"#utility.yul\":4926:4932   */\n          dup3\n            /* \"#utility.yul\":4922:4939   */\n          and\n            /* \"#utility.yul\":4912:4939   */\n          swap2\n          pop\n            /* \"#utility.yul\":4868:4949   */\n        tag_105:\n            /* \"#utility.yul\":4996:4998   */\n          0x20\n            /* \"#utility.yul\":4988:4994   */\n          dup3\n            /* \"#utility.yul\":4985:4999   */\n          lt\n            /* \"#utility.yul\":4965:4983   */\n          dup2\n            /* \"#utility.yul\":4962:5000   */\n          sub\n            /* \"#utility.yul\":4959:5043   */\n          tag_106\n          jumpi\n            /* \"#utility.yul\":5015:5033   */\n          tag_107\n          tag_29\n          jump\t// in\n        tag_107:\n            /* \"#utility.yul\":4959:5043   */\n        tag_106:\n            /* \"#utility.yul\":4780:5049   */\n          pop\n            /* \"#utility.yul\":4729:5049   */\n          swap2\n          swap1\n          pop\n          jump\t// out\n            /* \"#utility.yul\":5055:5196   */\n        tag_31:\n            /* \"#utility.yul\":5104:5108   */\n          0x00\n            /* \"#utility.yul\":5127:5130   */\n          dup2\n            /* \"#utility.yul\":5119:5130   */\n          swap1\n          pop\n            /* \"#utility.yul\":5150:5153   */\n          dup2\n            /* \"#utility.yul\":5147:5148   */\n          0x00\n            /* \"#utility.yul\":5140:5154   */\n          mstore\n            /* \"#utility.yul\":5184:5188   */\n          0x20\n            /* \"#utility.yul\":5181:5182   */\n          0x00\n            /* \"#utility.yul\":5171:5189   */\n          keccak256\n            /* \"#utility.yul\":5163:5189   */\n          swap1\n          pop\n            /* \"#utility.yul\":5055:5196   */\n          swap2\n          swap1\n          pop\n          jump\t// out\n            /* \"#utility.yul\":5202:5295   */\n        tag_32:\n            /* \"#utility.yul\":5239:5245   */\n          0x00\n            /* \"#utility.yul\":5286:5288   */\n          0x20\n            /* \"#utility.yul\":5281:5283   */\n          0x1f\n            /* \"#utility.yul\":5274:5279   */\n          dup4\n            /* \"#utility.yul\":5270:5284   */\n          add\n            /* \"#utility.yul\":5266:5289   */\n          div\n            /* \"#utility.yul\":5256:5289   */\n          swap1\n          pop\n            /* \"#utility.yul\":5202:5295   */\n          swap2\n          swap1\n          pop\n          jump\t// out\n            /* \"#utility.yul\":5301:5408   */\n        tag_33:\n            /* \"#utility.yul\":5345:5353   */\n          0x00\n            /* \"#utility.yul\":5395:5400   */\n          dup3\n            /* \"#utility.yul\":5389:5393   */\n          dup3\n            /* \"#utility.yul\":5385:5401   */\n          shl\n            /* \"#utility.yul\":5364:5401   */\n          swap1\n          pop\n            /* \"#utility.yul\":5301:5408   */\n          swap3\n          swap2\n          pop\n          pop\n          jump\t// out\n            /* \"#utility.yul\":5414:5807   */\n        tag_34:\n            /* \"#utility.yul\":5483:5489   */\n          0x00\n            /* \"#utility.yul\":5533:5534   */\n          0x08\n            /* \"#utility.yul\":5521:5531   */\n          dup4\n            /* \"#utility.yul\":5517:5535   */\n          mul\n            /* \"#utility.yul\":5556:5653   */\n          tag_112\n            /* \"#utility.yul\":5586:5652   */\n          0xffffffffffffffffffffffffffffffffffffffffffffffffffffffffffffffff\n            /* \"#utility.yul\":5575:5584   */\n          dup3\n            /* \"#utility.yul\":5556:5653   */\n          tag_33\n          jump\t// in\n        tag_112:\n            /* \"#utility.yul\":5674:5713   */\n          tag_113\n            /* \"#utility.yul\":5704:5712   */\n          dup7\n            /* \"#utility.yul\":5693:5702   */\n          dup4\n            /* \"#utility.yul\":5674:5713   */\n          tag_33\n          jump\t// in\n        tag_113:\n            /* \"#utility.yul\":5662:5713   */\n          swap6\n          pop\n            /* \"#utility.yul\":5746:5750   */\n          dup1\n            /* \"#utility.yul\":5742:5751   */\n          not\n            /* \"#utility.yul\":5735:5740   */\n          dup5\n            /* \"#utility.yul\":5731:5752   */\n          and\n            /* \"#utility.yul\":5722:5752   */\n          swap4\n          pop\n            /* \"#utility.yul\":5795:5799   */\n          dup1\n            /* \"#utility.yul\":5785:5793   */\n          dup7\n            /* \"#utility.yul\":5781:5800   */\n          and\n            /* \"#utility.yul\":5774:5779   */\n          dup5\n            /* \"#utility.yul\":5771:5801   */\n          or\n            /* \"#utility.yul\":5761:5801   */\n          swap3\n          pop\n            /* \"#utility.yul\":5490:5807   */\n          pop\n          pop\n            /* \"#utility.yul\":5414:5807   */\n          swap4\n          swap3\n          pop\n          pop\n          pop\n          jump\t// out\n            /* \"#utility.yul\":5813:5873   */\n        tag_35:\n            /* \"#utility.yul\":5841:5844   */\n          0x00\n            /* \"#utility.yul\":5862:5867   */\n          dup2\n            /* \"#utility.yul\":5855:5867   */\n          swap1\n          pop\n            /* \"#utility.yul\":5813:5873   */\n          swap2\n          swap1\n          pop\n          jump\t// out\n            /* \"#utility.yul\":5879:6021   */\n        tag_36:\n            /* \"#utility.yul\":5929:5938   */\n          0x00\n            /* \"#utility.yul\":5962:6015   */\n          tag_116\n            /* \"#utility.yul\":5980:6014   */\n          tag_117\n            /* \"#utility.yul\":5989:6013   */\n          tag_118\n            /* \"#utility.yul\":6007:6012   */\n          dup5\n            /* \"#utility.yul\":5989:6013   */\n          tag_11\n          jump\t// in\n        tag_118:\n            /* \"#utility.yul\":5980:6014   */\n          tag_35\n          jump\t// in\n        tag_117:\n            /* \"#utility.yul\":5962:6015   */\n          tag_11\n          jump\t// in\n        tag_116:\n            /* \"#utility.yul\":5949:6015   */\n          swap1\n          pop\n            /* \"#utility.yul\":5879:6021   */\n          swap2\n          swap1\n          pop\n          jump\t// out\n            /* \"#utility.yul\":6027:6102   */\n        tag_37:\n            /* \"#utility.yul\":6070:6073   */\n          0x00\n            /* \"#utility.yul\":6091:6096   */\n          dup2\n            /* \"#utility.yul\":6084:6096   */\n          swap1\n          pop\n            /* \"#utility.yul\":6027:6102   */\n          swap2\n          swap1\n          pop\n          jump\t// out\n            /* \"#utility.yul\":6108:6377   */\n        tag_38:\n            /* \"#utility.yul\":6218:6257   */\n          tag_121\n            /* \"#utility.yul\":6249:6256   */\n          dup4\n            /* \"#utility.yul\":6218:6257   */\n          tag_36\n          jump\t// in\n        tag_121:\n            /* \"#utility.yul\":6279:6370   */\n          tag_122\n            /* \"#utility.yul\":6328:6369   */\n          tag_123\n            /* \"#utility.yul\":6352:6368   */\n          dup3\n            /* \"#utility.yul\":6328:6369   */\n          tag_37\n          jump\t// in\n        tag_123:\n            /* \"#utility.yul\":6320:6326   */\n          dup5\n            /* \"#utility.yul\":6313:6317   */\n          dup5\n            /* \"#utility.yul\":6307:6318   */\n          sload\n            /* \"#utility.yul\":6279:6370   */\n          tag_34\n          jump\t// in\n        tag_122:\n            /* \"#utility.yul\":6273:6277   */\n          dup3\n            /* \"#utility.yul\":6266:6371   */\n          sstore\n            /* \"#utility.yul\":6184:6377   */\n          pop\n            /* \"#utility.yul\":6108:6377   */\n          pop\n          pop\n          pop\n          jump\t// out\n            /* \"#utility.yul\":6383:6456   */\n        tag_39:\n            /* \"#utility.yul\":6428:6431   */\n          0x00\n            /* \"#utility.yul\":6383:6456   */\n          swap1\n          jump\t// out\n            /* \"#utility.yul\":6462:6651   */\n        tag_40:\n            /* \"#utility.yul\":6539:6571   */\n          tag_126\n          tag_39\n          jump\t// in\n        tag_126:\n            /* \"#utility.yul\":6580:6645   */\n          tag_127\n            /* \"#utility.yul\":6638:6644   */\n          dup2\n            /* \"#utility.yul\":6630:6636   */\n          dup5\n            /* \"#utility.yul\":6624:6628   */\n          dup5\n            /* \"#utility.yul\":6580:6645   */\n          tag_38\n          jump\t// in\n        tag_127:\n            /* \"#utility.yul\":6515:6651   */\n          pop\n            /* \"#utility.yul\":6462:6651   */\n          pop\n          pop\n          jump\t// out\n            /* \"#utility.yul\":6657:6843   */\n        tag_41:\n            /* \"#utility.yul\":6717:6837   */\n        tag_129:\n            /* \"#utility.yul\":6734:6737   */\n          dup2\n            /* \"#utility.yul\":6727:6732   */\n          dup2\n            /* \"#utility.yul\":6724:6738   */\n          lt\n            /* \"#utility.yul\":6717:6837   */\n          iszero\n          tag_131\n          jumpi\n            /* \"#utility.yul\":6788:6827   */\n          tag_132\n            /* \"#utility.yul\":6825:6826   */\n          0x00\n            /* \"#utility.yul\":6818:6823   */\n          dup3\n            /* \"#utility.yul\":6788:6827   */\n          tag_40\n          jump\t// in\n        tag_132:\n            /* \"#utility.yul\":6761:6762   */\n          0x01\n            /* \"#utility.yul\":6754:6759   */\n          dup2\n            /* \"#utility.yul\":6750:6763   */\n          add\n            /* \"#utility.yul\":6741:6763   */\n          swap1\n          pop\n            /* \"#utility.yul\":6717:6837   */\n          jump(tag_129)\n        tag_131:\n            /* \"#utility.yul\":6657:6843   */\n          pop\n          pop\n          jump\t// out\n            /* \"#utility.yul\":6849:7392   */\n        tag_42:\n            /* \"#utility.yul\":6950:6952   */\n          0x1f\n            /* \"#utility.yul\":6945:6948   */\n          dup3\n            /* \"#utility.yul\":6942:6953   */\n          gt\n            /* \"#utility.yul\":6939:7385   */\n          iszero\n          tag_134\n          jumpi\n            /* \"#utility.yul\":6984:7022   */\n          tag_135\n            /* \"#utility.yul\":7016:7021   */\n          dup2\n            /* \"#utility.yul\":6984:7022   */\n          tag_31\n          jump\t// in\n        tag_135:\n            /* \"#utility.yul\":7068:7097   */\n          tag_136\n            /* \"#utility.yul\":7086:7096   */\n          dup5\n            /* \"#utility.yul\":7068:7097   */\n          tag_32\n          jump\t// in\n        tag_136:\n            /* \"#utility.yul\":7058:7066   */\n          dup2\n            /* \"#utility.yul\":7054:7098   */\n          add\n            /* \"#utility.yul\":7251:7253   */\n          0x20\n            /* \"#utility.yul\":7239:7249   */\n          dup6\n            /* \"#utility.yul\":7236:7254   */\n          lt\n            /* \"#utility.yul\":7233:7282   */\n          iszero\n          tag_137\n          jumpi\n            /* \"#utility.yul\":7272:7280   */\n          dup2\n            /* \"#utility.yul\":7257:7280   */\n          swap1\n          pop\n            /* \"#utility.yul\":7233:7282   */\n        tag_137:\n            /* \"#utility.yul\":7295:7375   */\n          tag_138\n            /* \"#utility.yul\":7351:7373   */\n          tag_139\n            /* \"#utility.yul\":7369:7372   */\n          dup6\n            /* \"#utility.yul\":7351:7373   */\n          tag_32\n          jump\t// in\n        tag_139:\n            /* \"#utility.yul\":7341:7349   */\n          dup4\n            /* \"#utility.yul\":7337:7374   */\n          add\n            /* \"#utility.yul\":7324:7335   */\n          dup3\n            /* \"#utility.yul\":7295:7375   */\n          tag_41\n          jump\t// in\n        tag_138:\n            /* \"#utility.yul\":6954:7385   */\n          pop\n          pop\n            /* \"#utility.yul\":6939:7385   */\n        tag_134:\n            /* \"#utility.yul\":6849:7392   */\n          pop\n          pop\n          pop\n          jump\t// out\n            /* \"#utility.yul\":7398:7515   */\n        tag_43:\n            /* \"#utility.yul\":7452:7460   */\n          0x00\n            /* \"#utility.yul\":7502:7507   */\n          dup3\n            /* \"#utility.yul\":7496:7500   */\n          dup3\n            /* \"#utility.yul\":7492:7508   */\n          shr\n            /* \"#utility.yul\":7471:7508   */\n          swap1\n          pop\n            /* \"#utility.yul\":7398:7515   */\n          swap3\n          swap2\n          pop\n          pop\n          jump\t// out\n            /* \"#utility.yul\":7521:7690   */\n        tag_44:\n            /* \"#utility.yul\":7565:7571   */\n          0x00\n            /* \"#utility.yul\":7598:7649   */\n          tag_142\n            /* \"#utility.yul\":7646:7647   */\n          0x00\n            /* \"#utility.yul\":7642:7648   */\n          not\n            /* \"#utility.yul\":7634:7639   */\n          dup5\n            /* \"#utility.yul\":7631:7632   */\n          0x08\n            /* \"#utility.yul\":7627:7640   */\n          mul\n            /* \"#utility.yul\":7598:7649   */\n          tag_43\n          jump\t// in\n        tag_142:\n            /* \"#utility.yul\":7594:7650   */\n          not\n            /* \"#utility.yul\":7679:7683   */\n          dup1\n            /* \"#utility.yul\":7673:7677   */\n          dup4\n            /* \"#utility.yul\":7669:7684   */\n          and\n            /* \"#utility.yul\":7659:7684   */\n          swap2\n          pop\n            /* \"#utility.yul\":7572:7690   */\n          pop\n            /* \"#utility.yul\":7521:7690   */\n          swap3\n          swap2\n          pop\n          pop\n          jump\t// out\n            /* \"#utility.yul\":7695:7990   */\n        tag_45:\n            /* \"#utility.yul\":7771:7775   */\n          0x00\n            /* \"#utility.yul\":7917:7946   */\n          tag_144\n            /* \"#utility.yul\":7942:7945   */\n          dup4\n            /* \"#utility.yul\":7936:7940   */\n          dup4\n            /* \"#utility.yul\":7917:7946   */\n          tag_44\n          jump\t// in\n        tag_144:\n            /* \"#utility.yul\":7909:7946   */\n          swap2\n          pop\n            /* \"#utility.yul\":7979:7982   */\n          dup3\n            /* \"#utility.yul\":7976:7977   */\n          0x02\n            /* \"#utility.yul\":7972:7983   */\n          mul\n            /* \"#utility.yul\":7966:7970   */\n          dup3\n            /* \"#utility.yul\":7963:7984   */\n          or\n            /* \"#utility.yul\":7955:7984   */\n          swap1\n          pop\n            /* \"#utility.yul\":7695:7990   */\n          swap3\n          swap2\n          pop\n          pop\n          jump\t// out\n            /* \"#utility.yul\":7995:9390   */\n        tag_6:\n            /* \"#utility.yul\":8112:8149   */\n          tag_146\n            /* \"#utility.yul\":8145:8148   */\n          dup3\n            /* \"#utility.yul\":8112:8149   */\n          tag_28\n          jump\t// in\n        tag_146:\n            /* \"#utility.yul\":8214:8232   */\n          0xffffffffffffffff\n            /* \"#utility.yul\":8206:8212   */\n          dup2\n            /* \"#utility.yul\":8203:8233   */\n          gt\n            /* \"#utility.yul\":8200:8256   */\n          iszero\n          tag_147\n          jumpi\n            /* \"#utility.yul\":8236:8254   */\n          tag_148\n          tag_17\n          jump\t// in\n        tag_148:\n            /* \"#utility.yul\":8200:8256   */\n        tag_147:\n            /* \"#utility.yul\":8280:8318   */\n          tag_149\n            /* \"#utility.yul\":8312:8316   */\n          dup3\n            /* \"#utility.yul\":8306:8317   */\n          sload\n            /* \"#utility.yul\":8280:8318   */\n          tag_30\n          jump\t// in\n        tag_149:\n            /* \"#utility.yul\":8365:8432   */\n          tag_150\n            /* \"#utility.yul\":8425:8431   */\n          dup3\n            /* \"#utility.yul\":8417:8423   */\n          dup3\n            /* \"#utility.yul\":8411:8415   */\n          dup6\n            /* \"#utility.yul\":8365:8432   */\n          tag_42\n          jump\t// in\n        tag_150:\n            /* \"#utility.yul\":8459:8460   */\n          0x00\n            /* \"#utility.yul\":8483:8487   */\n          0x20\n            /* \"#utility.yul\":8470:8487   */\n          swap1\n          pop\n            /* \"#utility.yul\":8515:8517   */\n          0x1f\n            /* \"#utility.yul\":8507:8513   */\n          dup4\n            /* \"#utility.yul\":8504:8518   */\n          gt\n            /* \"#utility.yul\":8532:8533   */\n          0x01\n            /* \"#utility.yul\":8527:9145   */\n          dup2\n          eq\n          tag_152\n          jumpi\n            /* \"#utility.yul\":9189:9190   */\n          0x00\n            /* \"#utility.yul\":9206:9212   */\n          dup5\n            /* \"#utility.yul\":9203:9280   */\n          iszero\n          tag_153\n          jumpi\n            /* \"#utility.yul\":9255:9264   */\n          dup3\n            /* \"#utility.yul\":9250:9253   */\n          dup8\n            /* \"#utility.yul\":9246:9265   */\n          add\n            /* \"#utility.yul\":9240:9266   */\n          mload\n            /* \"#utility.yul\":9231:9266   */\n          swap1\n          pop\n            /* \"#utility.yul\":9203:9280   */\n        tag_153:\n            /* \"#utility.yul\":9306:9373   */\n          tag_154\n            /* \"#utility.yul\":9366:9372   */\n          dup6\n            /* \"#utility.yul\":9359:9364   */\n          dup3\n            /* \"#utility.yul\":9306:9373   */\n          tag_45\n          jump\t// in\n        tag_154:\n            /* \"#utility.yul\":9300:9304   */\n          dup7\n            /* \"#utility.yul\":9293:9374   */\n          sstore\n            /* \"#utility.yul\":9162:9384   */\n          pop\n            /* \"#utility.yul\":8497:9384   */\n          jump(tag_151)\n            /* \"#utility.yul\":8527:9145   */\n        tag_152:\n            /* \"#utility.yul\":8579:8583   */\n          0x1f\n            /* \"#utility.yul\":8575:8584   */\n          not\n            /* \"#utility.yul\":8567:8573   */\n          dup5\n            /* \"#utility.yul\":8563:8585   */\n          and\n            /* \"#utility.yul\":8613:8650   */\n          tag_155\n            /* \"#utility.yul\":8645:8649   */\n          dup7\n            /* \"#utility.yul\":8613:8650   */\n          tag_31\n          jump\t// in\n        tag_155:\n            /* \"#utility.yul\":8672:8673   */\n          0x00\n            /* \"#utility.yul\":8686:8894   */\n        tag_156:\n            /* \"#utility.yul\":8700:8707   */\n          dup3\n            /* \"#utility.yul\":8697:8698   */\n          dup2\n            /* \"#utility.yul\":8694:8708   */\n          lt\n            /* \"#utility.yul\":8686:8894   */\n          iszero\n          tag_158\n          jumpi\n            /* \"#utility.yul\":8779:8788   */\n          dup5\n            /* \"#utility.yul\":8774:8777   */\n          dup10\n            /* \"#utility.yul\":8770:8789   */\n          add\n            /* \"#utility.yul\":8764:8790   */\n          mload\n            /* \"#utility.yul\":8756:8762   */\n          dup3\n            /* \"#utility.yul\":8749:8791   */\n          sstore\n            /* \"#utility.yul\":8830:8831   */\n          0x01\n            /* \"#utility.yul\":8822:8828   */\n          dup3\n            /* \"#utility.yul\":8818:8832   */\n          add\n            /* \"#utility.yul\":8808:8832   */\n          swap2\n          pop\n            /* \"#utility.yul\":8877:8879   */\n          0x20\n            /* \"#utility.yul\":8866:8875   */\n          dup6\n            /* \"#utility.yul\":8862:8880   */\n          add\n            /* \"#utility.yul\":8849:8880   */\n          swap5\n          pop\n            /* \"#utility.yul\":8723:8727   */\n          0x20\n            /* \"#utility.yul\":8720:8721   */\n          dup2\n            /* \"#utility.yul\":8716:8728   */\n          add\n            /* \"#utility.yul\":8711:8728   */\n          swap1\n          pop\n            /* \"#utility.yul\":8686:8894   */\n          jump(tag_156)\n        tag_158:\n            /* \"#utility.yul\":8922:8928   */\n          dup7\n            /* \"#utility.yul\":8913:8920   */\n          dup4\n            /* \"#utility.yul\":8910:8929   */\n          lt\n            /* \"#utility.yul\":8907:9086   */\n          iszero\n          tag_159\n          jumpi\n            /* \"#utility.yul\":8980:8989   */\n          dup5\n            /* \"#utility.yul\":8975:8978   */\n          dup10\n            /* \"#utility.yul\":8971:8990   */\n          add\n            /* \"#utility.yul\":8965:8991   */\n          mload\n            /* \"#utility.yul\":9023:9071   */\n          tag_160\n            /* \"#utility.yul\":9065:9069   */\n          0x1f\n            /* \"#utility.yul\":9057:9063   */\n          dup10\n            /* \"#utility.yul\":9053:9070   */\n          and\n            /* \"#utility.yul\":9042:9051   */\n          dup3\n            /* \"#utility.yul\":9023:9071   */\n          tag_44\n          jump\t// in\n        tag_160:\n            /* \"#utility.yul\":9015:9021   */\n          dup4\n            /* \"#utility.yul\":9008:9072   */\n          sstore\n            /* \"#utility.yul\":8930:9086   */\n          pop\n            /* \"#utility.yul\":8907:9086   */\n        tag_159:\n            /* \"#utility.yul\":9132:9133   */\n          0x01\n            /* \"#utility.yul\":9128:9129   */\n          0x02\n            /* \"#utility.yul\":9120:9126   */\n          dup9\n            /* \"#utility.yul\":9116:9130   */\n          mul\n            /* \"#utility.yul\":9112:9134   */\n          add\n            /* \"#utility.yul\":9106:9110   */\n          dup9\n            /* \"#utility.yul\":9099:9135   */\n          sstore\n            /* \"#utility.yul\":8534:9145   */\n          pop\n          pop\n          pop\n            /* \"#utility.yul\":8497:9384   */\n        tag_151:\n          pop\n            /* \"#utility.yul\":8087:9390   */\n          pop\n          pop\n          pop\n            /* \"#utility.yul\":7995:9390   */\n          pop\n          pop\n          jump\t// out\n            /* \"contracts/BookFactory.sol\":738:1020  contract Book... */\n        tag_7:\n          dataSize(sub_0)\n          dup1\n          dataOffset(sub_0)\n          0x00\n          codecopy\n          0x00\n          return\n        stop\n\n        sub_0: assembly {\n                /* \"contracts/BookFactory.sol\":738:1020  contract Book... */\n              mstore(0x40, 0x80)\n              callvalue\n              dup1\n              iszero\n              tag_1\n              jumpi\n              0x00\n              dup1\n              revert\n            tag_1:\n              pop\n              jumpi(tag_2, lt(calldatasize, 0x04))\n              shr(0xe0, calldataload(0x00))\n              dup1\n              0x08551a53\n              eq\n              tag_3\n              jumpi\n              dup1\n              0x913da9d8\n              eq\n              tag_4\n              jumpi\n              dup1\n              0x96bdecb6\n              eq\n              tag_5\n              jumpi\n            tag_2:\n              0x00\n              dup1\n              revert\n                /* \"contracts/BookFactory.sol\":811:832  address public seller */\n            tag_3:\n              tag_6\n              tag_7\n              jump\t// in\n            tag_6:\n              mload(0x40)\n              tag_8\n              swap2\n              swap1\n              tag_9\n              jump\t// in\n            tag_8:\n              mload(0x40)\n              dup1\n              swap2\n              sub\n              swap1\n              return\n                /* \"contracts/BookFactory.sol\":758:781  string public bookTitle */\n            tag_4:\n              tag_10\n              tag_11\n              jump\t// in\n            tag_10:\n              mload(0x40)\n              tag_12\n              swap2\n              swap1\n              tag_13\n              jump\t// in\n            tag_12:\n              mload(0x40)\n              dup1\n              swap2\n              sub\n              swap1\n              return\n                /* \"contracts/BookFactory.sol\":787:805  uint public bookID */\n            tag_5:\n              tag_14\n              tag_15\n              jump\t// in\n            tag_14:\n              mload(0x40)\n              tag_16\n              swap2\n              swap1\n              tag_17\n              jump\t// in\n            tag_16:\n              mload(0x40)\n              dup1\n              swap2\n              sub\n              swap1\n              return\n                /* \"contracts/BookFactory.sol\":811:832  address public seller */\n            tag_7:\n              0x02\n              0x00\n              swap1\n              sload\n              swap1\n              0x0100\n              exp\n              swap1\n              div\n              0xffffffffffffffffffffffffffffffffffffffff\n              and\n              dup2\n              jump\t// out\n                /* \"contracts/BookFactory.sol\":758:781  string public bookTitle */\n            tag_11:\n              0x00\n              dup1\n              sload\n              tag_18\n              swap1\n              tag_19\n              jump\t// in\n            tag_18:\n              dup1\n              0x1f\n              add\n              0x20\n              dup1\n              swap2\n              div\n              mul\n              0x20\n              add\n              mload(0x40)\n              swap1\n              dup2\n              add\n              0x40\n              mstore\n              dup1\n              swap3\n              swap2\n              swap1\n              dup2\n              dup2\n              mstore\n              0x20\n              add\n              dup3\n              dup1\n              sload\n              tag_20\n              swap1\n              tag_19\n              jump\t// in\n            tag_20:\n              dup1\n              iszero\n              tag_21\n              jumpi\n              dup1\n              0x1f\n              lt\n              tag_22\n              jumpi\n              0x0100\n              dup1\n              dup4\n              sload\n              div\n              mul\n              dup4\n              mstore\n              swap2\n              0x20\n              add\n              swap2\n              jump(tag_21)\n            tag_22:\n              dup3\n              add\n              swap2\n              swap1\n              0x00\n              mstore\n              keccak256(0x00, 0x20)\n              swap1\n            tag_23:\n              dup2\n              sload\n              dup2\n              mstore\n              swap1\n              0x01\n              add\n              swap1\n              0x20\n              add\n              dup1\n              dup4\n              gt\n              tag_23\n              jumpi\n              dup3\n              swap1\n              sub\n              0x1f\n              and\n              dup3\n              add\n              swap2\n            tag_21:\n              pop\n              pop\n              pop\n              pop\n              pop\n              dup2\n              jump\t// out\n                /* \"contracts/BookFactory.sol\":787:805  uint public bookID */\n            tag_15:\n              sload(0x01)\n              dup2\n              jump\t// out\n                /* \"#utility.yul\":7:133   */\n            tag_24:\n                /* \"#utility.yul\":44:51   */\n              0x00\n                /* \"#utility.yul\":84:126   */\n              0xffffffffffffffffffffffffffffffffffffffff\n                /* \"#utility.yul\":77:82   */\n              dup3\n                /* \"#utility.yul\":73:127   */\n              and\n                /* \"#utility.yul\":62:127   */\n              swap1\n              pop\n                /* \"#utility.yul\":7:133   */\n              swap2\n              swap1\n              pop\n              jump\t// out\n                /* \"#utility.yul\":139:235   */\n            tag_25:\n                /* \"#utility.yul\":176:183   */\n              0x00\n                /* \"#utility.yul\":205:229   */\n              tag_38\n                /* \"#utility.yul\":223:228   */\n              dup3\n                /* \"#utility.yul\":205:229   */\n              tag_24\n              jump\t// in\n            tag_38:\n                /* \"#utility.yul\":194:229   */\n              swap1\n              pop\n                /* \"#utility.yul\":139:235   */\n              swap2\n              swap1\n              pop\n              jump\t// out\n                /* \"#utility.yul\":241:359   */\n            tag_26:\n                /* \"#utility.yul\":328:352   */\n              tag_40\n                /* \"#utility.yul\":346:351   */\n              dup2\n                /* \"#utility.yul\":328:352   */\n              tag_25\n              jump\t// in\n            tag_40:\n                /* \"#utility.yul\":323:326   */\n              dup3\n                /* \"#utility.yul\":316:353   */\n              mstore\n                /* \"#utility.yul\":241:359   */\n              pop\n              pop\n              jump\t// out\n                /* \"#utility.yul\":365:587   */\n            tag_9:\n                /* \"#utility.yul\":458:462   */\n              0x00\n                /* \"#utility.yul\":496:498   */\n              0x20\n                /* \"#utility.yul\":485:494   */\n              dup3\n                /* \"#utility.yul\":481:499   */\n              add\n                /* \"#utility.yul\":473:499   */\n              swap1\n              pop\n                /* \"#utility.yul\":509:580   */\n              tag_42\n                /* \"#utility.yul\":577:578   */\n              0x00\n                /* \"#utility.yul\":566:575   */\n              dup4\n                /* \"#utility.yul\":562:579   */\n              add\n                /* \"#utility.yul\":553:559   */\n              dup5\n                /* \"#utility.yul\":509:580   */\n              tag_26\n              jump\t// in\n            tag_42:\n                /* \"#utility.yul\":365:587   */\n              swap3\n              swap2\n              pop\n              pop\n              jump\t// out\n                /* \"#utility.yul\":593:692   */\n            tag_27:\n                /* \"#utility.yul\":645:651   */\n              0x00\n                /* \"#utility.yul\":679:684   */\n              dup2\n                /* \"#utility.yul\":673:685   */\n              mload\n                /* \"#utility.yul\":663:685   */\n              swap1\n              pop\n                /* \"#utility.yul\":593:692   */\n              swap2\n              swap1\n              pop\n              jump\t// out\n                /* \"#utility.yul\":698:867   */\n            tag_28:\n                /* \"#utility.yul\":782:793   */\n              0x00\n                /* \"#utility.yul\":816:822   */\n              dup3\n                /* \"#utility.yul\":811:814   */\n              dup3\n                /* \"#utility.yul\":804:823   */\n              mstore\n                /* \"#utility.yul\":856:860   */\n              0x20\n                /* \"#utility.yul\":851:854   */\n              dup3\n                /* \"#utility.yul\":847:861   */\n              add\n                /* \"#utility.yul\":832:861   */\n              swap1\n              pop\n                /* \"#utility.yul\":698:867   */\n              swap3\n              swap2\n              pop\n              pop\n              jump\t// out\n                /* \"#utility.yul\":873:1180   */\n            tag_29:\n                /* \"#utility.yul\":941:942   */\n              0x00\n                /* \"#utility.yul\":951:1064   */\n            tag_46:\n                /* \"#utility.yul\":965:971   */\n              dup4\n                /* \"#utility.yul\":962:963   */\n              dup2\n                /* \"#utility.yul\":959:972   */\n              lt\n                /* \"#utility.yul\":951:1064   */\n              iszero\n              tag_48\n              jumpi\n                /* \"#utility.yul\":1050:1051   */\n              dup1\n                /* \"#utility.yul\":1045:1048   */\n              dup3\n                /* \"#utility.yul\":1041:1052   */\n              add\n                /* \"#utility.yul\":1035:1053   */\n              mload\n                /* \"#utility.yul\":1031:1032   */\n              dup2\n                /* \"#utility.yul\":1026:1029   */\n              dup5\n                /* \"#utility.yul\":1022:1033   */\n              add\n                /* \"#utility.yul\":1015:1054   */\n              mstore\n                /* \"#utility.yul\":987:989   */\n              0x20\n                /* \"#utility.yul\":984:985   */\n              dup2\n                /* \"#utility.yul\":980:990   */\n              add\n                /* \"#utility.yul\":975:990   */\n              swap1\n              pop\n                /* \"#utility.yul\":951:1064   */\n              jump(tag_46)\n            tag_48:\n                /* \"#utility.yul\":1082:1088   */\n              dup4\n                /* \"#utility.yul\":1079:1080   */\n              dup2\n                /* \"#utility.yul\":1076:1089   */\n              gt\n                /* \"#utility.yul\":1073:1174   */\n              iszero\n              tag_49\n              jumpi\n                /* \"#utility.yul\":1162:1163   */\n              0x00\n                /* \"#utility.yul\":1153:1159   */\n              dup5\n                /* \"#utility.yul\":1148:1151   */\n              dup5\n                /* \"#utility.yul\":1144:1160   */\n              add\n                /* \"#utility.yul\":1137:1164   */\n              mstore\n                /* \"#utility.yul\":1073:1174   */\n            tag_49:\n                /* \"#utility.yul\":922:1180   */\n              pop\n                /* \"#utility.yul\":873:1180   */\n              pop\n              pop\n              pop\n              jump\t// out\n                /* \"#utility.yul\":1186:1288   */\n            tag_30:\n                /* \"#utility.yul\":1227:1233   */\n              0x00\n                /* \"#utility.yul\":1278:1280   */\n              0x1f\n                /* \"#utility.yul\":1274:1281   */\n              not\n                /* \"#utility.yul\":1269:1271   */\n              0x1f\n                /* \"#utility.yul\":1262:1267   */\n              dup4\n                /* \"#utility.yul\":1258:1272   */\n              add\n                /* \"#utility.yul\":1254:1282   */\n              and\n                /* \"#utility.yul\":1244:1282   */\n              swap1\n              pop\n                /* \"#utility.yul\":1186:1288   */\n              swap2\n              swap1\n              pop\n              jump\t// out\n                /* \"#utility.yul\":1294:1658   */\n            tag_31:\n                /* \"#utility.yul\":1382:1385   */\n              0x00\n                /* \"#utility.yul\":1410:1449   */\n              tag_52\n                /* \"#utility.yul\":1443:1448   */\n              dup3\n                /* \"#utility.yul\":1410:1449   */\n              tag_27\n              jump\t// in\n            tag_52:\n                /* \"#utility.yul\":1465:1536   */\n              tag_53\n                /* \"#utility.yul\":1529:1535   */\n              dup2\n                /* \"#utility.yul\":1524:1527   */\n              dup6\n                /* \"#utility.yul\":1465:1536   */\n              tag_28\n              jump\t// in\n            tag_53:\n                /* \"#utility.yul\":1458:1536   */\n              swap4\n              pop\n                /* \"#utility.yul\":1545:1597   */\n              tag_54\n                /* \"#utility.yul\":1590:1596   */\n              dup2\n                /* \"#utility.yul\":1585:1588   */\n              dup6\n                /* \"#utility.yul\":1578:1582   */\n              0x20\n                /* \"#utility.yul\":1571:1576   */\n              dup7\n                /* \"#utility.yul\":1567:1583   */\n              add\n                /* \"#utility.yul\":1545:1597   */\n              tag_29\n              jump\t// in\n            tag_54:\n                /* \"#utility.yul\":1622:1651   */\n              tag_55\n                /* \"#utility.yul\":1644:1650   */\n              dup2\n                /* \"#utility.yul\":1622:1651   */\n              tag_30\n              jump\t// in\n            tag_55:\n                /* \"#utility.yul\":1617:1620   */\n              dup5\n                /* \"#utility.yul\":1613:1652   */\n              add\n                /* \"#utility.yul\":1606:1652   */\n              swap2\n              pop\n                /* \"#utility.yul\":1386:1658   */\n              pop\n                /* \"#utility.yul\":1294:1658   */\n              swap3\n              swap2\n              pop\n              pop\n              jump\t// out\n                /* \"#utility.yul\":1664:1977   */\n            tag_13:\n                /* \"#utility.yul\":1777:1781   */\n              0x00\n                /* \"#utility.yul\":1815:1817   */\n              0x20\n                /* \"#utility.yul\":1804:1813   */\n              dup3\n                /* \"#utility.yul\":1800:1818   */\n              add\n                /* \"#utility.yul\":1792:1818   */\n              swap1\n              pop\n                /* \"#utility.yul\":1864:1873   */\n              dup2\n                /* \"#utility.yul\":1858:1862   */\n              dup2\n                /* \"#utility.yul\":1854:1874   */\n              sub\n                /* \"#utility.yul\":1850:1851   */\n              0x00\n                /* \"#utility.yul\":1839:1848   */\n              dup4\n                /* \"#utility.yul\":1835:1852   */\n              add\n                /* \"#utility.yul\":1828:1875   */\n              mstore\n                /* \"#utility.yul\":1892:1970   */\n              tag_57\n                /* \"#utility.yul\":1965:1969   */\n              dup2\n                /* \"#utility.yul\":1956:1962   */\n              dup5\n                /* \"#utility.yul\":1892:1970   */\n              tag_31\n              jump\t// in\n            tag_57:\n                /* \"#utility.yul\":1884:1970   */\n              swap1\n              pop\n                /* \"#utility.yul\":1664:1977   */\n              swap3\n              swap2\n              pop\n              pop\n              jump\t// out\n                /* \"#utility.yul\":1983:2060   */\n            tag_32:\n                /* \"#utility.yul\":2020:2027   */\n              0x00\n                /* \"#utility.yul\":2049:2054   */\n              dup2\n                /* \"#utility.yul\":2038:2054   */\n              swap1\n              pop\n                /* \"#utility.yul\":1983:2060   */\n              swap2\n              swap1\n              pop\n              jump\t// out\n                /* \"#utility.yul\":2066:2184   */\n            tag_33:\n                /* \"#utility.yul\":2153:2177   */\n              tag_60\n                /* \"#utility.yul\":2171:2176   */\n              dup2\n                /* \"#utility.yul\":2153:2177   */\n              tag_32\n              jump\t// in\n            tag_60:\n                /* \"#utility.yul\":2148:2151   */\n              dup3\n                /* \"#utility.yul\":2141:2178   */\n              mstore\n                /* \"#utility.yul\":2066:2184   */\n              pop\n              pop\n              jump\t// out\n                /* \"#utility.yul\":2190:2412   */\n            tag_17:\n                /* \"#utility.yul\":2283:2287   */\n              0x00\n                /* \"#utility.yul\":2321:2323   */\n              0x20\n                /* \"#utility.yul\":2310:2319   */\n              dup3\n                /* \"#utility.yul\":2306:2324   */\n              add\n                /* \"#utility.yul\":2298:2324   */\n              swap1\n              pop\n                /* \"#utility.yul\":2334:2405   */\n              tag_62\n                /* \"#utility.yul\":2402:2403   */\n              0x00\n                /* \"#utility.yul\":2391:2400   */\n              dup4\n                /* \"#utility.yul\":2387:2404   */\n              add\n                /* \"#utility.yul\":2378:2384   */\n              dup5\n                /* \"#utility.yul\":2334:2405   */\n              tag_33\n              jump\t// in\n            tag_62:\n                /* \"#utility.yul\":2190:2412   */\n              swap3\n              swap2\n              pop\n              pop\n              jump\t// out\n                /* \"#utility.yul\":2418:2598   */\n            tag_34:\n                /* \"#utility.yul\":2466:2543   */\n              0x4e487b7100000000000000000000000000000000000000000000000000000000\n                /* \"#utility.yul\":2463:2464   */\n              0x00\n                /* \"#utility.yul\":2456:2544   */\n              mstore\n                /* \"#utility.yul\":2563:2567   */\n              0x22\n                /* \"#utility.yul\":2560:2561   */\n              0x04\n                /* \"#utility.yul\":2553:2568   */\n              mstore\n                /* \"#utility.yul\":2587:2591   */\n              0x24\n                /* \"#utility.yul\":2584:2585   */\n              0x00\n                /* \"#utility.yul\":2577:2592   */\n              revert\n                /* \"#utility.yul\":2604:2924   */\n            tag_19:\n                /* \"#utility.yul\":2648:2654   */\n              0x00\n                /* \"#utility.yul\":2685:2686   */\n              0x02\n                /* \"#utility.yul\":2679:2683   */\n              dup3\n                /* \"#utility.yul\":2675:2687   */\n              div\n                /* \"#utility.yul\":2665:2687   */\n              swap1\n              pop\n                /* \"#utility.yul\":2732:2733   */\n              0x01\n                /* \"#utility.yul\":2726:2730   */\n              dup3\n                /* \"#utility.yul\":2722:2734   */\n              and\n                /* \"#utility.yul\":2753:2771   */\n              dup1\n                /* \"#utility.yul\":2743:2824   */\n              tag_65\n              jumpi\n                /* \"#utility.yul\":2809:2813   */\n              0x7f\n                /* \"#utility.yul\":2801:2807   */\n              dup3\n                /* \"#utility.yul\":2797:2814   */\n              and\n                /* \"#utility.yul\":2787:2814   */\n              swap2\n              pop\n                /* \"#utility.yul\":2743:2824   */\n            tag_65:\n                /* \"#utility.yul\":2871:2873   */\n              0x20\n                /* \"#utility.yul\":2863:2869   */\n              dup3\n                /* \"#utility.yul\":2860:2874   */\n              lt\n                /* \"#utility.yul\":2840:2858   */\n              dup2\n                /* \"#utility.yul\":2837:2875   */\n              sub\n                /* \"#utility.yul\":2834:2918   */\n              tag_66\n              jumpi\n                /* \"#utility.yul\":2890:2908   */\n              tag_67\n              tag_34\n              jump\t// in\n            tag_67:\n                /* \"#utility.yul\":2834:2918   */\n            tag_66:\n                /* \"#utility.yul\":2655:2924   */\n              pop\n                /* \"#utility.yul\":2604:2924   */\n              swap2\n              swap1\n              pop\n              jump\t// out\n\n            auxdata: 0xa2646970667358221220442627df4cd2242f5a12922268851c6cb82a6591711833810c4a95a11bfcabd364736f6c634300080f0033\n        }\n    }\n\n    auxdata: 0xa26469706673582212208e8df3d91e164f89dd1c760cc36f3bb9cfc0485c9a16aded838b70062d96a65064736f6c634300080f0033\n}\n",
				"bytecode": {
					"linkReferences": {},
					"object": "608060405234801561001057600080fd5b50610f79806100206000396000f3fe6080604052600436106200002c5760003560e01c8063687440461462000031578063f2785a4e1462000075575b600080fd5b3480156200003e57600080fd5b506200005d6004803603810190620000579190620001dd565b62000095565b6040516200006c91906200029a565b60405180910390f35b6200009360048036038101906200008d919062000419565b620000d5565b005b60008181548110620000a657600080fd5b906000526020600020016000915054906101000a900473ffffffffffffffffffffffffffffffffffffffff1681565b600034838330604051620000e99062000180565b620000f79392919062000548565b6040518091039082f090508015801562000115573d6000803e3d6000fd5b5090506000819080600181540180825580915050600190039060005260206000200160009091909190916101000a81548173ffffffffffffffffffffffffffffffffffffffff021916908373ffffffffffffffffffffffffffffffffffffffff160217905550505050565b6109b7806200058d83390190565b6000604051905090565b600080fd5b600080fd5b6000819050919050565b620001b781620001a2565b8114620001c357600080fd5b50565b600081359050620001d781620001ac565b92915050565b600060208284031215620001f657620001f562000198565b5b60006200020684828501620001c6565b91505092915050565b600073ffffffffffffffffffffffffffffffffffffffff82169050919050565b6000819050919050565b60006200025a620002546200024e846200020f565b6200022f565b6200020f565b9050919050565b60006200026e8262000239565b9050919050565b6000620002828262000261565b9050919050565b620002948162000275565b82525050565b6000602082019050620002b1600083018462000289565b92915050565b600080fd5b600080fd5b6000601f19601f8301169050919050565b7f4e487b7100000000000000000000000000000000000000000000000000000000600052604160045260246000fd5b6200030c82620002c1565b810181811067ffffffffffffffff821117156200032e576200032d620002d2565b5b80604052505050565b6000620003436200018e565b905062000351828262000301565b919050565b600067ffffffffffffffff821115620003745762000373620002d2565b5b6200037f82620002c1565b9050602081019050919050565b82818337600083830152505050565b6000620003b2620003ac8462000356565b62000337565b905082815260208101848484011115620003d157620003d0620002bc565b5b620003de8482856200038c565b509392505050565b600082601f830112620003fe57620003fd620002b7565b5b8135620004108482602086016200039b565b91505092915050565b6000806040838503121562000433576200043262000198565b5b60006200044385828601620001c6565b925050602083013567ffffffffffffffff8111156200046757620004666200019d565b5b6200047585828601620003e6565b9150509250929050565b6200048a81620001a2565b82525050565b600081519050919050565b600082825260208201905092915050565b60005b83811015620004cc578082015181840152602081019050620004af565b83811115620004dc576000848401525b50505050565b6000620004ef8262000490565b620004fb81856200049b565b93506200050d818560208601620004ac565b6200051881620002c1565b840191505092915050565b600062000530826200020f565b9050919050565b620005428162000523565b82525050565b60006060820190506200055f60008301866200047f565b8181036020830152620005738185620004e2565b905062000584604083018462000537565b94935050505056fe6080604052604051620009b7380380620009b78339818101604052810190620000299190620002c9565b82600181905550816000908162000041919062000585565b5080600260006101000a81548173ffffffffffffffffffffffffffffffffffffffff021916908373ffffffffffffffffffffffffffffffffffffffff1602179055505050506200066c565b6000604051905090565b600080fd5b600080fd5b6000819050919050565b620000b581620000a0565b8114620000c157600080fd5b50565b600081519050620000d581620000aa565b92915050565b600080fd5b600080fd5b6000601f19601f8301169050919050565b7f4e487b7100000000000000000000000000000000000000000000000000000000600052604160045260246000fd5b6200013082620000e5565b810181811067ffffffffffffffff82111715620001525762000151620000f6565b5b80604052505050565b6000620001676200008c565b905062000175828262000125565b919050565b600067ffffffffffffffff821115620001985762000197620000f6565b5b620001a382620000e5565b9050602081019050919050565b60005b83811015620001d0578082015181840152602081019050620001b3565b83811115620001e0576000848401525b50505050565b6000620001fd620001f7846200017a565b6200015b565b9050828152602081018484840111156200021c576200021b620000e0565b5b62000229848285620001b0565b509392505050565b600082601f830112620002495762000248620000db565b5b81516200025b848260208601620001e6565b91505092915050565b600073ffffffffffffffffffffffffffffffffffffffff82169050919050565b6000620002918262000264565b9050919050565b620002a38162000284565b8114620002af57600080fd5b50565b600081519050620002c38162000298565b92915050565b600080600060608486031215620002e557620002e462000096565b5b6000620002f586828701620000c4565b935050602084015167ffffffffffffffff8111156200031957620003186200009b565b5b620003278682870162000231565b92505060406200033a86828701620002b2565b9150509250925092565b600081519050919050565b7f4e487b7100000000000000000000000000000000000000000000000000000000600052602260045260246000fd5b600060028204905060018216806200039757607f821691505b602082108103620003ad57620003ac6200034f565b5b50919050565b60008190508160005260206000209050919050565b60006020601f8301049050919050565b600082821b905092915050565b600060088302620004177fffffffffffffffffffffffffffffffffffffffffffffffffffffffffffffffff82620003d8565b620004238683620003d8565b95508019841693508086168417925050509392505050565b6000819050919050565b600062000466620004606200045a84620000a0565b6200043b565b620000a0565b9050919050565b6000819050919050565b620004828362000445565b6200049a62000491826200046d565b848454620003e5565b825550505050565b600090565b620004b1620004a2565b620004be81848462000477565b505050565b5b81811015620004e657620004da600082620004a7565b600181019050620004c4565b5050565b601f8211156200053557620004ff81620003b3565b6200050a84620003c8565b810160208510156200051a578190505b620005326200052985620003c8565b830182620004c3565b50505b505050565b600082821c905092915050565b60006200055a600019846008026200053a565b1980831691505092915050565b600062000575838362000547565b9150826002028217905092915050565b620005908262000344565b67ffffffffffffffff811115620005ac57620005ab620000f6565b5b620005b882546200037e565b620005c5828285620004ea565b600060209050601f831160018114620005fd5760008415620005e8578287015190505b620005f4858262000567565b86555062000664565b601f1984166200060d86620003b3565b60005b82811015620006375784890151825560018201915060208501945060208101905062000610565b8683101562000657578489015162000653601f89168262000547565b8355505b6001600288020188555050505b505050505050565b61033b806200067c6000396000f3fe608060405234801561001057600080fd5b50600436106100415760003560e01c806308551a5314610046578063913da9d81461006457806396bdecb614610082575b600080fd5b61004e6100a0565b60405161005b919061019b565b60405180910390f35b61006c6100c6565b604051610079919061024f565b60405180910390f35b61008a610154565b604051610097919061028a565b60405180910390f35b600260009054906101000a900473ffffffffffffffffffffffffffffffffffffffff1681565b600080546100d3906102d4565b80601f01602080910402602001604051908101604052809291908181526020018280546100ff906102d4565b801561014c5780601f106101215761010080835404028352916020019161014c565b820191906000526020600020905b81548152906001019060200180831161012f57829003601f168201915b505050505081565b60015481565b600073ffffffffffffffffffffffffffffffffffffffff82169050919050565b60006101858261015a565b9050919050565b6101958161017a565b82525050565b60006020820190506101b0600083018461018c565b92915050565b600081519050919050565b600082825260208201905092915050565b60005b838110156101f05780820151818401526020810190506101d5565b838111156101ff576000848401525b50505050565b6000601f19601f8301169050919050565b6000610221826101b6565b61022b81856101c1565b935061023b8185602086016101d2565b61024481610205565b840191505092915050565b600060208201905081810360008301526102698184610216565b905092915050565b6000819050919050565b61028481610271565b82525050565b600060208201905061029f600083018461027b565b92915050565b7f4e487b7100000000000000000000000000000000000000000000000000000000600052602260045260246000fd5b600060028204905060018216806102ec57607f821691505b6020821081036102ff576102fe6102a5565b5b5091905056fea2646970667358221220442627df4cd2242f5a12922268851c6cb82a6591711833810c4a95a11bfcabd364736f6c634300080f0033a26469706673582212208e8df3d91e164f89dd1c760cc36f3bb9cfc0485c9a16aded838b70062d96a65064736f6c634300080f0033",
					"opcodes": "PUSH1 0x80 PUSH1 0x40 MSTORE CALLVALUE DUP1 ISZERO PUSH2 0x10 JUMPI PUSH1 0x0 DUP1 REVERT JUMPDEST POP PUSH2 0xF79 DUP1 PUSH2 0x20 PUSH1 0x0 CODECOPY PUSH1 0x0 RETURN INVALID PUSH1 0x80 PUSH1 0x40 MSTORE PUSH1 0x4 CALLDATASIZE LT PUSH3 0x2C JUMPI PUSH1 0x0 CALLDATALOAD PUSH1 0xE0 SHR DUP1 PUSH4 0x68744046 EQ PUSH3 0x31 JUMPI DUP1 PUSH4 0xF2785A4E EQ PUSH3 0x75 JUMPI JUMPDEST PUSH1 0x0 DUP1 REVERT JUMPDEST CALLVALUE DUP1 ISZERO PUSH3 0x3E JUMPI PUSH1 0x0 DUP1 REVERT JUMPDEST POP PUSH3 0x5D PUSH1 0x4 DUP1 CALLDATASIZE SUB DUP2 ADD SWAP1 PUSH3 0x57 SWAP2 SWAP1 PUSH3 0x1DD JUMP JUMPDEST PUSH3 0x95 JUMP JUMPDEST PUSH1 0x40 MLOAD PUSH3 0x6C SWAP2 SWAP1 PUSH3 0x29A JUMP JUMPDEST PUSH1 0x40 MLOAD DUP1 SWAP2 SUB SWAP1 RETURN JUMPDEST PUSH3 0x93 PUSH1 0x4 DUP1 CALLDATASIZE SUB DUP2 ADD SWAP1 PUSH3 0x8D SWAP2 SWAP1 PUSH3 0x419 JUMP JUMPDEST PUSH3 0xD5 JUMP JUMPDEST STOP JUMPDEST PUSH1 0x0 DUP2 DUP2 SLOAD DUP2 LT PUSH3 0xA6 JUMPI PUSH1 0x0 DUP1 REVERT JUMPDEST SWAP1 PUSH1 0x0 MSTORE PUSH1 0x20 PUSH1 0x0 KECCAK256 ADD PUSH1 0x0 SWAP2 POP SLOAD SWAP1 PUSH2 0x100 EXP SWAP1 DIV PUSH20 0xFFFFFFFFFFFFFFFFFFFFFFFFFFFFFFFFFFFFFFFF AND DUP2 JUMP JUMPDEST PUSH1 0x0 CALLVALUE DUP4 DUP4 ADDRESS PUSH1 0x40 MLOAD PUSH3 0xE9 SWAP1 PUSH3 0x180 JUMP JUMPDEST PUSH3 0xF7 SWAP4 SWAP3 SWAP2 SWAP1 PUSH3 0x548 JUMP JUMPDEST PUSH1 0x40 MLOAD DUP1 SWAP2 SUB SWAP1 DUP3 CREATE SWAP1 POP DUP1 ISZERO DUP1 ISZERO PUSH3 0x115 JUMPI RETURNDATASIZE PUSH1 0x0 DUP1 RETURNDATACOPY RETURNDATASIZE PUSH1 0x0 REVERT JUMPDEST POP SWAP1 POP PUSH1 0x0 DUP2 SWAP1 DUP1 PUSH1 0x1 DUP2 SLOAD ADD DUP1 DUP3 SSTORE DUP1 SWAP2 POP POP PUSH1 0x1 SWAP1 SUB SWAP1 PUSH1 0x0 MSTORE PUSH1 0x20 PUSH1 0x0 KECCAK256 ADD PUSH1 0x0 SWAP1 SWAP2 SWAP1 SWAP2 SWAP1 SWAP2 PUSH2 0x100 EXP DUP2 SLOAD DUP2 PUSH20 0xFFFFFFFFFFFFFFFFFFFFFFFFFFFFFFFFFFFFFFFF MUL NOT AND SWAP1 DUP4 PUSH20 0xFFFFFFFFFFFFFFFFFFFFFFFFFFFFFFFFFFFFFFFF AND MUL OR SWAP1 SSTORE POP POP POP POP JUMP JUMPDEST PUSH2 0x9B7 DUP1 PUSH3 0x58D DUP4 CODECOPY ADD SWAP1 JUMP JUMPDEST PUSH1 0x0 PUSH1 0x40 MLOAD SWAP1 POP SWAP1 JUMP JUMPDEST PUSH1 0x0 DUP1 REVERT JUMPDEST PUSH1 0x0 DUP1 REVERT JUMPDEST PUSH1 0x0 DUP2 SWAP1 POP SWAP2 SWAP1 POP JUMP JUMPDEST PUSH3 0x1B7 DUP2 PUSH3 0x1A2 JUMP JUMPDEST DUP2 EQ PUSH3 0x1C3 JUMPI PUSH1 0x0 DUP1 REVERT JUMPDEST POP JUMP JUMPDEST PUSH1 0x0 DUP2 CALLDATALOAD SWAP1 POP PUSH3 0x1D7 DUP2 PUSH3 0x1AC JUMP JUMPDEST SWAP3 SWAP2 POP POP JUMP JUMPDEST PUSH1 0x0 PUSH1 0x20 DUP3 DUP5 SUB SLT ISZERO PUSH3 0x1F6 JUMPI PUSH3 0x1F5 PUSH3 0x198 JUMP JUMPDEST JUMPDEST PUSH1 0x0 PUSH3 0x206 DUP5 DUP3 DUP6 ADD PUSH3 0x1C6 JUMP JUMPDEST SWAP2 POP POP SWAP3 SWAP2 POP POP JUMP JUMPDEST PUSH1 0x0 PUSH20 0xFFFFFFFFFFFFFFFFFFFFFFFFFFFFFFFFFFFFFFFF DUP3 AND SWAP1 POP SWAP2 SWAP1 POP JUMP JUMPDEST PUSH1 0x0 DUP2 SWAP1 POP SWAP2 SWAP1 POP JUMP JUMPDEST PUSH1 0x0 PUSH3 0x25A PUSH3 0x254 PUSH3 0x24E DUP5 PUSH3 0x20F JUMP JUMPDEST PUSH3 0x22F JUMP JUMPDEST PUSH3 0x20F JUMP JUMPDEST SWAP1 POP SWAP2 SWAP1 POP JUMP JUMPDEST PUSH1 0x0 PUSH3 0x26E DUP3 PUSH3 0x239 JUMP JUMPDEST SWAP1 POP SWAP2 SWAP1 POP JUMP JUMPDEST PUSH1 0x0 PUSH3 0x282 DUP3 PUSH3 0x261 JUMP JUMPDEST SWAP1 POP SWAP2 SWAP1 POP JUMP JUMPDEST PUSH3 0x294 DUP2 PUSH3 0x275 JUMP JUMPDEST DUP3 MSTORE POP POP JUMP JUMPDEST PUSH1 0x0 PUSH1 0x20 DUP3 ADD SWAP1 POP PUSH3 0x2B1 PUSH1 0x0 DUP4 ADD DUP5 PUSH3 0x289 JUMP JUMPDEST SWAP3 SWAP2 POP POP JUMP JUMPDEST PUSH1 0x0 DUP1 REVERT JUMPDEST PUSH1 0x0 DUP1 REVERT JUMPDEST PUSH1 0x0 PUSH1 0x1F NOT PUSH1 0x1F DUP4 ADD AND SWAP1 POP SWAP2 SWAP1 POP JUMP JUMPDEST PUSH32 0x4E487B7100000000000000000000000000000000000000000000000000000000 PUSH1 0x0 MSTORE PUSH1 0x41 PUSH1 0x4 MSTORE PUSH1 0x24 PUSH1 0x0 REVERT JUMPDEST PUSH3 0x30C DUP3 PUSH3 0x2C1 JUMP JUMPDEST DUP2 ADD DUP2 DUP2 LT PUSH8 0xFFFFFFFFFFFFFFFF DUP3 GT OR ISZERO PUSH3 0x32E JUMPI PUSH3 0x32D PUSH3 0x2D2 JUMP JUMPDEST JUMPDEST DUP1 PUSH1 0x40 MSTORE POP POP POP JUMP JUMPDEST PUSH1 0x0 PUSH3 0x343 PUSH3 0x18E JUMP JUMPDEST SWAP1 POP PUSH3 0x351 DUP3 DUP3 PUSH3 0x301 JUMP JUMPDEST SWAP2 SWAP1 POP JUMP JUMPDEST PUSH1 0x0 PUSH8 0xFFFFFFFFFFFFFFFF DUP3 GT ISZERO PUSH3 0x374 JUMPI PUSH3 0x373 PUSH3 0x2D2 JUMP JUMPDEST JUMPDEST PUSH3 0x37F DUP3 PUSH3 0x2C1 JUMP JUMPDEST SWAP1 POP PUSH1 0x20 DUP2 ADD SWAP1 POP SWAP2 SWAP1 POP JUMP JUMPDEST DUP3 DUP2 DUP4 CALLDATACOPY PUSH1 0x0 DUP4 DUP4 ADD MSTORE POP POP POP JUMP JUMPDEST PUSH1 0x0 PUSH3 0x3B2 PUSH3 0x3AC DUP5 PUSH3 0x356 JUMP JUMPDEST PUSH3 0x337 JUMP JUMPDEST SWAP1 POP DUP3 DUP2 MSTORE PUSH1 0x20 DUP2 ADD DUP5 DUP5 DUP5 ADD GT ISZERO PUSH3 0x3D1 JUMPI PUSH3 0x3D0 PUSH3 0x2BC JUMP JUMPDEST JUMPDEST PUSH3 0x3DE DUP5 DUP3 DUP6 PUSH3 0x38C JUMP JUMPDEST POP SWAP4 SWAP3 POP POP POP JUMP JUMPDEST PUSH1 0x0 DUP3 PUSH1 0x1F DUP4 ADD SLT PUSH3 0x3FE JUMPI PUSH3 0x3FD PUSH3 0x2B7 JUMP JUMPDEST JUMPDEST DUP2 CALLDATALOAD PUSH3 0x410 DUP5 DUP3 PUSH1 0x20 DUP7 ADD PUSH3 0x39B JUMP JUMPDEST SWAP2 POP POP SWAP3 SWAP2 POP POP JUMP JUMPDEST PUSH1 0x0 DUP1 PUSH1 0x40 DUP4 DUP6 SUB SLT ISZERO PUSH3 0x433 JUMPI PUSH3 0x432 PUSH3 0x198 JUMP JUMPDEST JUMPDEST PUSH1 0x0 PUSH3 0x443 DUP6 DUP3 DUP7 ADD PUSH3 0x1C6 JUMP JUMPDEST SWAP3 POP POP PUSH1 0x20 DUP4 ADD CALLDATALOAD PUSH8 0xFFFFFFFFFFFFFFFF DUP2 GT ISZERO PUSH3 0x467 JUMPI PUSH3 0x466 PUSH3 0x19D JUMP JUMPDEST JUMPDEST PUSH3 0x475 DUP6 DUP3 DUP7 ADD PUSH3 0x3E6 JUMP JUMPDEST SWAP2 POP POP SWAP3 POP SWAP3 SWAP1 POP JUMP JUMPDEST PUSH3 0x48A DUP2 PUSH3 0x1A2 JUMP JUMPDEST DUP3 MSTORE POP POP JUMP JUMPDEST PUSH1 0x0 DUP2 MLOAD SWAP1 POP SWAP2 SWAP1 POP JUMP JUMPDEST PUSH1 0x0 DUP3 DUP3 MSTORE PUSH1 0x20 DUP3 ADD SWAP1 POP SWAP3 SWAP2 POP POP JUMP JUMPDEST PUSH1 0x0 JUMPDEST DUP4 DUP2 LT ISZERO PUSH3 0x4CC JUMPI DUP1 DUP3 ADD MLOAD DUP2 DUP5 ADD MSTORE PUSH1 0x20 DUP2 ADD SWAP1 POP PUSH3 0x4AF JUMP JUMPDEST DUP4 DUP2 GT ISZERO PUSH3 0x4DC JUMPI PUSH1 0x0 DUP5 DUP5 ADD MSTORE JUMPDEST POP POP POP POP JUMP JUMPDEST PUSH1 0x0 PUSH3 0x4EF DUP3 PUSH3 0x490 JUMP JUMPDEST PUSH3 0x4FB DUP2 DUP6 PUSH3 0x49B JUMP JUMPDEST SWAP4 POP PUSH3 0x50D DUP2 DUP6 PUSH1 0x20 DUP7 ADD PUSH3 0x4AC JUMP JUMPDEST PUSH3 0x518 DUP2 PUSH3 0x2C1 JUMP JUMPDEST DUP5 ADD SWAP2 POP POP SWAP3 SWAP2 POP POP JUMP JUMPDEST PUSH1 0x0 PUSH3 0x530 DUP3 PUSH3 0x20F JUMP JUMPDEST SWAP1 POP SWAP2 SWAP1 POP JUMP JUMPDEST PUSH3 0x542 DUP2 PUSH3 0x523 JUMP JUMPDEST DUP3 MSTORE POP POP JUMP JUMPDEST PUSH1 0x0 PUSH1 0x60 DUP3 ADD SWAP1 POP PUSH3 0x55F PUSH1 0x0 DUP4 ADD DUP7 PUSH3 0x47F JUMP JUMPDEST DUP2 DUP2 SUB PUSH1 0x20 DUP4 ADD MSTORE PUSH3 0x573 DUP2 DUP6 PUSH3 0x4E2 JUMP JUMPDEST SWAP1 POP PUSH3 0x584 PUSH1 0x40 DUP4 ADD DUP5 PUSH3 0x537 JUMP JUMPDEST SWAP5 SWAP4 POP POP POP POP JUMP INVALID PUSH1 0x80 PUSH1 0x40 MSTORE PUSH1 0x40 MLOAD PUSH3 0x9B7 CODESIZE SUB DUP1 PUSH3 0x9B7 DUP4 CODECOPY DUP2 DUP2 ADD PUSH1 0x40 MSTORE DUP2 ADD SWAP1 PUSH3 0x29 SWAP2 SWAP1 PUSH3 0x2C9 JUMP JUMPDEST DUP3 PUSH1 0x1 DUP2 SWAP1 SSTORE POP DUP2 PUSH1 0x0 SWAP1 DUP2 PUSH3 0x41 SWAP2 SWAP1 PUSH3 0x585 JUMP JUMPDEST POP DUP1 PUSH1 0x2 PUSH1 0x0 PUSH2 0x100 EXP DUP2 SLOAD DUP2 PUSH20 0xFFFFFFFFFFFFFFFFFFFFFFFFFFFFFFFFFFFFFFFF MUL NOT AND SWAP1 DUP4 PUSH20 0xFFFFFFFFFFFFFFFFFFFFFFFFFFFFFFFFFFFFFFFF AND MUL OR SWAP1 SSTORE POP POP POP POP PUSH3 0x66C JUMP JUMPDEST PUSH1 0x0 PUSH1 0x40 MLOAD SWAP1 POP SWAP1 JUMP JUMPDEST PUSH1 0x0 DUP1 REVERT JUMPDEST PUSH1 0x0 DUP1 REVERT JUMPDEST PUSH1 0x0 DUP2 SWAP1 POP SWAP2 SWAP1 POP JUMP JUMPDEST PUSH3 0xB5 DUP2 PUSH3 0xA0 JUMP JUMPDEST DUP2 EQ PUSH3 0xC1 JUMPI PUSH1 0x0 DUP1 REVERT JUMPDEST POP JUMP JUMPDEST PUSH1 0x0 DUP2 MLOAD SWAP1 POP PUSH3 0xD5 DUP2 PUSH3 0xAA JUMP JUMPDEST SWAP3 SWAP2 POP POP JUMP JUMPDEST PUSH1 0x0 DUP1 REVERT JUMPDEST PUSH1 0x0 DUP1 REVERT JUMPDEST PUSH1 0x0 PUSH1 0x1F NOT PUSH1 0x1F DUP4 ADD AND SWAP1 POP SWAP2 SWAP1 POP JUMP JUMPDEST PUSH32 0x4E487B7100000000000000000000000000000000000000000000000000000000 PUSH1 0x0 MSTORE PUSH1 0x41 PUSH1 0x4 MSTORE PUSH1 0x24 PUSH1 0x0 REVERT JUMPDEST PUSH3 0x130 DUP3 PUSH3 0xE5 JUMP JUMPDEST DUP2 ADD DUP2 DUP2 LT PUSH8 0xFFFFFFFFFFFFFFFF DUP3 GT OR ISZERO PUSH3 0x152 JUMPI PUSH3 0x151 PUSH3 0xF6 JUMP JUMPDEST JUMPDEST DUP1 PUSH1 0x40 MSTORE POP POP POP JUMP JUMPDEST PUSH1 0x0 PUSH3 0x167 PUSH3 0x8C JUMP JUMPDEST SWAP1 POP PUSH3 0x175 DUP3 DUP3 PUSH3 0x125 JUMP JUMPDEST SWAP2 SWAP1 POP JUMP JUMPDEST PUSH1 0x0 PUSH8 0xFFFFFFFFFFFFFFFF DUP3 GT ISZERO PUSH3 0x198 JUMPI PUSH3 0x197 PUSH3 0xF6 JUMP JUMPDEST JUMPDEST PUSH3 0x1A3 DUP3 PUSH3 0xE5 JUMP JUMPDEST SWAP1 POP PUSH1 0x20 DUP2 ADD SWAP1 POP SWAP2 SWAP1 POP JUMP JUMPDEST PUSH1 0x0 JUMPDEST DUP4 DUP2 LT ISZERO PUSH3 0x1D0 JUMPI DUP1 DUP3 ADD MLOAD DUP2 DUP5 ADD MSTORE PUSH1 0x20 DUP2 ADD SWAP1 POP PUSH3 0x1B3 JUMP JUMPDEST DUP4 DUP2 GT ISZERO PUSH3 0x1E0 JUMPI PUSH1 0x0 DUP5 DUP5 ADD MSTORE JUMPDEST POP POP POP POP JUMP JUMPDEST PUSH1 0x0 PUSH3 0x1FD PUSH3 0x1F7 DUP5 PUSH3 0x17A JUMP JUMPDEST PUSH3 0x15B JUMP JUMPDEST SWAP1 POP DUP3 DUP2 MSTORE PUSH1 0x20 DUP2 ADD DUP5 DUP5 DUP5 ADD GT ISZERO PUSH3 0x21C JUMPI PUSH3 0x21B PUSH3 0xE0 JUMP JUMPDEST JUMPDEST PUSH3 0x229 DUP5 DUP3 DUP6 PUSH3 0x1B0 JUMP JUMPDEST POP SWAP4 SWAP3 POP POP POP JUMP JUMPDEST PUSH1 0x0 DUP3 PUSH1 0x1F DUP4 ADD SLT PUSH3 0x249 JUMPI PUSH3 0x248 PUSH3 0xDB JUMP JUMPDEST JUMPDEST DUP2 MLOAD PUSH3 0x25B DUP5 DUP3 PUSH1 0x20 DUP7 ADD PUSH3 0x1E6 JUMP JUMPDEST SWAP2 POP POP SWAP3 SWAP2 POP POP JUMP JUMPDEST PUSH1 0x0 PUSH20 0xFFFFFFFFFFFFFFFFFFFFFFFFFFFFFFFFFFFFFFFF DUP3 AND SWAP1 POP SWAP2 SWAP1 POP JUMP JUMPDEST PUSH1 0x0 PUSH3 0x291 DUP3 PUSH3 0x264 JUMP JUMPDEST SWAP1 POP SWAP2 SWAP1 POP JUMP JUMPDEST PUSH3 0x2A3 DUP2 PUSH3 0x284 JUMP JUMPDEST DUP2 EQ PUSH3 0x2AF JUMPI PUSH1 0x0 DUP1 REVERT JUMPDEST POP JUMP JUMPDEST PUSH1 0x0 DUP2 MLOAD SWAP1 POP PUSH3 0x2C3 DUP2 PUSH3 0x298 JUMP JUMPDEST SWAP3 SWAP2 POP POP JUMP JUMPDEST PUSH1 0x0 DUP1 PUSH1 0x0 PUSH1 0x60 DUP5 DUP7 SUB SLT ISZERO PUSH3 0x2E5 JUMPI PUSH3 0x2E4 PUSH3 0x96 JUMP JUMPDEST JUMPDEST PUSH1 0x0 PUSH3 0x2F5 DUP7 DUP3 DUP8 ADD PUSH3 0xC4 JUMP JUMPDEST SWAP4 POP POP PUSH1 0x20 DUP5 ADD MLOAD PUSH8 0xFFFFFFFFFFFFFFFF DUP2 GT ISZERO PUSH3 0x319 JUMPI PUSH3 0x318 PUSH3 0x9B JUMP JUMPDEST JUMPDEST PUSH3 0x327 DUP7 DUP3 DUP8 ADD PUSH3 0x231 JUMP JUMPDEST SWAP3 POP POP PUSH1 0x40 PUSH3 0x33A DUP7 DUP3 DUP8 ADD PUSH3 0x2B2 JUMP JUMPDEST SWAP2 POP POP SWAP3 POP SWAP3 POP SWAP3 JUMP JUMPDEST PUSH1 0x0 DUP2 MLOAD SWAP1 POP SWAP2 SWAP1 POP JUMP JUMPDEST PUSH32 0x4E487B7100000000000000000000000000000000000000000000000000000000 PUSH1 0x0 MSTORE PUSH1 0x22 PUSH1 0x4 MSTORE PUSH1 0x24 PUSH1 0x0 REVERT JUMPDEST PUSH1 0x0 PUSH1 0x2 DUP3 DIV SWAP1 POP PUSH1 0x1 DUP3 AND DUP1 PUSH3 0x397 JUMPI PUSH1 0x7F DUP3 AND SWAP2 POP JUMPDEST PUSH1 0x20 DUP3 LT DUP2 SUB PUSH3 0x3AD JUMPI PUSH3 0x3AC PUSH3 0x34F JUMP JUMPDEST JUMPDEST POP SWAP2 SWAP1 POP JUMP JUMPDEST PUSH1 0x0 DUP2 SWAP1 POP DUP2 PUSH1 0x0 MSTORE PUSH1 0x20 PUSH1 0x0 KECCAK256 SWAP1 POP SWAP2 SWAP1 POP JUMP JUMPDEST PUSH1 0x0 PUSH1 0x20 PUSH1 0x1F DUP4 ADD DIV SWAP1 POP SWAP2 SWAP1 POP JUMP JUMPDEST PUSH1 0x0 DUP3 DUP3 SHL SWAP1 POP SWAP3 SWAP2 POP POP JUMP JUMPDEST PUSH1 0x0 PUSH1 0x8 DUP4 MUL PUSH3 0x417 PUSH32 0xFFFFFFFFFFFFFFFFFFFFFFFFFFFFFFFFFFFFFFFFFFFFFFFFFFFFFFFFFFFFFFFF DUP3 PUSH3 0x3D8 JUMP JUMPDEST PUSH3 0x423 DUP7 DUP4 PUSH3 0x3D8 JUMP JUMPDEST SWAP6 POP DUP1 NOT DUP5 AND SWAP4 POP DUP1 DUP7 AND DUP5 OR SWAP3 POP POP POP SWAP4 SWAP3 POP POP POP JUMP JUMPDEST PUSH1 0x0 DUP2 SWAP1 POP SWAP2 SWAP1 POP JUMP JUMPDEST PUSH1 0x0 PUSH3 0x466 PUSH3 0x460 PUSH3 0x45A DUP5 PUSH3 0xA0 JUMP JUMPDEST PUSH3 0x43B JUMP JUMPDEST PUSH3 0xA0 JUMP JUMPDEST SWAP1 POP SWAP2 SWAP1 POP JUMP JUMPDEST PUSH1 0x0 DUP2 SWAP1 POP SWAP2 SWAP1 POP JUMP JUMPDEST PUSH3 0x482 DUP4 PUSH3 0x445 JUMP JUMPDEST PUSH3 0x49A PUSH3 0x491 DUP3 PUSH3 0x46D JUMP JUMPDEST DUP5 DUP5 SLOAD PUSH3 0x3E5 JUMP JUMPDEST DUP3 SSTORE POP POP POP POP JUMP JUMPDEST PUSH1 0x0 SWAP1 JUMP JUMPDEST PUSH3 0x4B1 PUSH3 0x4A2 JUMP JUMPDEST PUSH3 0x4BE DUP2 DUP5 DUP5 PUSH3 0x477 JUMP JUMPDEST POP POP POP JUMP JUMPDEST JUMPDEST DUP2 DUP2 LT ISZERO PUSH3 0x4E6 JUMPI PUSH3 0x4DA PUSH1 0x0 DUP3 PUSH3 0x4A7 JUMP JUMPDEST PUSH1 0x1 DUP2 ADD SWAP1 POP PUSH3 0x4C4 JUMP JUMPDEST POP POP JUMP JUMPDEST PUSH1 0x1F DUP3 GT ISZERO PUSH3 0x535 JUMPI PUSH3 0x4FF DUP2 PUSH3 0x3B3 JUMP JUMPDEST PUSH3 0x50A DUP5 PUSH3 0x3C8 JUMP JUMPDEST DUP2 ADD PUSH1 0x20 DUP6 LT ISZERO PUSH3 0x51A JUMPI DUP2 SWAP1 POP JUMPDEST PUSH3 0x532 PUSH3 0x529 DUP6 PUSH3 0x3C8 JUMP JUMPDEST DUP4 ADD DUP3 PUSH3 0x4C3 JUMP JUMPDEST POP POP JUMPDEST POP POP POP JUMP JUMPDEST PUSH1 0x0 DUP3 DUP3 SHR SWAP1 POP SWAP3 SWAP2 POP POP JUMP JUMPDEST PUSH1 0x0 PUSH3 0x55A PUSH1 0x0 NOT DUP5 PUSH1 0x8 MUL PUSH3 0x53A JUMP JUMPDEST NOT DUP1 DUP4 AND SWAP2 POP POP SWAP3 SWAP2 POP POP JUMP JUMPDEST PUSH1 0x0 PUSH3 0x575 DUP4 DUP4 PUSH3 0x547 JUMP JUMPDEST SWAP2 POP DUP3 PUSH1 0x2 MUL DUP3 OR SWAP1 POP SWAP3 SWAP2 POP POP JUMP JUMPDEST PUSH3 0x590 DUP3 PUSH3 0x344 JUMP JUMPDEST PUSH8 0xFFFFFFFFFFFFFFFF DUP2 GT ISZERO PUSH3 0x5AC JUMPI PUSH3 0x5AB PUSH3 0xF6 JUMP JUMPDEST JUMPDEST PUSH3 0x5B8 DUP3 SLOAD PUSH3 0x37E JUMP JUMPDEST PUSH3 0x5C5 DUP3 DUP3 DUP6 PUSH3 0x4EA JUMP JUMPDEST PUSH1 0x0 PUSH1 0x20 SWAP1 POP PUSH1 0x1F DUP4 GT PUSH1 0x1 DUP2 EQ PUSH3 0x5FD JUMPI PUSH1 0x0 DUP5 ISZERO PUSH3 0x5E8 JUMPI DUP3 DUP8 ADD MLOAD SWAP1 POP JUMPDEST PUSH3 0x5F4 DUP6 DUP3 PUSH3 0x567 JUMP JUMPDEST DUP7 SSTORE POP PUSH3 0x664 JUMP JUMPDEST PUSH1 0x1F NOT DUP5 AND PUSH3 0x60D DUP7 PUSH3 0x3B3 JUMP JUMPDEST PUSH1 0x0 JUMPDEST DUP3 DUP2 LT ISZERO PUSH3 0x637 JUMPI DUP5 DUP10 ADD MLOAD DUP3 SSTORE PUSH1 0x1 DUP3 ADD SWAP2 POP PUSH1 0x20 DUP6 ADD SWAP5 POP PUSH1 0x20 DUP2 ADD SWAP1 POP PUSH3 0x610 JUMP JUMPDEST DUP7 DUP4 LT ISZERO PUSH3 0x657 JUMPI DUP5 DUP10 ADD MLOAD PUSH3 0x653 PUSH1 0x1F DUP10 AND DUP3 PUSH3 0x547 JUMP JUMPDEST DUP4 SSTORE POP JUMPDEST PUSH1 0x1 PUSH1 0x2 DUP9 MUL ADD DUP9 SSTORE POP POP POP JUMPDEST POP POP POP POP POP POP JUMP JUMPDEST PUSH2 0x33B DUP1 PUSH3 0x67C PUSH1 0x0 CODECOPY PUSH1 0x0 RETURN INVALID PUSH1 0x80 PUSH1 0x40 MSTORE CALLVALUE DUP1 ISZERO PUSH2 0x10 JUMPI PUSH1 0x0 DUP1 REVERT JUMPDEST POP PUSH1 0x4 CALLDATASIZE LT PUSH2 0x41 JUMPI PUSH1 0x0 CALLDATALOAD PUSH1 0xE0 SHR DUP1 PUSH4 0x8551A53 EQ PUSH2 0x46 JUMPI DUP1 PUSH4 0x913DA9D8 EQ PUSH2 0x64 JUMPI DUP1 PUSH4 0x96BDECB6 EQ PUSH2 0x82 JUMPI JUMPDEST PUSH1 0x0 DUP1 REVERT JUMPDEST PUSH2 0x4E PUSH2 0xA0 JUMP JUMPDEST PUSH1 0x40 MLOAD PUSH2 0x5B SWAP2 SWAP1 PUSH2 0x19B JUMP JUMPDEST PUSH1 0x40 MLOAD DUP1 SWAP2 SUB SWAP1 RETURN JUMPDEST PUSH2 0x6C PUSH2 0xC6 JUMP JUMPDEST PUSH1 0x40 MLOAD PUSH2 0x79 SWAP2 SWAP1 PUSH2 0x24F JUMP JUMPDEST PUSH1 0x40 MLOAD DUP1 SWAP2 SUB SWAP1 RETURN JUMPDEST PUSH2 0x8A PUSH2 0x154 JUMP JUMPDEST PUSH1 0x40 MLOAD PUSH2 0x97 SWAP2 SWAP1 PUSH2 0x28A JUMP JUMPDEST PUSH1 0x40 MLOAD DUP1 SWAP2 SUB SWAP1 RETURN JUMPDEST PUSH1 0x2 PUSH1 0x0 SWAP1 SLOAD SWAP1 PUSH2 0x100 EXP SWAP1 DIV PUSH20 0xFFFFFFFFFFFFFFFFFFFFFFFFFFFFFFFFFFFFFFFF AND DUP2 JUMP JUMPDEST PUSH1 0x0 DUP1 SLOAD PUSH2 0xD3 SWAP1 PUSH2 0x2D4 JUMP JUMPDEST DUP1 PUSH1 0x1F ADD PUSH1 0x20 DUP1 SWAP2 DIV MUL PUSH1 0x20 ADD PUSH1 0x40 MLOAD SWAP1 DUP2 ADD PUSH1 0x40 MSTORE DUP1 SWAP3 SWAP2 SWAP1 DUP2 DUP2 MSTORE PUSH1 0x20 ADD DUP3 DUP1 SLOAD PUSH2 0xFF SWAP1 PUSH2 0x2D4 JUMP JUMPDEST DUP1 ISZERO PUSH2 0x14C JUMPI DUP1 PUSH1 0x1F LT PUSH2 0x121 JUMPI PUSH2 0x100 DUP1 DUP4 SLOAD DIV MUL DUP4 MSTORE SWAP2 PUSH1 0x20 ADD SWAP2 PUSH2 0x14C JUMP JUMPDEST DUP3 ADD SWAP2 SWAP1 PUSH1 0x0 MSTORE PUSH1 0x20 PUSH1 0x0 KECCAK256 SWAP1 JUMPDEST DUP2 SLOAD DUP2 MSTORE SWAP1 PUSH1 0x1 ADD SWAP1 PUSH1 0x20 ADD DUP1 DUP4 GT PUSH2 0x12F JUMPI DUP3 SWAP1 SUB PUSH1 0x1F AND DUP3 ADD SWAP2 JUMPDEST POP POP POP POP POP DUP2 JUMP JUMPDEST PUSH1 0x1 SLOAD DUP2 JUMP JUMPDEST PUSH1 0x0 PUSH20 0xFFFFFFFFFFFFFFFFFFFFFFFFFFFFFFFFFFFFFFFF DUP3 AND SWAP1 POP SWAP2 SWAP1 POP JUMP JUMPDEST PUSH1 0x0 PUSH2 0x185 DUP3 PUSH2 0x15A JUMP JUMPDEST SWAP1 POP SWAP2 SWAP1 POP JUMP JUMPDEST PUSH2 0x195 DUP2 PUSH2 0x17A JUMP JUMPDEST DUP3 MSTORE POP POP JUMP JUMPDEST PUSH1 0x0 PUSH1 0x20 DUP3 ADD SWAP1 POP PUSH2 0x1B0 PUSH1 0x0 DUP4 ADD DUP5 PUSH2 0x18C JUMP JUMPDEST SWAP3 SWAP2 POP POP JUMP JUMPDEST PUSH1 0x0 DUP2 MLOAD SWAP1 POP SWAP2 SWAP1 POP JUMP JUMPDEST PUSH1 0x0 DUP3 DUP3 MSTORE PUSH1 0x20 DUP3 ADD SWAP1 POP SWAP3 SWAP2 POP POP JUMP JUMPDEST PUSH1 0x0 JUMPDEST DUP4 DUP2 LT ISZERO PUSH2 0x1F0 JUMPI DUP1 DUP3 ADD MLOAD DUP2 DUP5 ADD MSTORE PUSH1 0x20 DUP2 ADD SWAP1 POP PUSH2 0x1D5 JUMP JUMPDEST DUP4 DUP2 GT ISZERO PUSH2 0x1FF JUMPI PUSH1 0x0 DUP5 DUP5 ADD MSTORE JUMPDEST POP POP POP POP JUMP JUMPDEST PUSH1 0x0 PUSH1 0x1F NOT PUSH1 0x1F DUP4 ADD AND SWAP1 POP SWAP2 SWAP1 POP JUMP JUMPDEST PUSH1 0x0 PUSH2 0x221 DUP3 PUSH2 0x1B6 JUMP JUMPDEST PUSH2 0x22B DUP2 DUP6 PUSH2 0x1C1 JUMP JUMPDEST SWAP4 POP PUSH2 0x23B DUP2 DUP6 PUSH1 0x20 DUP7 ADD PUSH2 0x1D2 JUMP JUMPDEST PUSH2 0x244 DUP2 PUSH2 0x205 JUMP JUMPDEST DUP5 ADD SWAP2 POP POP SWAP3 SWAP2 POP POP JUMP JUMPDEST PUSH1 0x0 PUSH1 0x20 DUP3 ADD SWAP1 POP DUP2 DUP2 SUB PUSH1 0x0 DUP4 ADD MSTORE PUSH2 0x269 DUP2 DUP5 PUSH2 0x216 JUMP JUMPDEST SWAP1 POP SWAP3 SWAP2 POP POP JUMP JUMPDEST PUSH1 0x0 DUP2 SWAP1 POP SWAP2 SWAP1 POP JUMP JUMPDEST PUSH2 0x284 DUP2 PUSH2 0x271 JUMP JUMPDEST DUP3 MSTORE POP POP JUMP JUMPDEST PUSH1 0x0 PUSH1 0x20 DUP3 ADD SWAP1 POP PUSH2 0x29F PUSH1 0x0 DUP4 ADD DUP5 PUSH2 0x27B JUMP JUMPDEST SWAP3 SWAP2 POP POP JUMP JUMPDEST PUSH32 0x4E487B7100000000000000000000000000000000000000000000000000000000 PUSH1 0x0 MSTORE PUSH1 0x22 PUSH1 0x4 MSTORE PUSH1 0x24 PUSH1 0x0 REVERT JUMPDEST PUSH1 0x0 PUSH1 0x2 DUP3 DIV SWAP1 POP PUSH1 0x1 DUP3 AND DUP1 PUSH2 0x2EC JUMPI PUSH1 0x7F DUP3 AND SWAP2 POP JUMPDEST PUSH1 0x20 DUP3 LT DUP2 SUB PUSH2 0x2FF JUMPI PUSH2 0x2FE PUSH2 0x2A5 JUMP JUMPDEST JUMPDEST POP SWAP2 SWAP1 POP JUMP INVALID LOG2 PUSH5 0x6970667358 0x22 SLT KECCAK256 DIFFICULTY 0x26 0x27 0xDF 0x4C 0xD2 0x24 0x2F GAS SLT SWAP3 0x22 PUSH9 0x851C6CB82A65917118 CALLER DUP2 0xC 0x4A SWAP6 LOG1 SHL 0xFC 0xAB 0xD3 PUSH5 0x736F6C6343 STOP ADDMOD 0xF STOP CALLER LOG2 PUSH5 0x6970667358 0x22 SLT KECCAK256 DUP15 DUP14 RETURN 0xD9 0x1E AND 0x4F DUP10 0xDD SHR PUSH23 0xCC36F3BB9CFC0485C9A16ADED838B70062D96A6506473 PUSH16 0x6C634300080F00330000000000000000 "
				},
				"gasEstimates": {
					"creation": {
						"codeDepositCost": "792200",
						"executionCost": "825",
						"totalCost": "793025"
					},
					"external": {
						"books(uint256)": "infinite",
						"newBook(uint256,string)": "infinite"
					}
				},
				"methodIdentifiers": {
					"books(uint256)": "68744046",
					"newBook(uint256,string)": "f2785a4e"
				}
			},
			"storageLayout": {
				"storage": [
					{
						"astId": 34,
						"contract": "contracts/BookFactory.sol:BookFactory",
						"label": "books",
						"offset": 0,
						"slot": "0",
						"type": "t_array(t_contract(Book)30)dyn_storage"
					}
				],
				"types": {
					"t_array(t_contract(Book)30)dyn_storage": {
						"base": "t_contract(Book)30",
						"encoding": "dynamic_array",
						"label": "contract Book[]",
						"numberOfBytes": "32"
					},
					"t_contract(Book)30": {
						"encoding": "inplace",
						"label": "contract Book",
						"numberOfBytes": "20"
					}
				}
			},
			"userdoc": {
				"kind": "user",
				"methods": {},
				"version": 1
			}
		}
	}
}