{
	"contracts/BookFactory.sol": {
		"BookFactory": {
			"abi": [
				{
					"inputs": [
						{
							"internalType": "uint256",
							"name": "",
							"type": "uint256"
						}
					],
					"name": "books",
					"outputs": [
						{
							"internalType": "contract Book",
							"name": "",
							"type": "address"
						}
					],
					"stateMutability": "view",
					"type": "function"
				},
				{
					"inputs": [
						{
							"internalType": "string",
							"name": "_bookTitle",
							"type": "string"
						}
					],
					"name": "newBook",
					"outputs": [],
					"stateMutability": "nonpayable",
					"type": "function"
				}
			],
			"devdoc": {
				"kind": "dev",
				"methods": {},
				"version": 1
			},
			"evm": {
				"assembly": "    /* \"contracts/BookFactory.sol\":1022:1650  contract BookFactory... */\n  mstore(0x40, 0x80)\n  callvalue\n  dup1\n  iszero\n  tag_1\n  jumpi\n  0x00\n  dup1\n  revert\ntag_1:\n  pop\n  dataSize(sub_0)\n  dup1\n  dataOffset(sub_0)\n  0x00\n  codecopy\n  0x00\n  return\nstop\n\nsub_0: assembly {\n        /* \"contracts/BookFactory.sol\":1022:1650  contract BookFactory... */\n      mstore(0x40, 0x80)\n      callvalue\n      dup1\n      iszero\n      tag_1\n      jumpi\n      0x00\n      dup1\n      revert\n    tag_1:\n      pop\n      jumpi(tag_2, lt(calldatasize, 0x04))\n      shr(0xe0, calldataload(0x00))\n      dup1\n      0x1805884c\n      eq\n      tag_3\n      jumpi\n      dup1\n      0x68744046\n      eq\n      tag_4\n      jumpi\n    tag_2:\n      0x00\n      dup1\n      revert\n        /* \"contracts/BookFactory.sol\":1106:1350  function newBook(string memory _bookTitle) public... */\n    tag_3:\n      tag_5\n      0x04\n      dup1\n      calldatasize\n      sub\n      dup2\n      add\n      swap1\n      tag_6\n      swap2\n      swap1\n      tag_7\n      jump\t// in\n    tag_6:\n      tag_8\n      jump\t// in\n    tag_5:\n      stop\n        /* \"contracts/BookFactory.sol\":1080:1099  Book[] public books */\n    tag_4:\n      tag_9\n      0x04\n      dup1\n      calldatasize\n      sub\n      dup2\n      add\n      swap1\n      tag_10\n      swap2\n      swap1\n      tag_11\n      jump\t// in\n    tag_10:\n      tag_12\n      jump\t// in\n    tag_9:\n      mload(0x40)\n      tag_13\n      swap2\n      swap1\n      tag_14\n      jump\t// in\n    tag_13:\n      mload(0x40)\n      dup1\n      swap2\n      sub\n      swap1\n      return\n        /* \"contracts/BookFactory.sol\":1106:1350  function newBook(string memory _bookTitle) public... */\n    tag_8:\n        /* \"contracts/BookFactory.sol\":1206:1215  Book book */\n      0x00\n        /* \"contracts/BookFactory.sol\":1240:1241  1 */\n      0x01\n        /* \"contracts/BookFactory.sol\":1227:1232  books */\n      0x00\n        /* \"contracts/BookFactory.sol\":1227:1239  books.length */\n      dup1\n      sload\n      swap1\n      pop\n        /* \"contracts/BookFactory.sol\":1227:1241  books.length-1 */\n      tag_16\n      swap2\n      swap1\n      tag_17\n      jump\t// in\n    tag_16:\n        /* \"contracts/BookFactory.sol\":1243:1253  _bookTitle */\n      dup3\n        /* \"contracts/BookFactory.sol\":1263:1267  this */\n      address\n        /* \"contracts/BookFactory.sol\":1218:1269  new Book(books.length-1, _bookTitle, address(this)) */\n      mload(0x40)\n      tag_18\n      swap1\n      tag_19\n      jump\t// in\n    tag_18:\n      tag_20\n      swap4\n      swap3\n      swap2\n      swap1\n      tag_21\n      jump\t// in\n    tag_20:\n      mload(0x40)\n      dup1\n      swap2\n      sub\n      swap1\n      0x00\n      create\n      dup1\n      iszero\n      dup1\n      iszero\n      tag_22\n      jumpi\n      returndatasize\n      0x00\n      dup1\n      returndatacopy\n      revert(0x00, returndatasize)\n    tag_22:\n      pop\n        /* \"contracts/BookFactory.sol\":1206:1269  Book book = new Book(books.length-1, _bookTitle, address(this)) */\n      swap1\n      pop\n        /* \"contracts/BookFactory.sol\":1327:1332  books */\n      0x00\n        /* \"contracts/BookFactory.sol\":1338:1342  book */\n      dup2\n        /* \"contracts/BookFactory.sol\":1327:1343  books.push(book) */\n      swap1\n      dup1\n      0x01\n      dup2\n      sload\n      add\n      dup1\n      dup3\n      sstore\n      dup1\n      swap2\n      pop\n      pop\n      0x01\n      swap1\n      sub\n      swap1\n      0x00\n      mstore\n      keccak256(0x00, 0x20)\n      add\n      0x00\n      swap1\n      swap2\n      swap1\n      swap2\n      swap1\n      swap2\n      0x0100\n      exp\n      dup2\n      sload\n      dup2\n      0xffffffffffffffffffffffffffffffffffffffff\n      mul\n      not\n      and\n      swap1\n      dup4\n      0xffffffffffffffffffffffffffffffffffffffff\n      and\n      mul\n      or\n      swap1\n      sstore\n      pop\n        /* \"contracts/BookFactory.sol\":1160:1350  {... */\n      pop\n        /* \"contracts/BookFactory.sol\":1106:1350  function newBook(string memory _bookTitle) public... */\n      pop\n      jump\t// out\n        /* \"contracts/BookFactory.sol\":1080:1099  Book[] public books */\n    tag_12:\n      0x00\n      dup2\n      dup2\n      sload\n      dup2\n      lt\n      tag_24\n      jumpi\n      0x00\n      dup1\n      revert\n    tag_24:\n      swap1\n      0x00\n      mstore\n      keccak256(0x00, 0x20)\n      add\n      0x00\n      swap2\n      pop\n      sload\n      swap1\n      0x0100\n      exp\n      swap1\n      div\n      0xffffffffffffffffffffffffffffffffffffffff\n      and\n      dup2\n      jump\t// out\n    tag_19:\n      dataSize(sub_0)\n      dup1\n      dataOffset(sub_0)\n      dup4\n      codecopy\n      add\n      swap1\n      jump\t// out\n        /* \"#utility.yul\":7:82   */\n    tag_26:\n        /* \"#utility.yul\":40:46   */\n      0x00\n        /* \"#utility.yul\":73:75   */\n      0x40\n        /* \"#utility.yul\":67:76   */\n      mload\n        /* \"#utility.yul\":57:76   */\n      swap1\n      pop\n        /* \"#utility.yul\":7:82   */\n      swap1\n      jump\t// out\n        /* \"#utility.yul\":88:205   */\n    tag_27:\n        /* \"#utility.yul\":197:198   */\n      0x00\n        /* \"#utility.yul\":194:195   */\n      dup1\n        /* \"#utility.yul\":187:199   */\n      revert\n        /* \"#utility.yul\":211:328   */\n    tag_28:\n        /* \"#utility.yul\":320:321   */\n      0x00\n        /* \"#utility.yul\":317:318   */\n      dup1\n        /* \"#utility.yul\":310:322   */\n      revert\n        /* \"#utility.yul\":334:451   */\n    tag_29:\n        /* \"#utility.yul\":443:444   */\n      0x00\n        /* \"#utility.yul\":440:441   */\n      dup1\n        /* \"#utility.yul\":433:445   */\n      revert\n        /* \"#utility.yul\":457:574   */\n    tag_30:\n        /* \"#utility.yul\":566:567   */\n      0x00\n        /* \"#utility.yul\":563:564   */\n      dup1\n        /* \"#utility.yul\":556:568   */\n      revert\n        /* \"#utility.yul\":580:682   */\n    tag_31:\n        /* \"#utility.yul\":621:627   */\n      0x00\n        /* \"#utility.yul\":672:674   */\n      0x1f\n        /* \"#utility.yul\":668:675   */\n      not\n        /* \"#utility.yul\":663:665   */\n      0x1f\n        /* \"#utility.yul\":656:661   */\n      dup4\n        /* \"#utility.yul\":652:666   */\n      add\n        /* \"#utility.yul\":648:676   */\n      and\n        /* \"#utility.yul\":638:676   */\n      swap1\n      pop\n        /* \"#utility.yul\":580:682   */\n      swap2\n      swap1\n      pop\n      jump\t// out\n        /* \"#utility.yul\":688:868   */\n    tag_32:\n        /* \"#utility.yul\":736:813   */\n      0x4e487b7100000000000000000000000000000000000000000000000000000000\n        /* \"#utility.yul\":733:734   */\n      0x00\n        /* \"#utility.yul\":726:814   */\n      mstore\n        /* \"#utility.yul\":833:837   */\n      0x41\n        /* \"#utility.yul\":830:831   */\n      0x04\n        /* \"#utility.yul\":823:838   */\n      mstore\n        /* \"#utility.yul\":857:861   */\n      0x24\n        /* \"#utility.yul\":854:855   */\n      0x00\n        /* \"#utility.yul\":847:862   */\n      revert\n        /* \"#utility.yul\":874:1155   */\n    tag_33:\n        /* \"#utility.yul\":957:984   */\n      tag_65\n        /* \"#utility.yul\":979:983   */\n      dup3\n        /* \"#utility.yul\":957:984   */\n      tag_31\n      jump\t// in\n    tag_65:\n        /* \"#utility.yul\":949:955   */\n      dup2\n        /* \"#utility.yul\":945:985   */\n      add\n        /* \"#utility.yul\":1087:1093   */\n      dup2\n        /* \"#utility.yul\":1075:1085   */\n      dup2\n        /* \"#utility.yul\":1072:1094   */\n      lt\n        /* \"#utility.yul\":1051:1069   */\n      0xffffffffffffffff\n        /* \"#utility.yul\":1039:1049   */\n      dup3\n        /* \"#utility.yul\":1036:1070   */\n      gt\n        /* \"#utility.yul\":1033:1095   */\n      or\n        /* \"#utility.yul\":1030:1118   */\n      iszero\n      tag_66\n      jumpi\n        /* \"#utility.yul\":1098:1116   */\n      tag_67\n      tag_32\n      jump\t// in\n    tag_67:\n        /* \"#utility.yul\":1030:1118   */\n    tag_66:\n        /* \"#utility.yul\":1138:1148   */\n      dup1\n        /* \"#utility.yul\":1134:1136   */\n      0x40\n        /* \"#utility.yul\":1127:1149   */\n      mstore\n        /* \"#utility.yul\":917:1155   */\n      pop\n        /* \"#utility.yul\":874:1155   */\n      pop\n      pop\n      jump\t// out\n        /* \"#utility.yul\":1161:1290   */\n    tag_34:\n        /* \"#utility.yul\":1195:1201   */\n      0x00\n        /* \"#utility.yul\":1222:1242   */\n      tag_69\n      tag_26\n      jump\t// in\n    tag_69:\n        /* \"#utility.yul\":1212:1242   */\n      swap1\n      pop\n        /* \"#utility.yul\":1251:1284   */\n      tag_70\n        /* \"#utility.yul\":1279:1283   */\n      dup3\n        /* \"#utility.yul\":1271:1277   */\n      dup3\n        /* \"#utility.yul\":1251:1284   */\n      tag_33\n      jump\t// in\n    tag_70:\n        /* \"#utility.yul\":1161:1290   */\n      swap2\n      swap1\n      pop\n      jump\t// out\n        /* \"#utility.yul\":1296:1604   */\n    tag_35:\n        /* \"#utility.yul\":1358:1362   */\n      0x00\n        /* \"#utility.yul\":1448:1466   */\n      0xffffffffffffffff\n        /* \"#utility.yul\":1440:1446   */\n      dup3\n        /* \"#utility.yul\":1437:1467   */\n      gt\n        /* \"#utility.yul\":1434:1490   */\n      iszero\n      tag_72\n      jumpi\n        /* \"#utility.yul\":1470:1488   */\n      tag_73\n      tag_32\n      jump\t// in\n    tag_73:\n        /* \"#utility.yul\":1434:1490   */\n    tag_72:\n        /* \"#utility.yul\":1508:1537   */\n      tag_74\n        /* \"#utility.yul\":1530:1536   */\n      dup3\n        /* \"#utility.yul\":1508:1537   */\n      tag_31\n      jump\t// in\n    tag_74:\n        /* \"#utility.yul\":1500:1537   */\n      swap1\n      pop\n        /* \"#utility.yul\":1592:1596   */\n      0x20\n        /* \"#utility.yul\":1586:1590   */\n      dup2\n        /* \"#utility.yul\":1582:1597   */\n      add\n        /* \"#utility.yul\":1574:1597   */\n      swap1\n      pop\n        /* \"#utility.yul\":1296:1604   */\n      swap2\n      swap1\n      pop\n      jump\t// out\n        /* \"#utility.yul\":1610:1764   */\n    tag_36:\n        /* \"#utility.yul\":1694:1700   */\n      dup3\n        /* \"#utility.yul\":1689:1692   */\n      dup2\n        /* \"#utility.yul\":1684:1687   */\n      dup4\n        /* \"#utility.yul\":1671:1701   */\n      calldatacopy\n        /* \"#utility.yul\":1756:1757   */\n      0x00\n        /* \"#utility.yul\":1747:1753   */\n      dup4\n        /* \"#utility.yul\":1742:1745   */\n      dup4\n        /* \"#utility.yul\":1738:1754   */\n      add\n        /* \"#utility.yul\":1731:1758   */\n      mstore\n        /* \"#utility.yul\":1610:1764   */\n      pop\n      pop\n      pop\n      jump\t// out\n        /* \"#utility.yul\":1770:2182   */\n    tag_37:\n        /* \"#utility.yul\":1848:1853   */\n      0x00\n        /* \"#utility.yul\":1873:1939   */\n      tag_77\n        /* \"#utility.yul\":1889:1938   */\n      tag_78\n        /* \"#utility.yul\":1931:1937   */\n      dup5\n        /* \"#utility.yul\":1889:1938   */\n      tag_35\n      jump\t// in\n    tag_78:\n        /* \"#utility.yul\":1873:1939   */\n      tag_34\n      jump\t// in\n    tag_77:\n        /* \"#utility.yul\":1864:1939   */\n      swap1\n      pop\n        /* \"#utility.yul\":1962:1968   */\n      dup3\n        /* \"#utility.yul\":1955:1960   */\n      dup2\n        /* \"#utility.yul\":1948:1969   */\n      mstore\n        /* \"#utility.yul\":2000:2004   */\n      0x20\n        /* \"#utility.yul\":1993:1998   */\n      dup2\n        /* \"#utility.yul\":1989:2005   */\n      add\n        /* \"#utility.yul\":2038:2041   */\n      dup5\n        /* \"#utility.yul\":2029:2035   */\n      dup5\n        /* \"#utility.yul\":2024:2027   */\n      dup5\n        /* \"#utility.yul\":2020:2036   */\n      add\n        /* \"#utility.yul\":2017:2042   */\n      gt\n        /* \"#utility.yul\":2014:2126   */\n      iszero\n      tag_79\n      jumpi\n        /* \"#utility.yul\":2045:2124   */\n      tag_80\n      tag_30\n      jump\t// in\n    tag_80:\n        /* \"#utility.yul\":2014:2126   */\n    tag_79:\n        /* \"#utility.yul\":2135:2176   */\n      tag_81\n        /* \"#utility.yul\":2169:2175   */\n      dup5\n        /* \"#utility.yul\":2164:2167   */\n      dup3\n        /* \"#utility.yul\":2159:2162   */\n      dup6\n        /* \"#utility.yul\":2135:2176   */\n      tag_36\n      jump\t// in\n    tag_81:\n        /* \"#utility.yul\":1854:2182   */\n      pop\n        /* \"#utility.yul\":1770:2182   */\n      swap4\n      swap3\n      pop\n      pop\n      pop\n      jump\t// out\n        /* \"#utility.yul\":2202:2542   */\n    tag_38:\n        /* \"#utility.yul\":2258:2263   */\n      0x00\n        /* \"#utility.yul\":2307:2310   */\n      dup3\n        /* \"#utility.yul\":2300:2304   */\n      0x1f\n        /* \"#utility.yul\":2292:2298   */\n      dup4\n        /* \"#utility.yul\":2288:2305   */\n      add\n        /* \"#utility.yul\":2284:2311   */\n      slt\n        /* \"#utility.yul\":2274:2396   */\n      tag_83\n      jumpi\n        /* \"#utility.yul\":2315:2394   */\n      tag_84\n      tag_29\n      jump\t// in\n    tag_84:\n        /* \"#utility.yul\":2274:2396   */\n    tag_83:\n        /* \"#utility.yul\":2432:2438   */\n      dup2\n        /* \"#utility.yul\":2419:2439   */\n      calldataload\n        /* \"#utility.yul\":2457:2536   */\n      tag_85\n        /* \"#utility.yul\":2532:2535   */\n      dup5\n        /* \"#utility.yul\":2524:2530   */\n      dup3\n        /* \"#utility.yul\":2517:2521   */\n      0x20\n        /* \"#utility.yul\":2509:2515   */\n      dup7\n        /* \"#utility.yul\":2505:2522   */\n      add\n        /* \"#utility.yul\":2457:2536   */\n      tag_37\n      jump\t// in\n    tag_85:\n        /* \"#utility.yul\":2448:2536   */\n      swap2\n      pop\n        /* \"#utility.yul\":2264:2542   */\n      pop\n        /* \"#utility.yul\":2202:2542   */\n      swap3\n      swap2\n      pop\n      pop\n      jump\t// out\n        /* \"#utility.yul\":2548:3057   */\n    tag_7:\n        /* \"#utility.yul\":2617:2623   */\n      0x00\n        /* \"#utility.yul\":2666:2668   */\n      0x20\n        /* \"#utility.yul\":2654:2663   */\n      dup3\n        /* \"#utility.yul\":2645:2652   */\n      dup5\n        /* \"#utility.yul\":2641:2664   */\n      sub\n        /* \"#utility.yul\":2637:2669   */\n      slt\n        /* \"#utility.yul\":2634:2753   */\n      iszero\n      tag_87\n      jumpi\n        /* \"#utility.yul\":2672:2751   */\n      tag_88\n      tag_27\n      jump\t// in\n    tag_88:\n        /* \"#utility.yul\":2634:2753   */\n    tag_87:\n        /* \"#utility.yul\":2820:2821   */\n      0x00\n        /* \"#utility.yul\":2809:2818   */\n      dup3\n        /* \"#utility.yul\":2805:2822   */\n      add\n        /* \"#utility.yul\":2792:2823   */\n      calldataload\n        /* \"#utility.yul\":2850:2868   */\n      0xffffffffffffffff\n        /* \"#utility.yul\":2842:2848   */\n      dup2\n        /* \"#utility.yul\":2839:2869   */\n      gt\n        /* \"#utility.yul\":2836:2953   */\n      iszero\n      tag_89\n      jumpi\n        /* \"#utility.yul\":2872:2951   */\n      tag_90\n      tag_28\n      jump\t// in\n    tag_90:\n        /* \"#utility.yul\":2836:2953   */\n    tag_89:\n        /* \"#utility.yul\":2977:3040   */\n      tag_91\n        /* \"#utility.yul\":3032:3039   */\n      dup5\n        /* \"#utility.yul\":3023:3029   */\n      dup3\n        /* \"#utility.yul\":3012:3021   */\n      dup6\n        /* \"#utility.yul\":3008:3030   */\n      add\n        /* \"#utility.yul\":2977:3040   */\n      tag_38\n      jump\t// in\n    tag_91:\n        /* \"#utility.yul\":2967:3040   */\n      swap2\n      pop\n        /* \"#utility.yul\":2763:3050   */\n      pop\n        /* \"#utility.yul\":2548:3057   */\n      swap3\n      swap2\n      pop\n      pop\n      jump\t// out\n        /* \"#utility.yul\":3063:3140   */\n    tag_39:\n        /* \"#utility.yul\":3100:3107   */\n      0x00\n        /* \"#utility.yul\":3129:3134   */\n      dup2\n        /* \"#utility.yul\":3118:3134   */\n      swap1\n      pop\n        /* \"#utility.yul\":3063:3140   */\n      swap2\n      swap1\n      pop\n      jump\t// out\n        /* \"#utility.yul\":3146:3268   */\n    tag_40:\n        /* \"#utility.yul\":3219:3243   */\n      tag_94\n        /* \"#utility.yul\":3237:3242   */\n      dup2\n        /* \"#utility.yul\":3219:3243   */\n      tag_39\n      jump\t// in\n    tag_94:\n        /* \"#utility.yul\":3212:3217   */\n      dup2\n        /* \"#utility.yul\":3209:3244   */\n      eq\n        /* \"#utility.yul\":3199:3262   */\n      tag_95\n      jumpi\n        /* \"#utility.yul\":3258:3259   */\n      0x00\n        /* \"#utility.yul\":3255:3256   */\n      dup1\n        /* \"#utility.yul\":3248:3260   */\n      revert\n        /* \"#utility.yul\":3199:3262   */\n    tag_95:\n        /* \"#utility.yul\":3146:3268   */\n      pop\n      jump\t// out\n        /* \"#utility.yul\":3274:3413   */\n    tag_41:\n        /* \"#utility.yul\":3320:3325   */\n      0x00\n        /* \"#utility.yul\":3358:3364   */\n      dup2\n        /* \"#utility.yul\":3345:3365   */\n      calldataload\n        /* \"#utility.yul\":3336:3365   */\n      swap1\n      pop\n        /* \"#utility.yul\":3374:3407   */\n      tag_97\n        /* \"#utility.yul\":3401:3406   */\n      dup2\n        /* \"#utility.yul\":3374:3407   */\n      tag_40\n      jump\t// in\n    tag_97:\n        /* \"#utility.yul\":3274:3413   */\n      swap3\n      swap2\n      pop\n      pop\n      jump\t// out\n        /* \"#utility.yul\":3419:3748   */\n    tag_11:\n        /* \"#utility.yul\":3478:3484   */\n      0x00\n        /* \"#utility.yul\":3527:3529   */\n      0x20\n        /* \"#utility.yul\":3515:3524   */\n      dup3\n        /* \"#utility.yul\":3506:3513   */\n      dup5\n        /* \"#utility.yul\":3502:3525   */\n      sub\n        /* \"#utility.yul\":3498:3530   */\n      slt\n        /* \"#utility.yul\":3495:3614   */\n      iszero\n      tag_99\n      jumpi\n        /* \"#utility.yul\":3533:3612   */\n      tag_100\n      tag_27\n      jump\t// in\n    tag_100:\n        /* \"#utility.yul\":3495:3614   */\n    tag_99:\n        /* \"#utility.yul\":3653:3654   */\n      0x00\n        /* \"#utility.yul\":3678:3731   */\n      tag_101\n        /* \"#utility.yul\":3723:3730   */\n      dup5\n        /* \"#utility.yul\":3714:3720   */\n      dup3\n        /* \"#utility.yul\":3703:3712   */\n      dup6\n        /* \"#utility.yul\":3699:3721   */\n      add\n        /* \"#utility.yul\":3678:3731   */\n      tag_41\n      jump\t// in\n    tag_101:\n        /* \"#utility.yul\":3668:3731   */\n      swap2\n      pop\n        /* \"#utility.yul\":3624:3741   */\n      pop\n        /* \"#utility.yul\":3419:3748   */\n      swap3\n      swap2\n      pop\n      pop\n      jump\t// out\n        /* \"#utility.yul\":3754:3880   */\n    tag_42:\n        /* \"#utility.yul\":3791:3798   */\n      0x00\n        /* \"#utility.yul\":3831:3873   */\n      0xffffffffffffffffffffffffffffffffffffffff\n        /* \"#utility.yul\":3824:3829   */\n      dup3\n        /* \"#utility.yul\":3820:3874   */\n      and\n        /* \"#utility.yul\":3809:3874   */\n      swap1\n      pop\n        /* \"#utility.yul\":3754:3880   */\n      swap2\n      swap1\n      pop\n      jump\t// out\n        /* \"#utility.yul\":3886:3946   */\n    tag_43:\n        /* \"#utility.yul\":3914:3917   */\n      0x00\n        /* \"#utility.yul\":3935:3940   */\n      dup2\n        /* \"#utility.yul\":3928:3940   */\n      swap1\n      pop\n        /* \"#utility.yul\":3886:3946   */\n      swap2\n      swap1\n      pop\n      jump\t// out\n        /* \"#utility.yul\":3952:4094   */\n    tag_44:\n        /* \"#utility.yul\":4002:4011   */\n      0x00\n        /* \"#utility.yul\":4035:4088   */\n      tag_105\n        /* \"#utility.yul\":4053:4087   */\n      tag_106\n        /* \"#utility.yul\":4062:4086   */\n      tag_107\n        /* \"#utility.yul\":4080:4085   */\n      dup5\n        /* \"#utility.yul\":4062:4086   */\n      tag_42\n      jump\t// in\n    tag_107:\n        /* \"#utility.yul\":4053:4087   */\n      tag_43\n      jump\t// in\n    tag_106:\n        /* \"#utility.yul\":4035:4088   */\n      tag_42\n      jump\t// in\n    tag_105:\n        /* \"#utility.yul\":4022:4088   */\n      swap1\n      pop\n        /* \"#utility.yul\":3952:4094   */\n      swap2\n      swap1\n      pop\n      jump\t// out\n        /* \"#utility.yul\":4100:4226   */\n    tag_45:\n        /* \"#utility.yul\":4150:4159   */\n      0x00\n        /* \"#utility.yul\":4183:4220   */\n      tag_109\n        /* \"#utility.yul\":4214:4219   */\n      dup3\n        /* \"#utility.yul\":4183:4220   */\n      tag_44\n      jump\t// in\n    tag_109:\n        /* \"#utility.yul\":4170:4220   */\n      swap1\n      pop\n        /* \"#utility.yul\":4100:4226   */\n      swap2\n      swap1\n      pop\n      jump\t// out\n        /* \"#utility.yul\":4232:4369   */\n    tag_46:\n        /* \"#utility.yul\":4293:4302   */\n      0x00\n        /* \"#utility.yul\":4326:4363   */\n      tag_111\n        /* \"#utility.yul\":4357:4362   */\n      dup3\n        /* \"#utility.yul\":4326:4363   */\n      tag_45\n      jump\t// in\n    tag_111:\n        /* \"#utility.yul\":4313:4363   */\n      swap1\n      pop\n        /* \"#utility.yul\":4232:4369   */\n      swap2\n      swap1\n      pop\n      jump\t// out\n        /* \"#utility.yul\":4375:4528   */\n    tag_47:\n        /* \"#utility.yul\":4473:4521   */\n      tag_113\n        /* \"#utility.yul\":4515:4520   */\n      dup2\n        /* \"#utility.yul\":4473:4521   */\n      tag_46\n      jump\t// in\n    tag_113:\n        /* \"#utility.yul\":4468:4471   */\n      dup3\n        /* \"#utility.yul\":4461:4522   */\n      mstore\n        /* \"#utility.yul\":4375:4528   */\n      pop\n      pop\n      jump\t// out\n        /* \"#utility.yul\":4534:4778   */\n    tag_14:\n        /* \"#utility.yul\":4638:4642   */\n      0x00\n        /* \"#utility.yul\":4676:4678   */\n      0x20\n        /* \"#utility.yul\":4665:4674   */\n      dup3\n        /* \"#utility.yul\":4661:4679   */\n      add\n        /* \"#utility.yul\":4653:4679   */\n      swap1\n      pop\n        /* \"#utility.yul\":4689:4771   */\n      tag_115\n        /* \"#utility.yul\":4768:4769   */\n      0x00\n        /* \"#utility.yul\":4757:4766   */\n      dup4\n        /* \"#utility.yul\":4753:4770   */\n      add\n        /* \"#utility.yul\":4744:4750   */\n      dup5\n        /* \"#utility.yul\":4689:4771   */\n      tag_47\n      jump\t// in\n    tag_115:\n        /* \"#utility.yul\":4534:4778   */\n      swap3\n      swap2\n      pop\n      pop\n      jump\t// out\n        /* \"#utility.yul\":4784:4964   */\n    tag_48:\n        /* \"#utility.yul\":4832:4909   */\n      0x4e487b7100000000000000000000000000000000000000000000000000000000\n        /* \"#utility.yul\":4829:4830   */\n      0x00\n        /* \"#utility.yul\":4822:4910   */\n      mstore\n        /* \"#utility.yul\":4929:4933   */\n      0x11\n        /* \"#utility.yul\":4926:4927   */\n      0x04\n        /* \"#utility.yul\":4919:4934   */\n      mstore\n        /* \"#utility.yul\":4953:4957   */\n      0x24\n        /* \"#utility.yul\":4950:4951   */\n      0x00\n        /* \"#utility.yul\":4943:4958   */\n      revert\n        /* \"#utility.yul\":4970:5161   */\n    tag_17:\n        /* \"#utility.yul\":5010:5014   */\n      0x00\n        /* \"#utility.yul\":5030:5050   */\n      tag_118\n        /* \"#utility.yul\":5048:5049   */\n      dup3\n        /* \"#utility.yul\":5030:5050   */\n      tag_39\n      jump\t// in\n    tag_118:\n        /* \"#utility.yul\":5025:5050   */\n      swap2\n      pop\n        /* \"#utility.yul\":5064:5084   */\n      tag_119\n        /* \"#utility.yul\":5082:5083   */\n      dup4\n        /* \"#utility.yul\":5064:5084   */\n      tag_39\n      jump\t// in\n    tag_119:\n        /* \"#utility.yul\":5059:5084   */\n      swap3\n      pop\n        /* \"#utility.yul\":5103:5104   */\n      dup3\n        /* \"#utility.yul\":5100:5101   */\n      dup3\n        /* \"#utility.yul\":5097:5105   */\n      lt\n        /* \"#utility.yul\":5094:5128   */\n      iszero\n      tag_120\n      jumpi\n        /* \"#utility.yul\":5108:5126   */\n      tag_121\n      tag_48\n      jump\t// in\n    tag_121:\n        /* \"#utility.yul\":5094:5128   */\n    tag_120:\n        /* \"#utility.yul\":5153:5154   */\n      dup3\n        /* \"#utility.yul\":5150:5151   */\n      dup3\n        /* \"#utility.yul\":5146:5155   */\n      sub\n        /* \"#utility.yul\":5138:5155   */\n      swap1\n      pop\n        /* \"#utility.yul\":4970:5161   */\n      swap3\n      swap2\n      pop\n      pop\n      jump\t// out\n        /* \"#utility.yul\":5167:5285   */\n    tag_49:\n        /* \"#utility.yul\":5254:5278   */\n      tag_123\n        /* \"#utility.yul\":5272:5277   */\n      dup2\n        /* \"#utility.yul\":5254:5278   */\n      tag_39\n      jump\t// in\n    tag_123:\n        /* \"#utility.yul\":5249:5252   */\n      dup3\n        /* \"#utility.yul\":5242:5279   */\n      mstore\n        /* \"#utility.yul\":5167:5285   */\n      pop\n      pop\n      jump\t// out\n        /* \"#utility.yul\":5291:5390   */\n    tag_50:\n        /* \"#utility.yul\":5343:5349   */\n      0x00\n        /* \"#utility.yul\":5377:5382   */\n      dup2\n        /* \"#utility.yul\":5371:5383   */\n      mload\n        /* \"#utility.yul\":5361:5383   */\n      swap1\n      pop\n        /* \"#utility.yul\":5291:5390   */\n      swap2\n      swap1\n      pop\n      jump\t// out\n        /* \"#utility.yul\":5396:5565   */\n    tag_51:\n        /* \"#utility.yul\":5480:5491   */\n      0x00\n        /* \"#utility.yul\":5514:5520   */\n      dup3\n        /* \"#utility.yul\":5509:5512   */\n      dup3\n        /* \"#utility.yul\":5502:5521   */\n      mstore\n        /* \"#utility.yul\":5554:5558   */\n      0x20\n        /* \"#utility.yul\":5549:5552   */\n      dup3\n        /* \"#utility.yul\":5545:5559   */\n      add\n        /* \"#utility.yul\":5530:5559   */\n      swap1\n      pop\n        /* \"#utility.yul\":5396:5565   */\n      swap3\n      swap2\n      pop\n      pop\n      jump\t// out\n        /* \"#utility.yul\":5571:5878   */\n    tag_52:\n        /* \"#utility.yul\":5639:5640   */\n      0x00\n        /* \"#utility.yul\":5649:5762   */\n    tag_127:\n        /* \"#utility.yul\":5663:5669   */\n      dup4\n        /* \"#utility.yul\":5660:5661   */\n      dup2\n        /* \"#utility.yul\":5657:5670   */\n      lt\n        /* \"#utility.yul\":5649:5762   */\n      iszero\n      tag_129\n      jumpi\n        /* \"#utility.yul\":5748:5749   */\n      dup1\n        /* \"#utility.yul\":5743:5746   */\n      dup3\n        /* \"#utility.yul\":5739:5750   */\n      add\n        /* \"#utility.yul\":5733:5751   */\n      mload\n        /* \"#utility.yul\":5729:5730   */\n      dup2\n        /* \"#utility.yul\":5724:5727   */\n      dup5\n        /* \"#utility.yul\":5720:5731   */\n      add\n        /* \"#utility.yul\":5713:5752   */\n      mstore\n        /* \"#utility.yul\":5685:5687   */\n      0x20\n        /* \"#utility.yul\":5682:5683   */\n      dup2\n        /* \"#utility.yul\":5678:5688   */\n      add\n        /* \"#utility.yul\":5673:5688   */\n      swap1\n      pop\n        /* \"#utility.yul\":5649:5762   */\n      jump(tag_127)\n    tag_129:\n        /* \"#utility.yul\":5780:5786   */\n      dup4\n        /* \"#utility.yul\":5777:5778   */\n      dup2\n        /* \"#utility.yul\":5774:5787   */\n      gt\n        /* \"#utility.yul\":5771:5872   */\n      iszero\n      tag_130\n      jumpi\n        /* \"#utility.yul\":5860:5861   */\n      0x00\n        /* \"#utility.yul\":5851:5857   */\n      dup5\n        /* \"#utility.yul\":5846:5849   */\n      dup5\n        /* \"#utility.yul\":5842:5858   */\n      add\n        /* \"#utility.yul\":5835:5862   */\n      mstore\n        /* \"#utility.yul\":5771:5872   */\n    tag_130:\n        /* \"#utility.yul\":5620:5878   */\n      pop\n        /* \"#utility.yul\":5571:5878   */\n      pop\n      pop\n      pop\n      jump\t// out\n        /* \"#utility.yul\":5884:6248   */\n    tag_53:\n        /* \"#utility.yul\":5972:5975   */\n      0x00\n        /* \"#utility.yul\":6000:6039   */\n      tag_132\n        /* \"#utility.yul\":6033:6038   */\n      dup3\n        /* \"#utility.yul\":6000:6039   */\n      tag_50\n      jump\t// in\n    tag_132:\n        /* \"#utility.yul\":6055:6126   */\n      tag_133\n        /* \"#utility.yul\":6119:6125   */\n      dup2\n        /* \"#utility.yul\":6114:6117   */\n      dup6\n        /* \"#utility.yul\":6055:6126   */\n      tag_51\n      jump\t// in\n    tag_133:\n        /* \"#utility.yul\":6048:6126   */\n      swap4\n      pop\n        /* \"#utility.yul\":6135:6187   */\n      tag_134\n        /* \"#utility.yul\":6180:6186   */\n      dup2\n        /* \"#utility.yul\":6175:6178   */\n      dup6\n        /* \"#utility.yul\":6168:6172   */\n      0x20\n        /* \"#utility.yul\":6161:6166   */\n      dup7\n        /* \"#utility.yul\":6157:6173   */\n      add\n        /* \"#utility.yul\":6135:6187   */\n      tag_52\n      jump\t// in\n    tag_134:\n        /* \"#utility.yul\":6212:6241   */\n      tag_135\n        /* \"#utility.yul\":6234:6240   */\n      dup2\n        /* \"#utility.yul\":6212:6241   */\n      tag_31\n      jump\t// in\n    tag_135:\n        /* \"#utility.yul\":6207:6210   */\n      dup5\n        /* \"#utility.yul\":6203:6242   */\n      add\n        /* \"#utility.yul\":6196:6242   */\n      swap2\n      pop\n        /* \"#utility.yul\":5976:6248   */\n      pop\n        /* \"#utility.yul\":5884:6248   */\n      swap3\n      swap2\n      pop\n      pop\n      jump\t// out\n        /* \"#utility.yul\":6254:6350   */\n    tag_54:\n        /* \"#utility.yul\":6291:6298   */\n      0x00\n        /* \"#utility.yul\":6320:6344   */\n      tag_137\n        /* \"#utility.yul\":6338:6343   */\n      dup3\n        /* \"#utility.yul\":6320:6344   */\n      tag_42\n      jump\t// in\n    tag_137:\n        /* \"#utility.yul\":6309:6344   */\n      swap1\n      pop\n        /* \"#utility.yul\":6254:6350   */\n      swap2\n      swap1\n      pop\n      jump\t// out\n        /* \"#utility.yul\":6356:6474   */\n    tag_55:\n        /* \"#utility.yul\":6443:6467   */\n      tag_139\n        /* \"#utility.yul\":6461:6466   */\n      dup2\n        /* \"#utility.yul\":6443:6467   */\n      tag_54\n      jump\t// in\n    tag_139:\n        /* \"#utility.yul\":6438:6441   */\n      dup3\n        /* \"#utility.yul\":6431:6468   */\n      mstore\n        /* \"#utility.yul\":6356:6474   */\n      pop\n      pop\n      jump\t// out\n        /* \"#utility.yul\":6480:7013   */\n    tag_21:\n        /* \"#utility.yul\":6649:6653   */\n      0x00\n        /* \"#utility.yul\":6687:6689   */\n      0x60\n        /* \"#utility.yul\":6676:6685   */\n      dup3\n        /* \"#utility.yul\":6672:6690   */\n      add\n        /* \"#utility.yul\":6664:6690   */\n      swap1\n      pop\n        /* \"#utility.yul\":6700:6771   */\n      tag_141\n        /* \"#utility.yul\":6768:6769   */\n      0x00\n        /* \"#utility.yul\":6757:6766   */\n      dup4\n        /* \"#utility.yul\":6753:6770   */\n      add\n        /* \"#utility.yul\":6744:6750   */\n      dup7\n        /* \"#utility.yul\":6700:6771   */\n      tag_49\n      jump\t// in\n    tag_141:\n        /* \"#utility.yul\":6818:6827   */\n      dup2\n        /* \"#utility.yul\":6812:6816   */\n      dup2\n        /* \"#utility.yul\":6808:6828   */\n      sub\n        /* \"#utility.yul\":6803:6805   */\n      0x20\n        /* \"#utility.yul\":6792:6801   */\n      dup4\n        /* \"#utility.yul\":6788:6806   */\n      add\n        /* \"#utility.yul\":6781:6829   */\n      mstore\n        /* \"#utility.yul\":6846:6924   */\n      tag_142\n        /* \"#utility.yul\":6919:6923   */\n      dup2\n        /* \"#utility.yul\":6910:6916   */\n      dup6\n        /* \"#utility.yul\":6846:6924   */\n      tag_53\n      jump\t// in\n    tag_142:\n        /* \"#utility.yul\":6838:6924   */\n      swap1\n      pop\n        /* \"#utility.yul\":6934:7006   */\n      tag_143\n        /* \"#utility.yul\":7002:7004   */\n      0x40\n        /* \"#utility.yul\":6991:7000   */\n      dup4\n        /* \"#utility.yul\":6987:7005   */\n      add\n        /* \"#utility.yul\":6978:6984   */\n      dup5\n        /* \"#utility.yul\":6934:7006   */\n      tag_55\n      jump\t// in\n    tag_143:\n        /* \"#utility.yul\":6480:7013   */\n      swap5\n      swap4\n      pop\n      pop\n      pop\n      pop\n      jump\t// out\n    stop\n\n    sub_0: assembly {\n            /* \"contracts/BookFactory.sol\":738:1020  contract Book... */\n          mstore(0x40, 0x80)\n            /* \"contracts/BookFactory.sol\":839:1018  constructor(uint _bookID, string memory _bookTitle, address _seller) public payable... */\n          mload(0x40)\n          sub(codesize, bytecodeSize)\n          dup1\n          bytecodeSize\n          dup4\n          codecopy\n          dup2\n          dup2\n          add\n          0x40\n          mstore\n          dup2\n          add\n          swap1\n          tag_1\n          swap2\n          swap1\n          tag_2\n          jump\t// in\n        tag_1:\n            /* \"contracts/BookFactory.sol\":946:953  _bookID */\n          dup3\n            /* \"contracts/BookFactory.sol\":937:943  bookID */\n          0x01\n            /* \"contracts/BookFactory.sol\":937:953  bookID = _bookID */\n          dup2\n          swap1\n          sstore\n          pop\n            /* \"contracts/BookFactory.sol\":975:985  _bookTitle */\n          dup2\n            /* \"contracts/BookFactory.sol\":963:972  bookTitle */\n          0x00\n            /* \"contracts/BookFactory.sol\":963:985  bookTitle = _bookTitle */\n          swap1\n          dup2\n          tag_5\n          swap2\n          swap1\n          tag_6\n          jump\t// in\n        tag_5:\n          pop\n            /* \"contracts/BookFactory.sol\":1004:1011  _seller */\n          dup1\n            /* \"contracts/BookFactory.sol\":995:1001  seller */\n          0x02\n          0x00\n            /* \"contracts/BookFactory.sol\":995:1011  seller = _seller */\n          0x0100\n          exp\n          dup2\n          sload\n          dup2\n          0xffffffffffffffffffffffffffffffffffffffff\n          mul\n          not\n          and\n          swap1\n          dup4\n          0xffffffffffffffffffffffffffffffffffffffff\n          and\n          mul\n          or\n          swap1\n          sstore\n          pop\n            /* \"contracts/BookFactory.sol\":839:1018  constructor(uint _bookID, string memory _bookTitle, address _seller) public payable... */\n          pop\n          pop\n          pop\n            /* \"contracts/BookFactory.sol\":738:1020  contract Book... */\n          jump(tag_7)\n            /* \"#utility.yul\":7:82   */\n        tag_8:\n            /* \"#utility.yul\":40:46   */\n          0x00\n            /* \"#utility.yul\":73:75   */\n          0x40\n            /* \"#utility.yul\":67:76   */\n          mload\n            /* \"#utility.yul\":57:76   */\n          swap1\n          pop\n            /* \"#utility.yul\":7:82   */\n          swap1\n          jump\t// out\n            /* \"#utility.yul\":88:205   */\n        tag_9:\n            /* \"#utility.yul\":197:198   */\n          0x00\n            /* \"#utility.yul\":194:195   */\n          dup1\n            /* \"#utility.yul\":187:199   */\n          revert\n            /* \"#utility.yul\":211:328   */\n        tag_10:\n            /* \"#utility.yul\":320:321   */\n          0x00\n            /* \"#utility.yul\":317:318   */\n          dup1\n            /* \"#utility.yul\":310:322   */\n          revert\n            /* \"#utility.yul\":334:411   */\n        tag_11:\n            /* \"#utility.yul\":371:378   */\n          0x00\n            /* \"#utility.yul\":400:405   */\n          dup2\n            /* \"#utility.yul\":389:405   */\n          swap1\n          pop\n            /* \"#utility.yul\":334:411   */\n          swap2\n          swap1\n          pop\n          jump\t// out\n            /* \"#utility.yul\":417:539   */\n        tag_12:\n            /* \"#utility.yul\":490:514   */\n          tag_52\n            /* \"#utility.yul\":508:513   */\n          dup2\n            /* \"#utility.yul\":490:514   */\n          tag_11\n          jump\t// in\n        tag_52:\n            /* \"#utility.yul\":483:488   */\n          dup2\n            /* \"#utility.yul\":480:515   */\n          eq\n            /* \"#utility.yul\":470:533   */\n          tag_53\n          jumpi\n            /* \"#utility.yul\":529:530   */\n          0x00\n            /* \"#utility.yul\":526:527   */\n          dup1\n            /* \"#utility.yul\":519:531   */\n          revert\n            /* \"#utility.yul\":470:533   */\n        tag_53:\n            /* \"#utility.yul\":417:539   */\n          pop\n          jump\t// out\n            /* \"#utility.yul\":545:688   */\n        tag_13:\n            /* \"#utility.yul\":602:607   */\n          0x00\n            /* \"#utility.yul\":633:639   */\n          dup2\n            /* \"#utility.yul\":627:640   */\n          mload\n            /* \"#utility.yul\":618:640   */\n          swap1\n          pop\n            /* \"#utility.yul\":649:682   */\n          tag_55\n            /* \"#utility.yul\":676:681   */\n          dup2\n            /* \"#utility.yul\":649:682   */\n          tag_12\n          jump\t// in\n        tag_55:\n            /* \"#utility.yul\":545:688   */\n          swap3\n          swap2\n          pop\n          pop\n          jump\t// out\n            /* \"#utility.yul\":694:811   */\n        tag_14:\n            /* \"#utility.yul\":803:804   */\n          0x00\n            /* \"#utility.yul\":800:801   */\n          dup1\n            /* \"#utility.yul\":793:805   */\n          revert\n            /* \"#utility.yul\":817:934   */\n        tag_15:\n            /* \"#utility.yul\":926:927   */\n          0x00\n            /* \"#utility.yul\":923:924   */\n          dup1\n            /* \"#utility.yul\":916:928   */\n          revert\n            /* \"#utility.yul\":940:1042   */\n        tag_16:\n            /* \"#utility.yul\":981:987   */\n          0x00\n            /* \"#utility.yul\":1032:1034   */\n          0x1f\n            /* \"#utility.yul\":1028:1035   */\n          not\n            /* \"#utility.yul\":1023:1025   */\n          0x1f\n            /* \"#utility.yul\":1016:1021   */\n          dup4\n            /* \"#utility.yul\":1012:1026   */\n          add\n            /* \"#utility.yul\":1008:1036   */\n          and\n            /* \"#utility.yul\":998:1036   */\n          swap1\n          pop\n            /* \"#utility.yul\":940:1042   */\n          swap2\n          swap1\n          pop\n          jump\t// out\n            /* \"#utility.yul\":1048:1228   */\n        tag_17:\n            /* \"#utility.yul\":1096:1173   */\n          0x4e487b7100000000000000000000000000000000000000000000000000000000\n            /* \"#utility.yul\":1093:1094   */\n          0x00\n            /* \"#utility.yul\":1086:1174   */\n          mstore\n            /* \"#utility.yul\":1193:1197   */\n          0x41\n            /* \"#utility.yul\":1190:1191   */\n          0x04\n            /* \"#utility.yul\":1183:1198   */\n          mstore\n            /* \"#utility.yul\":1217:1221   */\n          0x24\n            /* \"#utility.yul\":1214:1215   */\n          0x00\n            /* \"#utility.yul\":1207:1222   */\n          revert\n            /* \"#utility.yul\":1234:1515   */\n        tag_18:\n            /* \"#utility.yul\":1317:1344   */\n          tag_61\n            /* \"#utility.yul\":1339:1343   */\n          dup3\n            /* \"#utility.yul\":1317:1344   */\n          tag_16\n          jump\t// in\n        tag_61:\n            /* \"#utility.yul\":1309:1315   */\n          dup2\n            /* \"#utility.yul\":1305:1345   */\n          add\n            /* \"#utility.yul\":1447:1453   */\n          dup2\n            /* \"#utility.yul\":1435:1445   */\n          dup2\n            /* \"#utility.yul\":1432:1454   */\n          lt\n            /* \"#utility.yul\":1411:1429   */\n          0xffffffffffffffff\n            /* \"#utility.yul\":1399:1409   */\n          dup3\n            /* \"#utility.yul\":1396:1430   */\n          gt\n            /* \"#utility.yul\":1393:1455   */\n          or\n            /* \"#utility.yul\":1390:1478   */\n          iszero\n          tag_62\n          jumpi\n            /* \"#utility.yul\":1458:1476   */\n          tag_63\n          tag_17\n          jump\t// in\n        tag_63:\n            /* \"#utility.yul\":1390:1478   */\n        tag_62:\n            /* \"#utility.yul\":1498:1508   */\n          dup1\n            /* \"#utility.yul\":1494:1496   */\n          0x40\n            /* \"#utility.yul\":1487:1509   */\n          mstore\n            /* \"#utility.yul\":1277:1515   */\n          pop\n            /* \"#utility.yul\":1234:1515   */\n          pop\n          pop\n          jump\t// out\n            /* \"#utility.yul\":1521:1650   */\n        tag_19:\n            /* \"#utility.yul\":1555:1561   */\n          0x00\n            /* \"#utility.yul\":1582:1602   */\n          tag_65\n          tag_8\n          jump\t// in\n        tag_65:\n            /* \"#utility.yul\":1572:1602   */\n          swap1\n          pop\n            /* \"#utility.yul\":1611:1644   */\n          tag_66\n            /* \"#utility.yul\":1639:1643   */\n          dup3\n            /* \"#utility.yul\":1631:1637   */\n          dup3\n            /* \"#utility.yul\":1611:1644   */\n          tag_18\n          jump\t// in\n        tag_66:\n            /* \"#utility.yul\":1521:1650   */\n          swap2\n          swap1\n          pop\n          jump\t// out\n            /* \"#utility.yul\":1656:1964   */\n        tag_20:\n            /* \"#utility.yul\":1718:1722   */\n          0x00\n            /* \"#utility.yul\":1808:1826   */\n          0xffffffffffffffff\n            /* \"#utility.yul\":1800:1806   */\n          dup3\n            /* \"#utility.yul\":1797:1827   */\n          gt\n            /* \"#utility.yul\":1794:1850   */\n          iszero\n          tag_68\n          jumpi\n            /* \"#utility.yul\":1830:1848   */\n          tag_69\n          tag_17\n          jump\t// in\n        tag_69:\n            /* \"#utility.yul\":1794:1850   */\n        tag_68:\n            /* \"#utility.yul\":1868:1897   */\n          tag_70\n            /* \"#utility.yul\":1890:1896   */\n          dup3\n            /* \"#utility.yul\":1868:1897   */\n          tag_16\n          jump\t// in\n        tag_70:\n            /* \"#utility.yul\":1860:1897   */\n          swap1\n          pop\n            /* \"#utility.yul\":1952:1956   */\n          0x20\n            /* \"#utility.yul\":1946:1950   */\n          dup2\n            /* \"#utility.yul\":1942:1957   */\n          add\n            /* \"#utility.yul\":1934:1957   */\n          swap1\n          pop\n            /* \"#utility.yul\":1656:1964   */\n          swap2\n          swap1\n          pop\n          jump\t// out\n            /* \"#utility.yul\":1970:2277   */\n        tag_21:\n            /* \"#utility.yul\":2038:2039   */\n          0x00\n            /* \"#utility.yul\":2048:2161   */\n        tag_72:\n            /* \"#utility.yul\":2062:2068   */\n          dup4\n            /* \"#utility.yul\":2059:2060   */\n          dup2\n            /* \"#utility.yul\":2056:2069   */\n          lt\n            /* \"#utility.yul\":2048:2161   */\n          iszero\n          tag_74\n          jumpi\n            /* \"#utility.yul\":2147:2148   */\n          dup1\n            /* \"#utility.yul\":2142:2145   */\n          dup3\n            /* \"#utility.yul\":2138:2149   */\n          add\n            /* \"#utility.yul\":2132:2150   */\n          mload\n            /* \"#utility.yul\":2128:2129   */\n          dup2\n            /* \"#utility.yul\":2123:2126   */\n          dup5\n            /* \"#utility.yul\":2119:2130   */\n          add\n            /* \"#utility.yul\":2112:2151   */\n          mstore\n            /* \"#utility.yul\":2084:2086   */\n          0x20\n            /* \"#utility.yul\":2081:2082   */\n          dup2\n            /* \"#utility.yul\":2077:2087   */\n          add\n            /* \"#utility.yul\":2072:2087   */\n          swap1\n          pop\n            /* \"#utility.yul\":2048:2161   */\n          jump(tag_72)\n        tag_74:\n            /* \"#utility.yul\":2179:2185   */\n          dup4\n            /* \"#utility.yul\":2176:2177   */\n          dup2\n            /* \"#utility.yul\":2173:2186   */\n          gt\n            /* \"#utility.yul\":2170:2271   */\n          iszero\n          tag_75\n          jumpi\n            /* \"#utility.yul\":2259:2260   */\n          0x00\n            /* \"#utility.yul\":2250:2256   */\n          dup5\n            /* \"#utility.yul\":2245:2248   */\n          dup5\n            /* \"#utility.yul\":2241:2257   */\n          add\n            /* \"#utility.yul\":2234:2261   */\n          mstore\n            /* \"#utility.yul\":2170:2271   */\n        tag_75:\n            /* \"#utility.yul\":2019:2277   */\n          pop\n            /* \"#utility.yul\":1970:2277   */\n          pop\n          pop\n          pop\n          jump\t// out\n            /* \"#utility.yul\":2283:2704   */\n        tag_22:\n            /* \"#utility.yul\":2372:2377   */\n          0x00\n            /* \"#utility.yul\":2397:2463   */\n          tag_77\n            /* \"#utility.yul\":2413:2462   */\n          tag_78\n            /* \"#utility.yul\":2455:2461   */\n          dup5\n            /* \"#utility.yul\":2413:2462   */\n          tag_20\n          jump\t// in\n        tag_78:\n            /* \"#utility.yul\":2397:2463   */\n          tag_19\n          jump\t// in\n        tag_77:\n            /* \"#utility.yul\":2388:2463   */\n          swap1\n          pop\n            /* \"#utility.yul\":2486:2492   */\n          dup3\n            /* \"#utility.yul\":2479:2484   */\n          dup2\n            /* \"#utility.yul\":2472:2493   */\n          mstore\n            /* \"#utility.yul\":2524:2528   */\n          0x20\n            /* \"#utility.yul\":2517:2522   */\n          dup2\n            /* \"#utility.yul\":2513:2529   */\n          add\n            /* \"#utility.yul\":2562:2565   */\n          dup5\n            /* \"#utility.yul\":2553:2559   */\n          dup5\n            /* \"#utility.yul\":2548:2551   */\n          dup5\n            /* \"#utility.yul\":2544:2560   */\n          add\n            /* \"#utility.yul\":2541:2566   */\n          gt\n            /* \"#utility.yul\":2538:2650   */\n          iszero\n          tag_79\n          jumpi\n            /* \"#utility.yul\":2569:2648   */\n          tag_80\n          tag_15\n          jump\t// in\n        tag_80:\n            /* \"#utility.yul\":2538:2650   */\n        tag_79:\n            /* \"#utility.yul\":2659:2698   */\n          tag_81\n            /* \"#utility.yul\":2691:2697   */\n          dup5\n            /* \"#utility.yul\":2686:2689   */\n          dup3\n            /* \"#utility.yul\":2681:2684   */\n          dup6\n            /* \"#utility.yul\":2659:2698   */\n          tag_21\n          jump\t// in\n        tag_81:\n            /* \"#utility.yul\":2378:2704   */\n          pop\n            /* \"#utility.yul\":2283:2704   */\n          swap4\n          swap3\n          pop\n          pop\n          pop\n          jump\t// out\n            /* \"#utility.yul\":2724:3079   */\n        tag_23:\n            /* \"#utility.yul\":2791:2796   */\n          0x00\n            /* \"#utility.yul\":2840:2843   */\n          dup3\n            /* \"#utility.yul\":2833:2837   */\n          0x1f\n            /* \"#utility.yul\":2825:2831   */\n          dup4\n            /* \"#utility.yul\":2821:2838   */\n          add\n            /* \"#utility.yul\":2817:2844   */\n          slt\n            /* \"#utility.yul\":2807:2929   */\n          tag_83\n          jumpi\n            /* \"#utility.yul\":2848:2927   */\n          tag_84\n          tag_14\n          jump\t// in\n        tag_84:\n            /* \"#utility.yul\":2807:2929   */\n        tag_83:\n            /* \"#utility.yul\":2958:2964   */\n          dup2\n            /* \"#utility.yul\":2952:2965   */\n          mload\n            /* \"#utility.yul\":2983:3073   */\n          tag_85\n            /* \"#utility.yul\":3069:3072   */\n          dup5\n            /* \"#utility.yul\":3061:3067   */\n          dup3\n            /* \"#utility.yul\":3054:3058   */\n          0x20\n            /* \"#utility.yul\":3046:3052   */\n          dup7\n            /* \"#utility.yul\":3042:3059   */\n          add\n            /* \"#utility.yul\":2983:3073   */\n          tag_22\n          jump\t// in\n        tag_85:\n            /* \"#utility.yul\":2974:3073   */\n          swap2\n          pop\n            /* \"#utility.yul\":2797:3079   */\n          pop\n            /* \"#utility.yul\":2724:3079   */\n          swap3\n          swap2\n          pop\n          pop\n          jump\t// out\n            /* \"#utility.yul\":3085:3211   */\n        tag_24:\n            /* \"#utility.yul\":3122:3129   */\n          0x00\n            /* \"#utility.yul\":3162:3204   */\n          0xffffffffffffffffffffffffffffffffffffffff\n            /* \"#utility.yul\":3155:3160   */\n          dup3\n            /* \"#utility.yul\":3151:3205   */\n          and\n            /* \"#utility.yul\":3140:3205   */\n          swap1\n          pop\n            /* \"#utility.yul\":3085:3211   */\n          swap2\n          swap1\n          pop\n          jump\t// out\n            /* \"#utility.yul\":3217:3313   */\n        tag_25:\n            /* \"#utility.yul\":3254:3261   */\n          0x00\n            /* \"#utility.yul\":3283:3307   */\n          tag_88\n            /* \"#utility.yul\":3301:3306   */\n          dup3\n            /* \"#utility.yul\":3283:3307   */\n          tag_24\n          jump\t// in\n        tag_88:\n            /* \"#utility.yul\":3272:3307   */\n          swap1\n          pop\n            /* \"#utility.yul\":3217:3313   */\n          swap2\n          swap1\n          pop\n          jump\t// out\n            /* \"#utility.yul\":3319:3441   */\n        tag_26:\n            /* \"#utility.yul\":3392:3416   */\n          tag_90\n            /* \"#utility.yul\":3410:3415   */\n          dup2\n            /* \"#utility.yul\":3392:3416   */\n          tag_25\n          jump\t// in\n        tag_90:\n            /* \"#utility.yul\":3385:3390   */\n          dup2\n            /* \"#utility.yul\":3382:3417   */\n          eq\n            /* \"#utility.yul\":3372:3435   */\n          tag_91\n          jumpi\n            /* \"#utility.yul\":3431:3432   */\n          0x00\n            /* \"#utility.yul\":3428:3429   */\n          dup1\n            /* \"#utility.yul\":3421:3433   */\n          revert\n            /* \"#utility.yul\":3372:3435   */\n        tag_91:\n            /* \"#utility.yul\":3319:3441   */\n          pop\n          jump\t// out\n            /* \"#utility.yul\":3447:3590   */\n        tag_27:\n            /* \"#utility.yul\":3504:3509   */\n          0x00\n            /* \"#utility.yul\":3535:3541   */\n          dup2\n            /* \"#utility.yul\":3529:3542   */\n          mload\n            /* \"#utility.yul\":3520:3542   */\n          swap1\n          pop\n            /* \"#utility.yul\":3551:3584   */\n          tag_93\n            /* \"#utility.yul\":3578:3583   */\n          dup2\n            /* \"#utility.yul\":3551:3584   */\n          tag_26\n          jump\t// in\n        tag_93:\n            /* \"#utility.yul\":3447:3590   */\n          swap3\n          swap2\n          pop\n          pop\n          jump\t// out\n            /* \"#utility.yul\":3596:4432   */\n        tag_2:\n            /* \"#utility.yul\":3694:3700   */\n          0x00\n            /* \"#utility.yul\":3702:3708   */\n          dup1\n            /* \"#utility.yul\":3710:3716   */\n          0x00\n            /* \"#utility.yul\":3759:3761   */\n          0x60\n            /* \"#utility.yul\":3747:3756   */\n          dup5\n            /* \"#utility.yul\":3738:3745   */\n          dup7\n            /* \"#utility.yul\":3734:3757   */\n          sub\n            /* \"#utility.yul\":3730:3762   */\n          slt\n            /* \"#utility.yul\":3727:3846   */\n          iszero\n          tag_95\n          jumpi\n            /* \"#utility.yul\":3765:3844   */\n          tag_96\n          tag_9\n          jump\t// in\n        tag_96:\n            /* \"#utility.yul\":3727:3846   */\n        tag_95:\n            /* \"#utility.yul\":3885:3886   */\n          0x00\n            /* \"#utility.yul\":3910:3974   */\n          tag_97\n            /* \"#utility.yul\":3966:3973   */\n          dup7\n            /* \"#utility.yul\":3957:3963   */\n          dup3\n            /* \"#utility.yul\":3946:3955   */\n          dup8\n            /* \"#utility.yul\":3942:3964   */\n          add\n            /* \"#utility.yul\":3910:3974   */\n          tag_13\n          jump\t// in\n        tag_97:\n            /* \"#utility.yul\":3900:3974   */\n          swap4\n          pop\n            /* \"#utility.yul\":3856:3984   */\n          pop\n            /* \"#utility.yul\":4044:4046   */\n          0x20\n            /* \"#utility.yul\":4033:4042   */\n          dup5\n            /* \"#utility.yul\":4029:4047   */\n          add\n            /* \"#utility.yul\":4023:4048   */\n          mload\n            /* \"#utility.yul\":4075:4093   */\n          0xffffffffffffffff\n            /* \"#utility.yul\":4067:4073   */\n          dup2\n            /* \"#utility.yul\":4064:4094   */\n          gt\n            /* \"#utility.yul\":4061:4178   */\n          iszero\n          tag_98\n          jumpi\n            /* \"#utility.yul\":4097:4176   */\n          tag_99\n          tag_10\n          jump\t// in\n        tag_99:\n            /* \"#utility.yul\":4061:4178   */\n        tag_98:\n            /* \"#utility.yul\":4202:4276   */\n          tag_100\n            /* \"#utility.yul\":4268:4275   */\n          dup7\n            /* \"#utility.yul\":4259:4265   */\n          dup3\n            /* \"#utility.yul\":4248:4257   */\n          dup8\n            /* \"#utility.yul\":4244:4266   */\n          add\n            /* \"#utility.yul\":4202:4276   */\n          tag_23\n          jump\t// in\n        tag_100:\n            /* \"#utility.yul\":4192:4276   */\n          swap3\n          pop\n            /* \"#utility.yul\":3994:4286   */\n          pop\n            /* \"#utility.yul\":4325:4327   */\n          0x40\n            /* \"#utility.yul\":4351:4415   */\n          tag_101\n            /* \"#utility.yul\":4407:4414   */\n          dup7\n            /* \"#utility.yul\":4398:4404   */\n          dup3\n            /* \"#utility.yul\":4387:4396   */\n          dup8\n            /* \"#utility.yul\":4383:4405   */\n          add\n            /* \"#utility.yul\":4351:4415   */\n          tag_27\n          jump\t// in\n        tag_101:\n            /* \"#utility.yul\":4341:4415   */\n          swap2\n          pop\n            /* \"#utility.yul\":4296:4425   */\n          pop\n            /* \"#utility.yul\":3596:4432   */\n          swap3\n          pop\n          swap3\n          pop\n          swap3\n          jump\t// out\n            /* \"#utility.yul\":4438:4537   */\n        tag_28:\n            /* \"#utility.yul\":4490:4496   */\n          0x00\n            /* \"#utility.yul\":4524:4529   */\n          dup2\n            /* \"#utility.yul\":4518:4530   */\n          mload\n            /* \"#utility.yul\":4508:4530   */\n          swap1\n          pop\n            /* \"#utility.yul\":4438:4537   */\n          swap2\n          swap1\n          pop\n          jump\t// out\n            /* \"#utility.yul\":4543:4723   */\n        tag_29:\n            /* \"#utility.yul\":4591:4668   */\n          0x4e487b7100000000000000000000000000000000000000000000000000000000\n            /* \"#utility.yul\":4588:4589   */\n          0x00\n            /* \"#utility.yul\":4581:4669   */\n          mstore\n            /* \"#utility.yul\":4688:4692   */\n          0x22\n            /* \"#utility.yul\":4685:4686   */\n          0x04\n            /* \"#utility.yul\":4678:4693   */\n          mstore\n            /* \"#utility.yul\":4712:4716   */\n          0x24\n            /* \"#utility.yul\":4709:4710   */\n          0x00\n            /* \"#utility.yul\":4702:4717   */\n          revert\n            /* \"#utility.yul\":4729:5049   */\n        tag_30:\n            /* \"#utility.yul\":4773:4779   */\n          0x00\n            /* \"#utility.yul\":4810:4811   */\n          0x02\n            /* \"#utility.yul\":4804:4808   */\n          dup3\n            /* \"#utility.yul\":4800:4812   */\n          div\n            /* \"#utility.yul\":4790:4812   */\n          swap1\n          pop\n            /* \"#utility.yul\":4857:4858   */\n          0x01\n            /* \"#utility.yul\":4851:4855   */\n          dup3\n            /* \"#utility.yul\":4847:4859   */\n          and\n            /* \"#utility.yul\":4878:4896   */\n          dup1\n            /* \"#utility.yul\":4868:4949   */\n          tag_105\n          jumpi\n            /* \"#utility.yul\":4934:4938   */\n          0x7f\n            /* \"#utility.yul\":4926:4932   */\n          dup3\n            /* \"#utility.yul\":4922:4939   */\n          and\n            /* \"#utility.yul\":4912:4939   */\n          swap2\n          pop\n            /* \"#utility.yul\":4868:4949   */\n        tag_105:\n            /* \"#utility.yul\":4996:4998   */\n          0x20\n            /* \"#utility.yul\":4988:4994   */\n          dup3\n            /* \"#utility.yul\":4985:4999   */\n          lt\n            /* \"#utility.yul\":4965:4983   */\n          dup2\n            /* \"#utility.yul\":4962:5000   */\n          sub\n            /* \"#utility.yul\":4959:5043   */\n          tag_106\n          jumpi\n            /* \"#utility.yul\":5015:5033   */\n          tag_107\n          tag_29\n          jump\t// in\n        tag_107:\n            /* \"#utility.yul\":4959:5043   */\n        tag_106:\n            /* \"#utility.yul\":4780:5049   */\n          pop\n            /* \"#utility.yul\":4729:5049   */\n          swap2\n          swap1\n          pop\n          jump\t// out\n            /* \"#utility.yul\":5055:5196   */\n        tag_31:\n            /* \"#utility.yul\":5104:5108   */\n          0x00\n            /* \"#utility.yul\":5127:5130   */\n          dup2\n            /* \"#utility.yul\":5119:5130   */\n          swap1\n          pop\n            /* \"#utility.yul\":5150:5153   */\n          dup2\n            /* \"#utility.yul\":5147:5148   */\n          0x00\n            /* \"#utility.yul\":5140:5154   */\n          mstore\n            /* \"#utility.yul\":5184:5188   */\n          0x20\n            /* \"#utility.yul\":5181:5182   */\n          0x00\n            /* \"#utility.yul\":5171:5189   */\n          keccak256\n            /* \"#utility.yul\":5163:5189   */\n          swap1\n          pop\n            /* \"#utility.yul\":5055:5196   */\n          swap2\n          swap1\n          pop\n          jump\t// out\n            /* \"#utility.yul\":5202:5295   */\n        tag_32:\n            /* \"#utility.yul\":5239:5245   */\n          0x00\n            /* \"#utility.yul\":5286:5288   */\n          0x20\n            /* \"#utility.yul\":5281:5283   */\n          0x1f\n            /* \"#utility.yul\":5274:5279   */\n          dup4\n            /* \"#utility.yul\":5270:5284   */\n          add\n            /* \"#utility.yul\":5266:5289   */\n          div\n            /* \"#utility.yul\":5256:5289   */\n          swap1\n          pop\n            /* \"#utility.yul\":5202:5295   */\n          swap2\n          swap1\n          pop\n          jump\t// out\n            /* \"#utility.yul\":5301:5408   */\n        tag_33:\n            /* \"#utility.yul\":5345:5353   */\n          0x00\n            /* \"#utility.yul\":5395:5400   */\n          dup3\n            /* \"#utility.yul\":5389:5393   */\n          dup3\n            /* \"#utility.yul\":5385:5401   */\n          shl\n            /* \"#utility.yul\":5364:5401   */\n          swap1\n          pop\n            /* \"#utility.yul\":5301:5408   */\n          swap3\n          swap2\n          pop\n          pop\n          jump\t// out\n            /* \"#utility.yul\":5414:5807   */\n        tag_34:\n            /* \"#utility.yul\":5483:5489   */\n          0x00\n            /* \"#utility.yul\":5533:5534   */\n          0x08\n            /* \"#utility.yul\":5521:5531   */\n          dup4\n            /* \"#utility.yul\":5517:5535   */\n          mul\n            /* \"#utility.yul\":5556:5653   */\n          tag_112\n            /* \"#utility.yul\":5586:5652   */\n          0xffffffffffffffffffffffffffffffffffffffffffffffffffffffffffffffff\n            /* \"#utility.yul\":5575:5584   */\n          dup3\n            /* \"#utility.yul\":5556:5653   */\n          tag_33\n          jump\t// in\n        tag_112:\n            /* \"#utility.yul\":5674:5713   */\n          tag_113\n            /* \"#utility.yul\":5704:5712   */\n          dup7\n            /* \"#utility.yul\":5693:5702   */\n          dup4\n            /* \"#utility.yul\":5674:5713   */\n          tag_33\n          jump\t// in\n        tag_113:\n            /* \"#utility.yul\":5662:5713   */\n          swap6\n          pop\n            /* \"#utility.yul\":5746:5750   */\n          dup1\n            /* \"#utility.yul\":5742:5751   */\n          not\n            /* \"#utility.yul\":5735:5740   */\n          dup5\n            /* \"#utility.yul\":5731:5752   */\n          and\n            /* \"#utility.yul\":5722:5752   */\n          swap4\n          pop\n            /* \"#utility.yul\":5795:5799   */\n          dup1\n            /* \"#utility.yul\":5785:5793   */\n          dup7\n            /* \"#utility.yul\":5781:5800   */\n          and\n            /* \"#utility.yul\":5774:5779   */\n          dup5\n            /* \"#utility.yul\":5771:5801   */\n          or\n            /* \"#utility.yul\":5761:5801   */\n          swap3\n          pop\n            /* \"#utility.yul\":5490:5807   */\n          pop\n          pop\n            /* \"#utility.yul\":5414:5807   */\n          swap4\n          swap3\n          pop\n          pop\n          pop\n          jump\t// out\n            /* \"#utility.yul\":5813:5873   */\n        tag_35:\n            /* \"#utility.yul\":5841:5844   */\n          0x00\n            /* \"#utility.yul\":5862:5867   */\n          dup2\n            /* \"#utility.yul\":5855:5867   */\n          swap1\n          pop\n            /* \"#utility.yul\":5813:5873   */\n          swap2\n          swap1\n          pop\n          jump\t// out\n            /* \"#utility.yul\":5879:6021   */\n        tag_36:\n            /* \"#utility.yul\":5929:5938   */\n          0x00\n            /* \"#utility.yul\":5962:6015   */\n          tag_116\n            /* \"#utility.yul\":5980:6014   */\n          tag_117\n            /* \"#utility.yul\":5989:6013   */\n          tag_118\n            /* \"#utility.yul\":6007:6012   */\n          dup5\n            /* \"#utility.yul\":5989:6013   */\n          tag_11\n          jump\t// in\n        tag_118:\n            /* \"#utility.yul\":5980:6014   */\n          tag_35\n          jump\t// in\n        tag_117:\n            /* \"#utility.yul\":5962:6015   */\n          tag_11\n          jump\t// in\n        tag_116:\n            /* \"#utility.yul\":5949:6015   */\n          swap1\n          pop\n            /* \"#utility.yul\":5879:6021   */\n          swap2\n          swap1\n          pop\n          jump\t// out\n            /* \"#utility.yul\":6027:6102   */\n        tag_37:\n            /* \"#utility.yul\":6070:6073   */\n          0x00\n            /* \"#utility.yul\":6091:6096   */\n          dup2\n            /* \"#utility.yul\":6084:6096   */\n          swap1\n          pop\n            /* \"#utility.yul\":6027:6102   */\n          swap2\n          swap1\n          pop\n          jump\t// out\n            /* \"#utility.yul\":6108:6377   */\n        tag_38:\n            /* \"#utility.yul\":6218:6257   */\n          tag_121\n            /* \"#utility.yul\":6249:6256   */\n          dup4\n            /* \"#utility.yul\":6218:6257   */\n          tag_36\n          jump\t// in\n        tag_121:\n            /* \"#utility.yul\":6279:6370   */\n          tag_122\n            /* \"#utility.yul\":6328:6369   */\n          tag_123\n            /* \"#utility.yul\":6352:6368   */\n          dup3\n            /* \"#utility.yul\":6328:6369   */\n          tag_37\n          jump\t// in\n        tag_123:\n            /* \"#utility.yul\":6320:6326   */\n          dup5\n            /* \"#utility.yul\":6313:6317   */\n          dup5\n            /* \"#utility.yul\":6307:6318   */\n          sload\n            /* \"#utility.yul\":6279:6370   */\n          tag_34\n          jump\t// in\n        tag_122:\n            /* \"#utility.yul\":6273:6277   */\n          dup3\n            /* \"#utility.yul\":6266:6371   */\n          sstore\n            /* \"#utility.yul\":6184:6377   */\n          pop\n            /* \"#utility.yul\":6108:6377   */\n          pop\n          pop\n          pop\n          jump\t// out\n            /* \"#utility.yul\":6383:6456   */\n        tag_39:\n            /* \"#utility.yul\":6428:6431   */\n          0x00\n            /* \"#utility.yul\":6383:6456   */\n          swap1\n          jump\t// out\n            /* \"#utility.yul\":6462:6651   */\n        tag_40:\n            /* \"#utility.yul\":6539:6571   */\n          tag_126\n          tag_39\n          jump\t// in\n        tag_126:\n            /* \"#utility.yul\":6580:6645   */\n          tag_127\n            /* \"#utility.yul\":6638:6644   */\n          dup2\n            /* \"#utility.yul\":6630:6636   */\n          dup5\n            /* \"#utility.yul\":6624:6628   */\n          dup5\n            /* \"#utility.yul\":6580:6645   */\n          tag_38\n          jump\t// in\n        tag_127:\n            /* \"#utility.yul\":6515:6651   */\n          pop\n            /* \"#utility.yul\":6462:6651   */\n          pop\n          pop\n          jump\t// out\n            /* \"#utility.yul\":6657:6843   */\n        tag_41:\n            /* \"#utility.yul\":6717:6837   */\n        tag_129:\n            /* \"#utility.yul\":6734:6737   */\n          dup2\n            /* \"#utility.yul\":6727:6732   */\n          dup2\n            /* \"#utility.yul\":6724:6738   */\n          lt\n            /* \"#utility.yul\":6717:6837   */\n          iszero\n          tag_131\n          jumpi\n            /* \"#utility.yul\":6788:6827   */\n          tag_132\n            /* \"#utility.yul\":6825:6826   */\n          0x00\n            /* \"#utility.yul\":6818:6823   */\n          dup3\n            /* \"#utility.yul\":6788:6827   */\n          tag_40\n          jump\t// in\n        tag_132:\n            /* \"#utility.yul\":6761:6762   */\n          0x01\n            /* \"#utility.yul\":6754:6759   */\n          dup2\n            /* \"#utility.yul\":6750:6763   */\n          add\n            /* \"#utility.yul\":6741:6763   */\n          swap1\n          pop\n            /* \"#utility.yul\":6717:6837   */\n          jump(tag_129)\n        tag_131:\n            /* \"#utility.yul\":6657:6843   */\n          pop\n          pop\n          jump\t// out\n            /* \"#utility.yul\":6849:7392   */\n        tag_42:\n            /* \"#utility.yul\":6950:6952   */\n          0x1f\n            /* \"#utility.yul\":6945:6948   */\n          dup3\n            /* \"#utility.yul\":6942:6953   */\n          gt\n            /* \"#utility.yul\":6939:7385   */\n          iszero\n          tag_134\n          jumpi\n            /* \"#utility.yul\":6984:7022   */\n          tag_135\n            /* \"#utility.yul\":7016:7021   */\n          dup2\n            /* \"#utility.yul\":6984:7022   */\n          tag_31\n          jump\t// in\n        tag_135:\n            /* \"#utility.yul\":7068:7097   */\n          tag_136\n            /* \"#utility.yul\":7086:7096   */\n          dup5\n            /* \"#utility.yul\":7068:7097   */\n          tag_32\n          jump\t// in\n        tag_136:\n            /* \"#utility.yul\":7058:7066   */\n          dup2\n            /* \"#utility.yul\":7054:7098   */\n          add\n            /* \"#utility.yul\":7251:7253   */\n          0x20\n            /* \"#utility.yul\":7239:7249   */\n          dup6\n            /* \"#utility.yul\":7236:7254   */\n          lt\n            /* \"#utility.yul\":7233:7282   */\n          iszero\n          tag_137\n          jumpi\n            /* \"#utility.yul\":7272:7280   */\n          dup2\n            /* \"#utility.yul\":7257:7280   */\n          swap1\n          pop\n            /* \"#utility.yul\":7233:7282   */\n        tag_137:\n            /* \"#utility.yul\":7295:7375   */\n          tag_138\n            /* \"#utility.yul\":7351:7373   */\n          tag_139\n            /* \"#utility.yul\":7369:7372   */\n          dup6\n            /* \"#utility.yul\":7351:7373   */\n          tag_32\n          jump\t// in\n        tag_139:\n            /* \"#utility.yul\":7341:7349   */\n          dup4\n            /* \"#utility.yul\":7337:7374   */\n          add\n            /* \"#utility.yul\":7324:7335   */\n          dup3\n            /* \"#utility.yul\":7295:7375   */\n          tag_41\n          jump\t// in\n        tag_138:\n            /* \"#utility.yul\":6954:7385   */\n          pop\n          pop\n            /* \"#utility.yul\":6939:7385   */\n        tag_134:\n            /* \"#utility.yul\":6849:7392   */\n          pop\n          pop\n          pop\n          jump\t// out\n            /* \"#utility.yul\":7398:7515   */\n        tag_43:\n            /* \"#utility.yul\":7452:7460   */\n          0x00\n            /* \"#utility.yul\":7502:7507   */\n          dup3\n            /* \"#utility.yul\":7496:7500   */\n          dup3\n            /* \"#utility.yul\":7492:7508   */\n          shr\n            /* \"#utility.yul\":7471:7508   */\n          swap1\n          pop\n            /* \"#utility.yul\":7398:7515   */\n          swap3\n          swap2\n          pop\n          pop\n          jump\t// out\n            /* \"#utility.yul\":7521:7690   */\n        tag_44:\n            /* \"#utility.yul\":7565:7571   */\n          0x00\n            /* \"#utility.yul\":7598:7649   */\n          tag_142\n            /* \"#utility.yul\":7646:7647   */\n          0x00\n            /* \"#utility.yul\":7642:7648   */\n          not\n            /* \"#utility.yul\":7634:7639   */\n          dup5\n            /* \"#utility.yul\":7631:7632   */\n          0x08\n            /* \"#utility.yul\":7627:7640   */\n          mul\n            /* \"#utility.yul\":7598:7649   */\n          tag_43\n          jump\t// in\n        tag_142:\n            /* \"#utility.yul\":7594:7650   */\n          not\n            /* \"#utility.yul\":7679:7683   */\n          dup1\n            /* \"#utility.yul\":7673:7677   */\n          dup4\n            /* \"#utility.yul\":7669:7684   */\n          and\n            /* \"#utility.yul\":7659:7684   */\n          swap2\n          pop\n            /* \"#utility.yul\":7572:7690   */\n          pop\n            /* \"#utility.yul\":7521:7690   */\n          swap3\n          swap2\n          pop\n          pop\n          jump\t// out\n            /* \"#utility.yul\":7695:7990   */\n        tag_45:\n            /* \"#utility.yul\":7771:7775   */\n          0x00\n            /* \"#utility.yul\":7917:7946   */\n          tag_144\n            /* \"#utility.yul\":7942:7945   */\n          dup4\n            /* \"#utility.yul\":7936:7940   */\n          dup4\n            /* \"#utility.yul\":7917:7946   */\n          tag_44\n          jump\t// in\n        tag_144:\n            /* \"#utility.yul\":7909:7946   */\n          swap2\n          pop\n            /* \"#utility.yul\":7979:7982   */\n          dup3\n            /* \"#utility.yul\":7976:7977   */\n          0x02\n            /* \"#utility.yul\":7972:7983   */\n          mul\n            /* \"#utility.yul\":7966:7970   */\n          dup3\n            /* \"#utility.yul\":7963:7984   */\n          or\n            /* \"#utility.yul\":7955:7984   */\n          swap1\n          pop\n            /* \"#utility.yul\":7695:7990   */\n          swap3\n          swap2\n          pop\n          pop\n          jump\t// out\n            /* \"#utility.yul\":7995:9390   */\n        tag_6:\n            /* \"#utility.yul\":8112:8149   */\n          tag_146\n            /* \"#utility.yul\":8145:8148   */\n          dup3\n            /* \"#utility.yul\":8112:8149   */\n          tag_28\n          jump\t// in\n        tag_146:\n            /* \"#utility.yul\":8214:8232   */\n          0xffffffffffffffff\n            /* \"#utility.yul\":8206:8212   */\n          dup2\n            /* \"#utility.yul\":8203:8233   */\n          gt\n            /* \"#utility.yul\":8200:8256   */\n          iszero\n          tag_147\n          jumpi\n            /* \"#utility.yul\":8236:8254   */\n          tag_148\n          tag_17\n          jump\t// in\n        tag_148:\n            /* \"#utility.yul\":8200:8256   */\n        tag_147:\n            /* \"#utility.yul\":8280:8318   */\n          tag_149\n            /* \"#utility.yul\":8312:8316   */\n          dup3\n            /* \"#utility.yul\":8306:8317   */\n          sload\n            /* \"#utility.yul\":8280:8318   */\n          tag_30\n          jump\t// in\n        tag_149:\n            /* \"#utility.yul\":8365:8432   */\n          tag_150\n            /* \"#utility.yul\":8425:8431   */\n          dup3\n            /* \"#utility.yul\":8417:8423   */\n          dup3\n            /* \"#utility.yul\":8411:8415   */\n          dup6\n            /* \"#utility.yul\":8365:8432   */\n          tag_42\n          jump\t// in\n        tag_150:\n            /* \"#utility.yul\":8459:8460   */\n          0x00\n            /* \"#utility.yul\":8483:8487   */\n          0x20\n            /* \"#utility.yul\":8470:8487   */\n          swap1\n          pop\n            /* \"#utility.yul\":8515:8517   */\n          0x1f\n            /* \"#utility.yul\":8507:8513   */\n          dup4\n            /* \"#utility.yul\":8504:8518   */\n          gt\n            /* \"#utility.yul\":8532:8533   */\n          0x01\n            /* \"#utility.yul\":8527:9145   */\n          dup2\n          eq\n          tag_152\n          jumpi\n            /* \"#utility.yul\":9189:9190   */\n          0x00\n            /* \"#utility.yul\":9206:9212   */\n          dup5\n            /* \"#utility.yul\":9203:9280   */\n          iszero\n          tag_153\n          jumpi\n            /* \"#utility.yul\":9255:9264   */\n          dup3\n            /* \"#utility.yul\":9250:9253   */\n          dup8\n            /* \"#utility.yul\":9246:9265   */\n          add\n            /* \"#utility.yul\":9240:9266   */\n          mload\n            /* \"#utility.yul\":9231:9266   */\n          swap1\n          pop\n            /* \"#utility.yul\":9203:9280   */\n        tag_153:\n            /* \"#utility.yul\":9306:9373   */\n          tag_154\n            /* \"#utility.yul\":9366:9372   */\n          dup6\n            /* \"#utility.yul\":9359:9364   */\n          dup3\n            /* \"#utility.yul\":9306:9373   */\n          tag_45\n          jump\t// in\n        tag_154:\n            /* \"#utility.yul\":9300:9304   */\n          dup7\n            /* \"#utility.yul\":9293:9374   */\n          sstore\n            /* \"#utility.yul\":9162:9384   */\n          pop\n            /* \"#utility.yul\":8497:9384   */\n          jump(tag_151)\n            /* \"#utility.yul\":8527:9145   */\n        tag_152:\n            /* \"#utility.yul\":8579:8583   */\n          0x1f\n            /* \"#utility.yul\":8575:8584   */\n          not\n            /* \"#utility.yul\":8567:8573   */\n          dup5\n            /* \"#utility.yul\":8563:8585   */\n          and\n            /* \"#utility.yul\":8613:8650   */\n          tag_155\n            /* \"#utility.yul\":8645:8649   */\n          dup7\n            /* \"#utility.yul\":8613:8650   */\n          tag_31\n          jump\t// in\n        tag_155:\n            /* \"#utility.yul\":8672:8673   */\n          0x00\n            /* \"#utility.yul\":8686:8894   */\n        tag_156:\n            /* \"#utility.yul\":8700:8707   */\n          dup3\n            /* \"#utility.yul\":8697:8698   */\n          dup2\n            /* \"#utility.yul\":8694:8708   */\n          lt\n            /* \"#utility.yul\":8686:8894   */\n          iszero\n          tag_158\n          jumpi\n            /* \"#utility.yul\":8779:8788   */\n          dup5\n            /* \"#utility.yul\":8774:8777   */\n          dup10\n            /* \"#utility.yul\":8770:8789   */\n          add\n            /* \"#utility.yul\":8764:8790   */\n          mload\n            /* \"#utility.yul\":8756:8762   */\n          dup3\n            /* \"#utility.yul\":8749:8791   */\n          sstore\n            /* \"#utility.yul\":8830:8831   */\n          0x01\n            /* \"#utility.yul\":8822:8828   */\n          dup3\n            /* \"#utility.yul\":8818:8832   */\n          add\n            /* \"#utility.yul\":8808:8832   */\n          swap2\n          pop\n            /* \"#utility.yul\":8877:8879   */\n          0x20\n            /* \"#utility.yul\":8866:8875   */\n          dup6\n            /* \"#utility.yul\":8862:8880   */\n          add\n            /* \"#utility.yul\":8849:8880   */\n          swap5\n          pop\n            /* \"#utility.yul\":8723:8727   */\n          0x20\n            /* \"#utility.yul\":8720:8721   */\n          dup2\n            /* \"#utility.yul\":8716:8728   */\n          add\n            /* \"#utility.yul\":8711:8728   */\n          swap1\n          pop\n            /* \"#utility.yul\":8686:8894   */\n          jump(tag_156)\n        tag_158:\n            /* \"#utility.yul\":8922:8928   */\n          dup7\n            /* \"#utility.yul\":8913:8920   */\n          dup4\n            /* \"#utility.yul\":8910:8929   */\n          lt\n            /* \"#utility.yul\":8907:9086   */\n          iszero\n          tag_159\n          jumpi\n            /* \"#utility.yul\":8980:8989   */\n          dup5\n            /* \"#utility.yul\":8975:8978   */\n          dup10\n            /* \"#utility.yul\":8971:8990   */\n          add\n            /* \"#utility.yul\":8965:8991   */\n          mload\n            /* \"#utility.yul\":9023:9071   */\n          tag_160\n            /* \"#utility.yul\":9065:9069   */\n          0x1f\n            /* \"#utility.yul\":9057:9063   */\n          dup10\n            /* \"#utility.yul\":9053:9070   */\n          and\n            /* \"#utility.yul\":9042:9051   */\n          dup3\n            /* \"#utility.yul\":9023:9071   */\n          tag_44\n          jump\t// in\n        tag_160:\n            /* \"#utility.yul\":9015:9021   */\n          dup4\n            /* \"#utility.yul\":9008:9072   */\n          sstore\n            /* \"#utility.yul\":8930:9086   */\n          pop\n            /* \"#utility.yul\":8907:9086   */\n        tag_159:\n            /* \"#utility.yul\":9132:9133   */\n          0x01\n            /* \"#utility.yul\":9128:9129   */\n          0x02\n            /* \"#utility.yul\":9120:9126   */\n          dup9\n            /* \"#utility.yul\":9116:9130   */\n          mul\n            /* \"#utility.yul\":9112:9134   */\n          add\n            /* \"#utility.yul\":9106:9110   */\n          dup9\n            /* \"#utility.yul\":9099:9135   */\n          sstore\n            /* \"#utility.yul\":8534:9145   */\n          pop\n          pop\n          pop\n            /* \"#utility.yul\":8497:9384   */\n        tag_151:\n          pop\n            /* \"#utility.yul\":8087:9390   */\n          pop\n          pop\n          pop\n            /* \"#utility.yul\":7995:9390   */\n          pop\n          pop\n          jump\t// out\n            /* \"contracts/BookFactory.sol\":738:1020  contract Book... */\n        tag_7:\n          dataSize(sub_0)\n          dup1\n          dataOffset(sub_0)\n          0x00\n          codecopy\n          0x00\n          return\n        stop\n\n        sub_0: assembly {\n                /* \"contracts/BookFactory.sol\":738:1020  contract Book... */\n              mstore(0x40, 0x80)\n              callvalue\n              dup1\n              iszero\n              tag_1\n              jumpi\n              0x00\n              dup1\n              revert\n            tag_1:\n              pop\n              jumpi(tag_2, lt(calldatasize, 0x04))\n              shr(0xe0, calldataload(0x00))\n              dup1\n              0x08551a53\n              eq\n              tag_3\n              jumpi\n              dup1\n              0x913da9d8\n              eq\n              tag_4\n              jumpi\n              dup1\n              0x96bdecb6\n              eq\n              tag_5\n              jumpi\n            tag_2:\n              0x00\n              dup1\n              revert\n                /* \"contracts/BookFactory.sol\":811:832  address public seller */\n            tag_3:\n              tag_6\n              tag_7\n              jump\t// in\n            tag_6:\n              mload(0x40)\n              tag_8\n              swap2\n              swap1\n              tag_9\n              jump\t// in\n            tag_8:\n              mload(0x40)\n              dup1\n              swap2\n              sub\n              swap1\n              return\n                /* \"contracts/BookFactory.sol\":758:781  string public bookTitle */\n            tag_4:\n              tag_10\n              tag_11\n              jump\t// in\n            tag_10:\n              mload(0x40)\n              tag_12\n              swap2\n              swap1\n              tag_13\n              jump\t// in\n            tag_12:\n              mload(0x40)\n              dup1\n              swap2\n              sub\n              swap1\n              return\n                /* \"contracts/BookFactory.sol\":787:805  uint public bookID */\n            tag_5:\n              tag_14\n              tag_15\n              jump\t// in\n            tag_14:\n              mload(0x40)\n              tag_16\n              swap2\n              swap1\n              tag_17\n              jump\t// in\n            tag_16:\n              mload(0x40)\n              dup1\n              swap2\n              sub\n              swap1\n              return\n                /* \"contracts/BookFactory.sol\":811:832  address public seller */\n            tag_7:\n              0x02\n              0x00\n              swap1\n              sload\n              swap1\n              0x0100\n              exp\n              swap1\n              div\n              0xffffffffffffffffffffffffffffffffffffffff\n              and\n              dup2\n              jump\t// out\n                /* \"contracts/BookFactory.sol\":758:781  string public bookTitle */\n            tag_11:\n              0x00\n              dup1\n              sload\n              tag_18\n              swap1\n              tag_19\n              jump\t// in\n            tag_18:\n              dup1\n              0x1f\n              add\n              0x20\n              dup1\n              swap2\n              div\n              mul\n              0x20\n              add\n              mload(0x40)\n              swap1\n              dup2\n              add\n              0x40\n              mstore\n              dup1\n              swap3\n              swap2\n              swap1\n              dup2\n              dup2\n              mstore\n              0x20\n              add\n              dup3\n              dup1\n              sload\n              tag_20\n              swap1\n              tag_19\n              jump\t// in\n            tag_20:\n              dup1\n              iszero\n              tag_21\n              jumpi\n              dup1\n              0x1f\n              lt\n              tag_22\n              jumpi\n              0x0100\n              dup1\n              dup4\n              sload\n              div\n              mul\n              dup4\n              mstore\n              swap2\n              0x20\n              add\n              swap2\n              jump(tag_21)\n            tag_22:\n              dup3\n              add\n              swap2\n              swap1\n              0x00\n              mstore\n              keccak256(0x00, 0x20)\n              swap1\n            tag_23:\n              dup2\n              sload\n              dup2\n              mstore\n              swap1\n              0x01\n              add\n              swap1\n              0x20\n              add\n              dup1\n              dup4\n              gt\n              tag_23\n              jumpi\n              dup3\n              swap1\n              sub\n              0x1f\n              and\n              dup3\n              add\n              swap2\n            tag_21:\n              pop\n              pop\n              pop\n              pop\n              pop\n              dup2\n              jump\t// out\n                /* \"contracts/BookFactory.sol\":787:805  uint public bookID */\n            tag_15:\n              sload(0x01)\n              dup2\n              jump\t// out\n                /* \"#utility.yul\":7:133   */\n            tag_24:\n                /* \"#utility.yul\":44:51   */\n              0x00\n                /* \"#utility.yul\":84:126   */\n              0xffffffffffffffffffffffffffffffffffffffff\n                /* \"#utility.yul\":77:82   */\n              dup3\n                /* \"#utility.yul\":73:127   */\n              and\n                /* \"#utility.yul\":62:127   */\n              swap1\n              pop\n                /* \"#utility.yul\":7:133   */\n              swap2\n              swap1\n              pop\n              jump\t// out\n                /* \"#utility.yul\":139:235   */\n            tag_25:\n                /* \"#utility.yul\":176:183   */\n              0x00\n                /* \"#utility.yul\":205:229   */\n              tag_38\n                /* \"#utility.yul\":223:228   */\n              dup3\n                /* \"#utility.yul\":205:229   */\n              tag_24\n              jump\t// in\n            tag_38:\n                /* \"#utility.yul\":194:229   */\n              swap1\n              pop\n                /* \"#utility.yul\":139:235   */\n              swap2\n              swap1\n              pop\n              jump\t// out\n                /* \"#utility.yul\":241:359   */\n            tag_26:\n                /* \"#utility.yul\":328:352   */\n              tag_40\n                /* \"#utility.yul\":346:351   */\n              dup2\n                /* \"#utility.yul\":328:352   */\n              tag_25\n              jump\t// in\n            tag_40:\n                /* \"#utility.yul\":323:326   */\n              dup3\n                /* \"#utility.yul\":316:353   */\n              mstore\n                /* \"#utility.yul\":241:359   */\n              pop\n              pop\n              jump\t// out\n                /* \"#utility.yul\":365:587   */\n            tag_9:\n                /* \"#utility.yul\":458:462   */\n              0x00\n                /* \"#utility.yul\":496:498   */\n              0x20\n                /* \"#utility.yul\":485:494   */\n              dup3\n                /* \"#utility.yul\":481:499   */\n              add\n                /* \"#utility.yul\":473:499   */\n              swap1\n              pop\n                /* \"#utility.yul\":509:580   */\n              tag_42\n                /* \"#utility.yul\":577:578   */\n              0x00\n                /* \"#utility.yul\":566:575   */\n              dup4\n                /* \"#utility.yul\":562:579   */\n              add\n                /* \"#utility.yul\":553:559   */\n              dup5\n                /* \"#utility.yul\":509:580   */\n              tag_26\n              jump\t// in\n            tag_42:\n                /* \"#utility.yul\":365:587   */\n              swap3\n              swap2\n              pop\n              pop\n              jump\t// out\n                /* \"#utility.yul\":593:692   */\n            tag_27:\n                /* \"#utility.yul\":645:651   */\n              0x00\n                /* \"#utility.yul\":679:684   */\n              dup2\n                /* \"#utility.yul\":673:685   */\n              mload\n                /* \"#utility.yul\":663:685   */\n              swap1\n              pop\n                /* \"#utility.yul\":593:692   */\n              swap2\n              swap1\n              pop\n              jump\t// out\n                /* \"#utility.yul\":698:867   */\n            tag_28:\n                /* \"#utility.yul\":782:793   */\n              0x00\n                /* \"#utility.yul\":816:822   */\n              dup3\n                /* \"#utility.yul\":811:814   */\n              dup3\n                /* \"#utility.yul\":804:823   */\n              mstore\n                /* \"#utility.yul\":856:860   */\n              0x20\n                /* \"#utility.yul\":851:854   */\n              dup3\n                /* \"#utility.yul\":847:861   */\n              add\n                /* \"#utility.yul\":832:861   */\n              swap1\n              pop\n                /* \"#utility.yul\":698:867   */\n              swap3\n              swap2\n              pop\n              pop\n              jump\t// out\n                /* \"#utility.yul\":873:1180   */\n            tag_29:\n                /* \"#utility.yul\":941:942   */\n              0x00\n                /* \"#utility.yul\":951:1064   */\n            tag_46:\n                /* \"#utility.yul\":965:971   */\n              dup4\n                /* \"#utility.yul\":962:963   */\n              dup2\n                /* \"#utility.yul\":959:972   */\n              lt\n                /* \"#utility.yul\":951:1064   */\n              iszero\n              tag_48\n              jumpi\n                /* \"#utility.yul\":1050:1051   */\n              dup1\n                /* \"#utility.yul\":1045:1048   */\n              dup3\n                /* \"#utility.yul\":1041:1052   */\n              add\n                /* \"#utility.yul\":1035:1053   */\n              mload\n                /* \"#utility.yul\":1031:1032   */\n              dup2\n                /* \"#utility.yul\":1026:1029   */\n              dup5\n                /* \"#utility.yul\":1022:1033   */\n              add\n                /* \"#utility.yul\":1015:1054   */\n              mstore\n                /* \"#utility.yul\":987:989   */\n              0x20\n                /* \"#utility.yul\":984:985   */\n              dup2\n                /* \"#utility.yul\":980:990   */\n              add\n                /* \"#utility.yul\":975:990   */\n              swap1\n              pop\n                /* \"#utility.yul\":951:1064   */\n              jump(tag_46)\n            tag_48:\n                /* \"#utility.yul\":1082:1088   */\n              dup4\n                /* \"#utility.yul\":1079:1080   */\n              dup2\n                /* \"#utility.yul\":1076:1089   */\n              gt\n                /* \"#utility.yul\":1073:1174   */\n              iszero\n              tag_49\n              jumpi\n                /* \"#utility.yul\":1162:1163   */\n              0x00\n                /* \"#utility.yul\":1153:1159   */\n              dup5\n                /* \"#utility.yul\":1148:1151   */\n              dup5\n                /* \"#utility.yul\":1144:1160   */\n              add\n                /* \"#utility.yul\":1137:1164   */\n              mstore\n                /* \"#utility.yul\":1073:1174   */\n            tag_49:\n                /* \"#utility.yul\":922:1180   */\n              pop\n                /* \"#utility.yul\":873:1180   */\n              pop\n              pop\n              pop\n              jump\t// out\n                /* \"#utility.yul\":1186:1288   */\n            tag_30:\n                /* \"#utility.yul\":1227:1233   */\n              0x00\n                /* \"#utility.yul\":1278:1280   */\n              0x1f\n                /* \"#utility.yul\":1274:1281   */\n              not\n                /* \"#utility.yul\":1269:1271   */\n              0x1f\n                /* \"#utility.yul\":1262:1267   */\n              dup4\n                /* \"#utility.yul\":1258:1272   */\n              add\n                /* \"#utility.yul\":1254:1282   */\n              and\n                /* \"#utility.yul\":1244:1282   */\n              swap1\n              pop\n                /* \"#utility.yul\":1186:1288   */\n              swap2\n              swap1\n              pop\n              jump\t// out\n                /* \"#utility.yul\":1294:1658   */\n            tag_31:\n                /* \"#utility.yul\":1382:1385   */\n              0x00\n                /* \"#utility.yul\":1410:1449   */\n              tag_52\n                /* \"#utility.yul\":1443:1448   */\n              dup3\n                /* \"#utility.yul\":1410:1449   */\n              tag_27\n              jump\t// in\n            tag_52:\n                /* \"#utility.yul\":1465:1536   */\n              tag_53\n                /* \"#utility.yul\":1529:1535   */\n              dup2\n                /* \"#utility.yul\":1524:1527   */\n              dup6\n                /* \"#utility.yul\":1465:1536   */\n              tag_28\n              jump\t// in\n            tag_53:\n                /* \"#utility.yul\":1458:1536   */\n              swap4\n              pop\n                /* \"#utility.yul\":1545:1597   */\n              tag_54\n                /* \"#utility.yul\":1590:1596   */\n              dup2\n                /* \"#utility.yul\":1585:1588   */\n              dup6\n                /* \"#utility.yul\":1578:1582   */\n              0x20\n                /* \"#utility.yul\":1571:1576   */\n              dup7\n                /* \"#utility.yul\":1567:1583   */\n              add\n                /* \"#utility.yul\":1545:1597   */\n              tag_29\n              jump\t// in\n            tag_54:\n                /* \"#utility.yul\":1622:1651   */\n              tag_55\n                /* \"#utility.yul\":1644:1650   */\n              dup2\n                /* \"#utility.yul\":1622:1651   */\n              tag_30\n              jump\t// in\n            tag_55:\n                /* \"#utility.yul\":1617:1620   */\n              dup5\n                /* \"#utility.yul\":1613:1652   */\n              add\n                /* \"#utility.yul\":1606:1652   */\n              swap2\n              pop\n                /* \"#utility.yul\":1386:1658   */\n              pop\n                /* \"#utility.yul\":1294:1658   */\n              swap3\n              swap2\n              pop\n              pop\n              jump\t// out\n                /* \"#utility.yul\":1664:1977   */\n            tag_13:\n                /* \"#utility.yul\":1777:1781   */\n              0x00\n                /* \"#utility.yul\":1815:1817   */\n              0x20\n                /* \"#utility.yul\":1804:1813   */\n              dup3\n                /* \"#utility.yul\":1800:1818   */\n              add\n                /* \"#utility.yul\":1792:1818   */\n              swap1\n              pop\n                /* \"#utility.yul\":1864:1873   */\n              dup2\n                /* \"#utility.yul\":1858:1862   */\n              dup2\n                /* \"#utility.yul\":1854:1874   */\n              sub\n                /* \"#utility.yul\":1850:1851   */\n              0x00\n                /* \"#utility.yul\":1839:1848   */\n              dup4\n                /* \"#utility.yul\":1835:1852   */\n              add\n                /* \"#utility.yul\":1828:1875   */\n              mstore\n                /* \"#utility.yul\":1892:1970   */\n              tag_57\n                /* \"#utility.yul\":1965:1969   */\n              dup2\n                /* \"#utility.yul\":1956:1962   */\n              dup5\n                /* \"#utility.yul\":1892:1970   */\n              tag_31\n              jump\t// in\n            tag_57:\n                /* \"#utility.yul\":1884:1970   */\n              swap1\n              pop\n                /* \"#utility.yul\":1664:1977   */\n              swap3\n              swap2\n              pop\n              pop\n              jump\t// out\n                /* \"#utility.yul\":1983:2060   */\n            tag_32:\n                /* \"#utility.yul\":2020:2027   */\n              0x00\n                /* \"#utility.yul\":2049:2054   */\n              dup2\n                /* \"#utility.yul\":2038:2054   */\n              swap1\n              pop\n                /* \"#utility.yul\":1983:2060   */\n              swap2\n              swap1\n              pop\n              jump\t// out\n                /* \"#utility.yul\":2066:2184   */\n            tag_33:\n                /* \"#utility.yul\":2153:2177   */\n              tag_60\n                /* \"#utility.yul\":2171:2176   */\n              dup2\n                /* \"#utility.yul\":2153:2177   */\n              tag_32\n              jump\t// in\n            tag_60:\n                /* \"#utility.yul\":2148:2151   */\n              dup3\n                /* \"#utility.yul\":2141:2178   */\n              mstore\n                /* \"#utility.yul\":2066:2184   */\n              pop\n              pop\n              jump\t// out\n                /* \"#utility.yul\":2190:2412   */\n            tag_17:\n                /* \"#utility.yul\":2283:2287   */\n              0x00\n                /* \"#utility.yul\":2321:2323   */\n              0x20\n                /* \"#utility.yul\":2310:2319   */\n              dup3\n                /* \"#utility.yul\":2306:2324   */\n              add\n                /* \"#utility.yul\":2298:2324   */\n              swap1\n              pop\n                /* \"#utility.yul\":2334:2405   */\n              tag_62\n                /* \"#utility.yul\":2402:2403   */\n              0x00\n                /* \"#utility.yul\":2391:2400   */\n              dup4\n                /* \"#utility.yul\":2387:2404   */\n              add\n                /* \"#utility.yul\":2378:2384   */\n              dup5\n                /* \"#utility.yul\":2334:2405   */\n              tag_33\n              jump\t// in\n            tag_62:\n                /* \"#utility.yul\":2190:2412   */\n              swap3\n              swap2\n              pop\n              pop\n              jump\t// out\n                /* \"#utility.yul\":2418:2598   */\n            tag_34:\n                /* \"#utility.yul\":2466:2543   */\n              0x4e487b7100000000000000000000000000000000000000000000000000000000\n                /* \"#utility.yul\":2463:2464   */\n              0x00\n                /* \"#utility.yul\":2456:2544   */\n              mstore\n                /* \"#utility.yul\":2563:2567   */\n              0x22\n                /* \"#utility.yul\":2560:2561   */\n              0x04\n                /* \"#utility.yul\":2553:2568   */\n              mstore\n                /* \"#utility.yul\":2587:2591   */\n              0x24\n                /* \"#utility.yul\":2584:2585   */\n              0x00\n                /* \"#utility.yul\":2577:2592   */\n              revert\n                /* \"#utility.yul\":2604:2924   */\n            tag_19:\n                /* \"#utility.yul\":2648:2654   */\n              0x00\n                /* \"#utility.yul\":2685:2686   */\n              0x02\n                /* \"#utility.yul\":2679:2683   */\n              dup3\n                /* \"#utility.yul\":2675:2687   */\n              div\n                /* \"#utility.yul\":2665:2687   */\n              swap1\n              pop\n                /* \"#utility.yul\":2732:2733   */\n              0x01\n                /* \"#utility.yul\":2726:2730   */\n              dup3\n                /* \"#utility.yul\":2722:2734   */\n              and\n                /* \"#utility.yul\":2753:2771   */\n              dup1\n                /* \"#utility.yul\":2743:2824   */\n              tag_65\n              jumpi\n                /* \"#utility.yul\":2809:2813   */\n              0x7f\n                /* \"#utility.yul\":2801:2807   */\n              dup3\n                /* \"#utility.yul\":2797:2814   */\n              and\n                /* \"#utility.yul\":2787:2814   */\n              swap2\n              pop\n                /* \"#utility.yul\":2743:2824   */\n            tag_65:\n                /* \"#utility.yul\":2871:2873   */\n              0x20\n                /* \"#utility.yul\":2863:2869   */\n              dup3\n                /* \"#utility.yul\":2860:2874   */\n              lt\n                /* \"#utility.yul\":2840:2858   */\n              dup2\n                /* \"#utility.yul\":2837:2875   */\n              sub\n                /* \"#utility.yul\":2834:2918   */\n              tag_66\n              jumpi\n                /* \"#utility.yul\":2890:2908   */\n              tag_67\n              tag_34\n              jump\t// in\n            tag_67:\n                /* \"#utility.yul\":2834:2918   */\n            tag_66:\n                /* \"#utility.yul\":2655:2924   */\n              pop\n                /* \"#utility.yul\":2604:2924   */\n              swap2\n              swap1\n              pop\n              jump\t// out\n\n            auxdata: 0xa26469706673582212207a30e16a1327e66212a04413befde36491d1bc9fd7fcb4e4d22c683c38dffd5964736f6c634300080f0033\n        }\n    }\n\n    auxdata: 0xa26469706673582212202e37e1a7713d1e91105fa84c4631954989f43095e78e3811e6e3b568ffdc2d3164736f6c634300080f0033\n}\n",
				"bytecode": {
					"linkReferences": {},
					"object": "608060405234801561001057600080fd5b50610fde806100206000396000f3fe60806040523480156200001157600080fd5b50600436106200003a5760003560e01c80631805884c146200003f57806368744046146200005f575b600080fd5b6200005d600480360381019062000057919062000314565b62000095565b005b6200007d6004803603810190620000779190620003a0565b62000150565b6040516200008c91906200045d565b60405180910390f35b60006001600080549050620000ab9190620004a9565b8230604051620000bb9062000190565b620000c993929190620005ad565b604051809103906000f080158015620000e6573d6000803e3d6000fd5b5090506000819080600181540180825580915050600190039060005260206000200160009091909190916101000a81548173ffffffffffffffffffffffffffffffffffffffff021916908373ffffffffffffffffffffffffffffffffffffffff1602179055505050565b600081815481106200016157600080fd5b906000526020600020016000915054906101000a900473ffffffffffffffffffffffffffffffffffffffff1681565b6109b780620005f283390190565b6000604051905090565b600080fd5b600080fd5b600080fd5b600080fd5b6000601f19601f8301169050919050565b7f4e487b7100000000000000000000000000000000000000000000000000000000600052604160045260246000fd5b6200020782620001bc565b810181811067ffffffffffffffff82111715620002295762000228620001cd565b5b80604052505050565b60006200023e6200019e565b90506200024c8282620001fc565b919050565b600067ffffffffffffffff8211156200026f576200026e620001cd565b5b6200027a82620001bc565b9050602081019050919050565b82818337600083830152505050565b6000620002ad620002a78462000251565b62000232565b905082815260208101848484011115620002cc57620002cb620001b7565b5b620002d984828562000287565b509392505050565b600082601f830112620002f957620002f8620001b2565b5b81356200030b84826020860162000296565b91505092915050565b6000602082840312156200032d576200032c620001a8565b5b600082013567ffffffffffffffff8111156200034e576200034d620001ad565b5b6200035c84828501620002e1565b91505092915050565b6000819050919050565b6200037a8162000365565b81146200038657600080fd5b50565b6000813590506200039a816200036f565b92915050565b600060208284031215620003b957620003b8620001a8565b5b6000620003c98482850162000389565b91505092915050565b600073ffffffffffffffffffffffffffffffffffffffff82169050919050565b6000819050919050565b60006200041d620004176200041184620003d2565b620003f2565b620003d2565b9050919050565b60006200043182620003fc565b9050919050565b6000620004458262000424565b9050919050565b620004578162000438565b82525050565b60006020820190506200047460008301846200044c565b92915050565b7f4e487b7100000000000000000000000000000000000000000000000000000000600052601160045260246000fd5b6000620004b68262000365565b9150620004c38362000365565b925082821015620004d957620004d86200047a565b5b828203905092915050565b620004ef8162000365565b82525050565b600081519050919050565b600082825260208201905092915050565b60005b838110156200053157808201518184015260208101905062000514565b8381111562000541576000848401525b50505050565b60006200055482620004f5565b62000560818562000500565b93506200057281856020860162000511565b6200057d81620001bc565b840191505092915050565b60006200059582620003d2565b9050919050565b620005a78162000588565b82525050565b6000606082019050620005c46000830186620004e4565b8181036020830152620005d8818562000547565b9050620005e960408301846200059c565b94935050505056fe6080604052604051620009b7380380620009b78339818101604052810190620000299190620002c9565b82600181905550816000908162000041919062000585565b5080600260006101000a81548173ffffffffffffffffffffffffffffffffffffffff021916908373ffffffffffffffffffffffffffffffffffffffff1602179055505050506200066c565b6000604051905090565b600080fd5b600080fd5b6000819050919050565b620000b581620000a0565b8114620000c157600080fd5b50565b600081519050620000d581620000aa565b92915050565b600080fd5b600080fd5b6000601f19601f8301169050919050565b7f4e487b7100000000000000000000000000000000000000000000000000000000600052604160045260246000fd5b6200013082620000e5565b810181811067ffffffffffffffff82111715620001525762000151620000f6565b5b80604052505050565b6000620001676200008c565b905062000175828262000125565b919050565b600067ffffffffffffffff821115620001985762000197620000f6565b5b620001a382620000e5565b9050602081019050919050565b60005b83811015620001d0578082015181840152602081019050620001b3565b83811115620001e0576000848401525b50505050565b6000620001fd620001f7846200017a565b6200015b565b9050828152602081018484840111156200021c576200021b620000e0565b5b62000229848285620001b0565b509392505050565b600082601f830112620002495762000248620000db565b5b81516200025b848260208601620001e6565b91505092915050565b600073ffffffffffffffffffffffffffffffffffffffff82169050919050565b6000620002918262000264565b9050919050565b620002a38162000284565b8114620002af57600080fd5b50565b600081519050620002c38162000298565b92915050565b600080600060608486031215620002e557620002e462000096565b5b6000620002f586828701620000c4565b935050602084015167ffffffffffffffff8111156200031957620003186200009b565b5b620003278682870162000231565b92505060406200033a86828701620002b2565b9150509250925092565b600081519050919050565b7f4e487b7100000000000000000000000000000000000000000000000000000000600052602260045260246000fd5b600060028204905060018216806200039757607f821691505b602082108103620003ad57620003ac6200034f565b5b50919050565b60008190508160005260206000209050919050565b60006020601f8301049050919050565b600082821b905092915050565b600060088302620004177fffffffffffffffffffffffffffffffffffffffffffffffffffffffffffffffff82620003d8565b620004238683620003d8565b95508019841693508086168417925050509392505050565b6000819050919050565b600062000466620004606200045a84620000a0565b6200043b565b620000a0565b9050919050565b6000819050919050565b620004828362000445565b6200049a62000491826200046d565b848454620003e5565b825550505050565b600090565b620004b1620004a2565b620004be81848462000477565b505050565b5b81811015620004e657620004da600082620004a7565b600181019050620004c4565b5050565b601f8211156200053557620004ff81620003b3565b6200050a84620003c8565b810160208510156200051a578190505b620005326200052985620003c8565b830182620004c3565b50505b505050565b600082821c905092915050565b60006200055a600019846008026200053a565b1980831691505092915050565b600062000575838362000547565b9150826002028217905092915050565b620005908262000344565b67ffffffffffffffff811115620005ac57620005ab620000f6565b5b620005b882546200037e565b620005c5828285620004ea565b600060209050601f831160018114620005fd5760008415620005e8578287015190505b620005f4858262000567565b86555062000664565b601f1984166200060d86620003b3565b60005b82811015620006375784890151825560018201915060208501945060208101905062000610565b8683101562000657578489015162000653601f89168262000547565b8355505b6001600288020188555050505b505050505050565b61033b806200067c6000396000f3fe608060405234801561001057600080fd5b50600436106100415760003560e01c806308551a5314610046578063913da9d81461006457806396bdecb614610082575b600080fd5b61004e6100a0565b60405161005b919061019b565b60405180910390f35b61006c6100c6565b604051610079919061024f565b60405180910390f35b61008a610154565b604051610097919061028a565b60405180910390f35b600260009054906101000a900473ffffffffffffffffffffffffffffffffffffffff1681565b600080546100d3906102d4565b80601f01602080910402602001604051908101604052809291908181526020018280546100ff906102d4565b801561014c5780601f106101215761010080835404028352916020019161014c565b820191906000526020600020905b81548152906001019060200180831161012f57829003601f168201915b505050505081565b60015481565b600073ffffffffffffffffffffffffffffffffffffffff82169050919050565b60006101858261015a565b9050919050565b6101958161017a565b82525050565b60006020820190506101b0600083018461018c565b92915050565b600081519050919050565b600082825260208201905092915050565b60005b838110156101f05780820151818401526020810190506101d5565b838111156101ff576000848401525b50505050565b6000601f19601f8301169050919050565b6000610221826101b6565b61022b81856101c1565b935061023b8185602086016101d2565b61024481610205565b840191505092915050565b600060208201905081810360008301526102698184610216565b905092915050565b6000819050919050565b61028481610271565b82525050565b600060208201905061029f600083018461027b565b92915050565b7f4e487b7100000000000000000000000000000000000000000000000000000000600052602260045260246000fd5b600060028204905060018216806102ec57607f821691505b6020821081036102ff576102fe6102a5565b5b5091905056fea26469706673582212207a30e16a1327e66212a04413befde36491d1bc9fd7fcb4e4d22c683c38dffd5964736f6c634300080f0033a26469706673582212202e37e1a7713d1e91105fa84c4631954989f43095e78e3811e6e3b568ffdc2d3164736f6c634300080f0033",
					"opcodes": "PUSH1 0x80 PUSH1 0x40 MSTORE CALLVALUE DUP1 ISZERO PUSH2 0x10 JUMPI PUSH1 0x0 DUP1 REVERT JUMPDEST POP PUSH2 0xFDE DUP1 PUSH2 0x20 PUSH1 0x0 CODECOPY PUSH1 0x0 RETURN INVALID PUSH1 0x80 PUSH1 0x40 MSTORE CALLVALUE DUP1 ISZERO PUSH3 0x11 JUMPI PUSH1 0x0 DUP1 REVERT JUMPDEST POP PUSH1 0x4 CALLDATASIZE LT PUSH3 0x3A JUMPI PUSH1 0x0 CALLDATALOAD PUSH1 0xE0 SHR DUP1 PUSH4 0x1805884C EQ PUSH3 0x3F JUMPI DUP1 PUSH4 0x68744046 EQ PUSH3 0x5F JUMPI JUMPDEST PUSH1 0x0 DUP1 REVERT JUMPDEST PUSH3 0x5D PUSH1 0x4 DUP1 CALLDATASIZE SUB DUP2 ADD SWAP1 PUSH3 0x57 SWAP2 SWAP1 PUSH3 0x314 JUMP JUMPDEST PUSH3 0x95 JUMP JUMPDEST STOP JUMPDEST PUSH3 0x7D PUSH1 0x4 DUP1 CALLDATASIZE SUB DUP2 ADD SWAP1 PUSH3 0x77 SWAP2 SWAP1 PUSH3 0x3A0 JUMP JUMPDEST PUSH3 0x150 JUMP JUMPDEST PUSH1 0x40 MLOAD PUSH3 0x8C SWAP2 SWAP1 PUSH3 0x45D JUMP JUMPDEST PUSH1 0x40 MLOAD DUP1 SWAP2 SUB SWAP1 RETURN JUMPDEST PUSH1 0x0 PUSH1 0x1 PUSH1 0x0 DUP1 SLOAD SWAP1 POP PUSH3 0xAB SWAP2 SWAP1 PUSH3 0x4A9 JUMP JUMPDEST DUP3 ADDRESS PUSH1 0x40 MLOAD PUSH3 0xBB SWAP1 PUSH3 0x190 JUMP JUMPDEST PUSH3 0xC9 SWAP4 SWAP3 SWAP2 SWAP1 PUSH3 0x5AD JUMP JUMPDEST PUSH1 0x40 MLOAD DUP1 SWAP2 SUB SWAP1 PUSH1 0x0 CREATE DUP1 ISZERO DUP1 ISZERO PUSH3 0xE6 JUMPI RETURNDATASIZE PUSH1 0x0 DUP1 RETURNDATACOPY RETURNDATASIZE PUSH1 0x0 REVERT JUMPDEST POP SWAP1 POP PUSH1 0x0 DUP2 SWAP1 DUP1 PUSH1 0x1 DUP2 SLOAD ADD DUP1 DUP3 SSTORE DUP1 SWAP2 POP POP PUSH1 0x1 SWAP1 SUB SWAP1 PUSH1 0x0 MSTORE PUSH1 0x20 PUSH1 0x0 KECCAK256 ADD PUSH1 0x0 SWAP1 SWAP2 SWAP1 SWAP2 SWAP1 SWAP2 PUSH2 0x100 EXP DUP2 SLOAD DUP2 PUSH20 0xFFFFFFFFFFFFFFFFFFFFFFFFFFFFFFFFFFFFFFFF MUL NOT AND SWAP1 DUP4 PUSH20 0xFFFFFFFFFFFFFFFFFFFFFFFFFFFFFFFFFFFFFFFF AND MUL OR SWAP1 SSTORE POP POP POP JUMP JUMPDEST PUSH1 0x0 DUP2 DUP2 SLOAD DUP2 LT PUSH3 0x161 JUMPI PUSH1 0x0 DUP1 REVERT JUMPDEST SWAP1 PUSH1 0x0 MSTORE PUSH1 0x20 PUSH1 0x0 KECCAK256 ADD PUSH1 0x0 SWAP2 POP SLOAD SWAP1 PUSH2 0x100 EXP SWAP1 DIV PUSH20 0xFFFFFFFFFFFFFFFFFFFFFFFFFFFFFFFFFFFFFFFF AND DUP2 JUMP JUMPDEST PUSH2 0x9B7 DUP1 PUSH3 0x5F2 DUP4 CODECOPY ADD SWAP1 JUMP JUMPDEST PUSH1 0x0 PUSH1 0x40 MLOAD SWAP1 POP SWAP1 JUMP JUMPDEST PUSH1 0x0 DUP1 REVERT JUMPDEST PUSH1 0x0 DUP1 REVERT JUMPDEST PUSH1 0x0 DUP1 REVERT JUMPDEST PUSH1 0x0 DUP1 REVERT JUMPDEST PUSH1 0x0 PUSH1 0x1F NOT PUSH1 0x1F DUP4 ADD AND SWAP1 POP SWAP2 SWAP1 POP JUMP JUMPDEST PUSH32 0x4E487B7100000000000000000000000000000000000000000000000000000000 PUSH1 0x0 MSTORE PUSH1 0x41 PUSH1 0x4 MSTORE PUSH1 0x24 PUSH1 0x0 REVERT JUMPDEST PUSH3 0x207 DUP3 PUSH3 0x1BC JUMP JUMPDEST DUP2 ADD DUP2 DUP2 LT PUSH8 0xFFFFFFFFFFFFFFFF DUP3 GT OR ISZERO PUSH3 0x229 JUMPI PUSH3 0x228 PUSH3 0x1CD JUMP JUMPDEST JUMPDEST DUP1 PUSH1 0x40 MSTORE POP POP POP JUMP JUMPDEST PUSH1 0x0 PUSH3 0x23E PUSH3 0x19E JUMP JUMPDEST SWAP1 POP PUSH3 0x24C DUP3 DUP3 PUSH3 0x1FC JUMP JUMPDEST SWAP2 SWAP1 POP JUMP JUMPDEST PUSH1 0x0 PUSH8 0xFFFFFFFFFFFFFFFF DUP3 GT ISZERO PUSH3 0x26F JUMPI PUSH3 0x26E PUSH3 0x1CD JUMP JUMPDEST JUMPDEST PUSH3 0x27A DUP3 PUSH3 0x1BC JUMP JUMPDEST SWAP1 POP PUSH1 0x20 DUP2 ADD SWAP1 POP SWAP2 SWAP1 POP JUMP JUMPDEST DUP3 DUP2 DUP4 CALLDATACOPY PUSH1 0x0 DUP4 DUP4 ADD MSTORE POP POP POP JUMP JUMPDEST PUSH1 0x0 PUSH3 0x2AD PUSH3 0x2A7 DUP5 PUSH3 0x251 JUMP JUMPDEST PUSH3 0x232 JUMP JUMPDEST SWAP1 POP DUP3 DUP2 MSTORE PUSH1 0x20 DUP2 ADD DUP5 DUP5 DUP5 ADD GT ISZERO PUSH3 0x2CC JUMPI PUSH3 0x2CB PUSH3 0x1B7 JUMP JUMPDEST JUMPDEST PUSH3 0x2D9 DUP5 DUP3 DUP6 PUSH3 0x287 JUMP JUMPDEST POP SWAP4 SWAP3 POP POP POP JUMP JUMPDEST PUSH1 0x0 DUP3 PUSH1 0x1F DUP4 ADD SLT PUSH3 0x2F9 JUMPI PUSH3 0x2F8 PUSH3 0x1B2 JUMP JUMPDEST JUMPDEST DUP2 CALLDATALOAD PUSH3 0x30B DUP5 DUP3 PUSH1 0x20 DUP7 ADD PUSH3 0x296 JUMP JUMPDEST SWAP2 POP POP SWAP3 SWAP2 POP POP JUMP JUMPDEST PUSH1 0x0 PUSH1 0x20 DUP3 DUP5 SUB SLT ISZERO PUSH3 0x32D JUMPI PUSH3 0x32C PUSH3 0x1A8 JUMP JUMPDEST JUMPDEST PUSH1 0x0 DUP3 ADD CALLDATALOAD PUSH8 0xFFFFFFFFFFFFFFFF DUP2 GT ISZERO PUSH3 0x34E JUMPI PUSH3 0x34D PUSH3 0x1AD JUMP JUMPDEST JUMPDEST PUSH3 0x35C DUP5 DUP3 DUP6 ADD PUSH3 0x2E1 JUMP JUMPDEST SWAP2 POP POP SWAP3 SWAP2 POP POP JUMP JUMPDEST PUSH1 0x0 DUP2 SWAP1 POP SWAP2 SWAP1 POP JUMP JUMPDEST PUSH3 0x37A DUP2 PUSH3 0x365 JUMP JUMPDEST DUP2 EQ PUSH3 0x386 JUMPI PUSH1 0x0 DUP1 REVERT JUMPDEST POP JUMP JUMPDEST PUSH1 0x0 DUP2 CALLDATALOAD SWAP1 POP PUSH3 0x39A DUP2 PUSH3 0x36F JUMP JUMPDEST SWAP3 SWAP2 POP POP JUMP JUMPDEST PUSH1 0x0 PUSH1 0x20 DUP3 DUP5 SUB SLT ISZERO PUSH3 0x3B9 JUMPI PUSH3 0x3B8 PUSH3 0x1A8 JUMP JUMPDEST JUMPDEST PUSH1 0x0 PUSH3 0x3C9 DUP5 DUP3 DUP6 ADD PUSH3 0x389 JUMP JUMPDEST SWAP2 POP POP SWAP3 SWAP2 POP POP JUMP JUMPDEST PUSH1 0x0 PUSH20 0xFFFFFFFFFFFFFFFFFFFFFFFFFFFFFFFFFFFFFFFF DUP3 AND SWAP1 POP SWAP2 SWAP1 POP JUMP JUMPDEST PUSH1 0x0 DUP2 SWAP1 POP SWAP2 SWAP1 POP JUMP JUMPDEST PUSH1 0x0 PUSH3 0x41D PUSH3 0x417 PUSH3 0x411 DUP5 PUSH3 0x3D2 JUMP JUMPDEST PUSH3 0x3F2 JUMP JUMPDEST PUSH3 0x3D2 JUMP JUMPDEST SWAP1 POP SWAP2 SWAP1 POP JUMP JUMPDEST PUSH1 0x0 PUSH3 0x431 DUP3 PUSH3 0x3FC JUMP JUMPDEST SWAP1 POP SWAP2 SWAP1 POP JUMP JUMPDEST PUSH1 0x0 PUSH3 0x445 DUP3 PUSH3 0x424 JUMP JUMPDEST SWAP1 POP SWAP2 SWAP1 POP JUMP JUMPDEST PUSH3 0x457 DUP2 PUSH3 0x438 JUMP JUMPDEST DUP3 MSTORE POP POP JUMP JUMPDEST PUSH1 0x0 PUSH1 0x20 DUP3 ADD SWAP1 POP PUSH3 0x474 PUSH1 0x0 DUP4 ADD DUP5 PUSH3 0x44C JUMP JUMPDEST SWAP3 SWAP2 POP POP JUMP JUMPDEST PUSH32 0x4E487B7100000000000000000000000000000000000000000000000000000000 PUSH1 0x0 MSTORE PUSH1 0x11 PUSH1 0x4 MSTORE PUSH1 0x24 PUSH1 0x0 REVERT JUMPDEST PUSH1 0x0 PUSH3 0x4B6 DUP3 PUSH3 0x365 JUMP JUMPDEST SWAP2 POP PUSH3 0x4C3 DUP4 PUSH3 0x365 JUMP JUMPDEST SWAP3 POP DUP3 DUP3 LT ISZERO PUSH3 0x4D9 JUMPI PUSH3 0x4D8 PUSH3 0x47A JUMP JUMPDEST JUMPDEST DUP3 DUP3 SUB SWAP1 POP SWAP3 SWAP2 POP POP JUMP JUMPDEST PUSH3 0x4EF DUP2 PUSH3 0x365 JUMP JUMPDEST DUP3 MSTORE POP POP JUMP JUMPDEST PUSH1 0x0 DUP2 MLOAD SWAP1 POP SWAP2 SWAP1 POP JUMP JUMPDEST PUSH1 0x0 DUP3 DUP3 MSTORE PUSH1 0x20 DUP3 ADD SWAP1 POP SWAP3 SWAP2 POP POP JUMP JUMPDEST PUSH1 0x0 JUMPDEST DUP4 DUP2 LT ISZERO PUSH3 0x531 JUMPI DUP1 DUP3 ADD MLOAD DUP2 DUP5 ADD MSTORE PUSH1 0x20 DUP2 ADD SWAP1 POP PUSH3 0x514 JUMP JUMPDEST DUP4 DUP2 GT ISZERO PUSH3 0x541 JUMPI PUSH1 0x0 DUP5 DUP5 ADD MSTORE JUMPDEST POP POP POP POP JUMP JUMPDEST PUSH1 0x0 PUSH3 0x554 DUP3 PUSH3 0x4F5 JUMP JUMPDEST PUSH3 0x560 DUP2 DUP6 PUSH3 0x500 JUMP JUMPDEST SWAP4 POP PUSH3 0x572 DUP2 DUP6 PUSH1 0x20 DUP7 ADD PUSH3 0x511 JUMP JUMPDEST PUSH3 0x57D DUP2 PUSH3 0x1BC JUMP JUMPDEST DUP5 ADD SWAP2 POP POP SWAP3 SWAP2 POP POP JUMP JUMPDEST PUSH1 0x0 PUSH3 0x595 DUP3 PUSH3 0x3D2 JUMP JUMPDEST SWAP1 POP SWAP2 SWAP1 POP JUMP JUMPDEST PUSH3 0x5A7 DUP2 PUSH3 0x588 JUMP JUMPDEST DUP3 MSTORE POP POP JUMP JUMPDEST PUSH1 0x0 PUSH1 0x60 DUP3 ADD SWAP1 POP PUSH3 0x5C4 PUSH1 0x0 DUP4 ADD DUP7 PUSH3 0x4E4 JUMP JUMPDEST DUP2 DUP2 SUB PUSH1 0x20 DUP4 ADD MSTORE PUSH3 0x5D8 DUP2 DUP6 PUSH3 0x547 JUMP JUMPDEST SWAP1 POP PUSH3 0x5E9 PUSH1 0x40 DUP4 ADD DUP5 PUSH3 0x59C JUMP JUMPDEST SWAP5 SWAP4 POP POP POP POP JUMP INVALID PUSH1 0x80 PUSH1 0x40 MSTORE PUSH1 0x40 MLOAD PUSH3 0x9B7 CODESIZE SUB DUP1 PUSH3 0x9B7 DUP4 CODECOPY DUP2 DUP2 ADD PUSH1 0x40 MSTORE DUP2 ADD SWAP1 PUSH3 0x29 SWAP2 SWAP1 PUSH3 0x2C9 JUMP JUMPDEST DUP3 PUSH1 0x1 DUP2 SWAP1 SSTORE POP DUP2 PUSH1 0x0 SWAP1 DUP2 PUSH3 0x41 SWAP2 SWAP1 PUSH3 0x585 JUMP JUMPDEST POP DUP1 PUSH1 0x2 PUSH1 0x0 PUSH2 0x100 EXP DUP2 SLOAD DUP2 PUSH20 0xFFFFFFFFFFFFFFFFFFFFFFFFFFFFFFFFFFFFFFFF MUL NOT AND SWAP1 DUP4 PUSH20 0xFFFFFFFFFFFFFFFFFFFFFFFFFFFFFFFFFFFFFFFF AND MUL OR SWAP1 SSTORE POP POP POP POP PUSH3 0x66C JUMP JUMPDEST PUSH1 0x0 PUSH1 0x40 MLOAD SWAP1 POP SWAP1 JUMP JUMPDEST PUSH1 0x0 DUP1 REVERT JUMPDEST PUSH1 0x0 DUP1 REVERT JUMPDEST PUSH1 0x0 DUP2 SWAP1 POP SWAP2 SWAP1 POP JUMP JUMPDEST PUSH3 0xB5 DUP2 PUSH3 0xA0 JUMP JUMPDEST DUP2 EQ PUSH3 0xC1 JUMPI PUSH1 0x0 DUP1 REVERT JUMPDEST POP JUMP JUMPDEST PUSH1 0x0 DUP2 MLOAD SWAP1 POP PUSH3 0xD5 DUP2 PUSH3 0xAA JUMP JUMPDEST SWAP3 SWAP2 POP POP JUMP JUMPDEST PUSH1 0x0 DUP1 REVERT JUMPDEST PUSH1 0x0 DUP1 REVERT JUMPDEST PUSH1 0x0 PUSH1 0x1F NOT PUSH1 0x1F DUP4 ADD AND SWAP1 POP SWAP2 SWAP1 POP JUMP JUMPDEST PUSH32 0x4E487B7100000000000000000000000000000000000000000000000000000000 PUSH1 0x0 MSTORE PUSH1 0x41 PUSH1 0x4 MSTORE PUSH1 0x24 PUSH1 0x0 REVERT JUMPDEST PUSH3 0x130 DUP3 PUSH3 0xE5 JUMP JUMPDEST DUP2 ADD DUP2 DUP2 LT PUSH8 0xFFFFFFFFFFFFFFFF DUP3 GT OR ISZERO PUSH3 0x152 JUMPI PUSH3 0x151 PUSH3 0xF6 JUMP JUMPDEST JUMPDEST DUP1 PUSH1 0x40 MSTORE POP POP POP JUMP JUMPDEST PUSH1 0x0 PUSH3 0x167 PUSH3 0x8C JUMP JUMPDEST SWAP1 POP PUSH3 0x175 DUP3 DUP3 PUSH3 0x125 JUMP JUMPDEST SWAP2 SWAP1 POP JUMP JUMPDEST PUSH1 0x0 PUSH8 0xFFFFFFFFFFFFFFFF DUP3 GT ISZERO PUSH3 0x198 JUMPI PUSH3 0x197 PUSH3 0xF6 JUMP JUMPDEST JUMPDEST PUSH3 0x1A3 DUP3 PUSH3 0xE5 JUMP JUMPDEST SWAP1 POP PUSH1 0x20 DUP2 ADD SWAP1 POP SWAP2 SWAP1 POP JUMP JUMPDEST PUSH1 0x0 JUMPDEST DUP4 DUP2 LT ISZERO PUSH3 0x1D0 JUMPI DUP1 DUP3 ADD MLOAD DUP2 DUP5 ADD MSTORE PUSH1 0x20 DUP2 ADD SWAP1 POP PUSH3 0x1B3 JUMP JUMPDEST DUP4 DUP2 GT ISZERO PUSH3 0x1E0 JUMPI PUSH1 0x0 DUP5 DUP5 ADD MSTORE JUMPDEST POP POP POP POP JUMP JUMPDEST PUSH1 0x0 PUSH3 0x1FD PUSH3 0x1F7 DUP5 PUSH3 0x17A JUMP JUMPDEST PUSH3 0x15B JUMP JUMPDEST SWAP1 POP DUP3 DUP2 MSTORE PUSH1 0x20 DUP2 ADD DUP5 DUP5 DUP5 ADD GT ISZERO PUSH3 0x21C JUMPI PUSH3 0x21B PUSH3 0xE0 JUMP JUMPDEST JUMPDEST PUSH3 0x229 DUP5 DUP3 DUP6 PUSH3 0x1B0 JUMP JUMPDEST POP SWAP4 SWAP3 POP POP POP JUMP JUMPDEST PUSH1 0x0 DUP3 PUSH1 0x1F DUP4 ADD SLT PUSH3 0x249 JUMPI PUSH3 0x248 PUSH3 0xDB JUMP JUMPDEST JUMPDEST DUP2 MLOAD PUSH3 0x25B DUP5 DUP3 PUSH1 0x20 DUP7 ADD PUSH3 0x1E6 JUMP JUMPDEST SWAP2 POP POP SWAP3 SWAP2 POP POP JUMP JUMPDEST PUSH1 0x0 PUSH20 0xFFFFFFFFFFFFFFFFFFFFFFFFFFFFFFFFFFFFFFFF DUP3 AND SWAP1 POP SWAP2 SWAP1 POP JUMP JUMPDEST PUSH1 0x0 PUSH3 0x291 DUP3 PUSH3 0x264 JUMP JUMPDEST SWAP1 POP SWAP2 SWAP1 POP JUMP JUMPDEST PUSH3 0x2A3 DUP2 PUSH3 0x284 JUMP JUMPDEST DUP2 EQ PUSH3 0x2AF JUMPI PUSH1 0x0 DUP1 REVERT JUMPDEST POP JUMP JUMPDEST PUSH1 0x0 DUP2 MLOAD SWAP1 POP PUSH3 0x2C3 DUP2 PUSH3 0x298 JUMP JUMPDEST SWAP3 SWAP2 POP POP JUMP JUMPDEST PUSH1 0x0 DUP1 PUSH1 0x0 PUSH1 0x60 DUP5 DUP7 SUB SLT ISZERO PUSH3 0x2E5 JUMPI PUSH3 0x2E4 PUSH3 0x96 JUMP JUMPDEST JUMPDEST PUSH1 0x0 PUSH3 0x2F5 DUP7 DUP3 DUP8 ADD PUSH3 0xC4 JUMP JUMPDEST SWAP4 POP POP PUSH1 0x20 DUP5 ADD MLOAD PUSH8 0xFFFFFFFFFFFFFFFF DUP2 GT ISZERO PUSH3 0x319 JUMPI PUSH3 0x318 PUSH3 0x9B JUMP JUMPDEST JUMPDEST PUSH3 0x327 DUP7 DUP3 DUP8 ADD PUSH3 0x231 JUMP JUMPDEST SWAP3 POP POP PUSH1 0x40 PUSH3 0x33A DUP7 DUP3 DUP8 ADD PUSH3 0x2B2 JUMP JUMPDEST SWAP2 POP POP SWAP3 POP SWAP3 POP SWAP3 JUMP JUMPDEST PUSH1 0x0 DUP2 MLOAD SWAP1 POP SWAP2 SWAP1 POP JUMP JUMPDEST PUSH32 0x4E487B7100000000000000000000000000000000000000000000000000000000 PUSH1 0x0 MSTORE PUSH1 0x22 PUSH1 0x4 MSTORE PUSH1 0x24 PUSH1 0x0 REVERT JUMPDEST PUSH1 0x0 PUSH1 0x2 DUP3 DIV SWAP1 POP PUSH1 0x1 DUP3 AND DUP1 PUSH3 0x397 JUMPI PUSH1 0x7F DUP3 AND SWAP2 POP JUMPDEST PUSH1 0x20 DUP3 LT DUP2 SUB PUSH3 0x3AD JUMPI PUSH3 0x3AC PUSH3 0x34F JUMP JUMPDEST JUMPDEST POP SWAP2 SWAP1 POP JUMP JUMPDEST PUSH1 0x0 DUP2 SWAP1 POP DUP2 PUSH1 0x0 MSTORE PUSH1 0x20 PUSH1 0x0 KECCAK256 SWAP1 POP SWAP2 SWAP1 POP JUMP JUMPDEST PUSH1 0x0 PUSH1 0x20 PUSH1 0x1F DUP4 ADD DIV SWAP1 POP SWAP2 SWAP1 POP JUMP JUMPDEST PUSH1 0x0 DUP3 DUP3 SHL SWAP1 POP SWAP3 SWAP2 POP POP JUMP JUMPDEST PUSH1 0x0 PUSH1 0x8 DUP4 MUL PUSH3 0x417 PUSH32 0xFFFFFFFFFFFFFFFFFFFFFFFFFFFFFFFFFFFFFFFFFFFFFFFFFFFFFFFFFFFFFFFF DUP3 PUSH3 0x3D8 JUMP JUMPDEST PUSH3 0x423 DUP7 DUP4 PUSH3 0x3D8 JUMP JUMPDEST SWAP6 POP DUP1 NOT DUP5 AND SWAP4 POP DUP1 DUP7 AND DUP5 OR SWAP3 POP POP POP SWAP4 SWAP3 POP POP POP JUMP JUMPDEST PUSH1 0x0 DUP2 SWAP1 POP SWAP2 SWAP1 POP JUMP JUMPDEST PUSH1 0x0 PUSH3 0x466 PUSH3 0x460 PUSH3 0x45A DUP5 PUSH3 0xA0 JUMP JUMPDEST PUSH3 0x43B JUMP JUMPDEST PUSH3 0xA0 JUMP JUMPDEST SWAP1 POP SWAP2 SWAP1 POP JUMP JUMPDEST PUSH1 0x0 DUP2 SWAP1 POP SWAP2 SWAP1 POP JUMP JUMPDEST PUSH3 0x482 DUP4 PUSH3 0x445 JUMP JUMPDEST PUSH3 0x49A PUSH3 0x491 DUP3 PUSH3 0x46D JUMP JUMPDEST DUP5 DUP5 SLOAD PUSH3 0x3E5 JUMP JUMPDEST DUP3 SSTORE POP POP POP POP JUMP JUMPDEST PUSH1 0x0 SWAP1 JUMP JUMPDEST PUSH3 0x4B1 PUSH3 0x4A2 JUMP JUMPDEST PUSH3 0x4BE DUP2 DUP5 DUP5 PUSH3 0x477 JUMP JUMPDEST POP POP POP JUMP JUMPDEST JUMPDEST DUP2 DUP2 LT ISZERO PUSH3 0x4E6 JUMPI PUSH3 0x4DA PUSH1 0x0 DUP3 PUSH3 0x4A7 JUMP JUMPDEST PUSH1 0x1 DUP2 ADD SWAP1 POP PUSH3 0x4C4 JUMP JUMPDEST POP POP JUMP JUMPDEST PUSH1 0x1F DUP3 GT ISZERO PUSH3 0x535 JUMPI PUSH3 0x4FF DUP2 PUSH3 0x3B3 JUMP JUMPDEST PUSH3 0x50A DUP5 PUSH3 0x3C8 JUMP JUMPDEST DUP2 ADD PUSH1 0x20 DUP6 LT ISZERO PUSH3 0x51A JUMPI DUP2 SWAP1 POP JUMPDEST PUSH3 0x532 PUSH3 0x529 DUP6 PUSH3 0x3C8 JUMP JUMPDEST DUP4 ADD DUP3 PUSH3 0x4C3 JUMP JUMPDEST POP POP JUMPDEST POP POP POP JUMP JUMPDEST PUSH1 0x0 DUP3 DUP3 SHR SWAP1 POP SWAP3 SWAP2 POP POP JUMP JUMPDEST PUSH1 0x0 PUSH3 0x55A PUSH1 0x0 NOT DUP5 PUSH1 0x8 MUL PUSH3 0x53A JUMP JUMPDEST NOT DUP1 DUP4 AND SWAP2 POP POP SWAP3 SWAP2 POP POP JUMP JUMPDEST PUSH1 0x0 PUSH3 0x575 DUP4 DUP4 PUSH3 0x547 JUMP JUMPDEST SWAP2 POP DUP3 PUSH1 0x2 MUL DUP3 OR SWAP1 POP SWAP3 SWAP2 POP POP JUMP JUMPDEST PUSH3 0x590 DUP3 PUSH3 0x344 JUMP JUMPDEST PUSH8 0xFFFFFFFFFFFFFFFF DUP2 GT ISZERO PUSH3 0x5AC JUMPI PUSH3 0x5AB PUSH3 0xF6 JUMP JUMPDEST JUMPDEST PUSH3 0x5B8 DUP3 SLOAD PUSH3 0x37E JUMP JUMPDEST PUSH3 0x5C5 DUP3 DUP3 DUP6 PUSH3 0x4EA JUMP JUMPDEST PUSH1 0x0 PUSH1 0x20 SWAP1 POP PUSH1 0x1F DUP4 GT PUSH1 0x1 DUP2 EQ PUSH3 0x5FD JUMPI PUSH1 0x0 DUP5 ISZERO PUSH3 0x5E8 JUMPI DUP3 DUP8 ADD MLOAD SWAP1 POP JUMPDEST PUSH3 0x5F4 DUP6 DUP3 PUSH3 0x567 JUMP JUMPDEST DUP7 SSTORE POP PUSH3 0x664 JUMP JUMPDEST PUSH1 0x1F NOT DUP5 AND PUSH3 0x60D DUP7 PUSH3 0x3B3 JUMP JUMPDEST PUSH1 0x0 JUMPDEST DUP3 DUP2 LT ISZERO PUSH3 0x637 JUMPI DUP5 DUP10 ADD MLOAD DUP3 SSTORE PUSH1 0x1 DUP3 ADD SWAP2 POP PUSH1 0x20 DUP6 ADD SWAP5 POP PUSH1 0x20 DUP2 ADD SWAP1 POP PUSH3 0x610 JUMP JUMPDEST DUP7 DUP4 LT ISZERO PUSH3 0x657 JUMPI DUP5 DUP10 ADD MLOAD PUSH3 0x653 PUSH1 0x1F DUP10 AND DUP3 PUSH3 0x547 JUMP JUMPDEST DUP4 SSTORE POP JUMPDEST PUSH1 0x1 PUSH1 0x2 DUP9 MUL ADD DUP9 SSTORE POP POP POP JUMPDEST POP POP POP POP POP POP JUMP JUMPDEST PUSH2 0x33B DUP1 PUSH3 0x67C PUSH1 0x0 CODECOPY PUSH1 0x0 RETURN INVALID PUSH1 0x80 PUSH1 0x40 MSTORE CALLVALUE DUP1 ISZERO PUSH2 0x10 JUMPI PUSH1 0x0 DUP1 REVERT JUMPDEST POP PUSH1 0x4 CALLDATASIZE LT PUSH2 0x41 JUMPI PUSH1 0x0 CALLDATALOAD PUSH1 0xE0 SHR DUP1 PUSH4 0x8551A53 EQ PUSH2 0x46 JUMPI DUP1 PUSH4 0x913DA9D8 EQ PUSH2 0x64 JUMPI DUP1 PUSH4 0x96BDECB6 EQ PUSH2 0x82 JUMPI JUMPDEST PUSH1 0x0 DUP1 REVERT JUMPDEST PUSH2 0x4E PUSH2 0xA0 JUMP JUMPDEST PUSH1 0x40 MLOAD PUSH2 0x5B SWAP2 SWAP1 PUSH2 0x19B JUMP JUMPDEST PUSH1 0x40 MLOAD DUP1 SWAP2 SUB SWAP1 RETURN JUMPDEST PUSH2 0x6C PUSH2 0xC6 JUMP JUMPDEST PUSH1 0x40 MLOAD PUSH2 0x79 SWAP2 SWAP1 PUSH2 0x24F JUMP JUMPDEST PUSH1 0x40 MLOAD DUP1 SWAP2 SUB SWAP1 RETURN JUMPDEST PUSH2 0x8A PUSH2 0x154 JUMP JUMPDEST PUSH1 0x40 MLOAD PUSH2 0x97 SWAP2 SWAP1 PUSH2 0x28A JUMP JUMPDEST PUSH1 0x40 MLOAD DUP1 SWAP2 SUB SWAP1 RETURN JUMPDEST PUSH1 0x2 PUSH1 0x0 SWAP1 SLOAD SWAP1 PUSH2 0x100 EXP SWAP1 DIV PUSH20 0xFFFFFFFFFFFFFFFFFFFFFFFFFFFFFFFFFFFFFFFF AND DUP2 JUMP JUMPDEST PUSH1 0x0 DUP1 SLOAD PUSH2 0xD3 SWAP1 PUSH2 0x2D4 JUMP JUMPDEST DUP1 PUSH1 0x1F ADD PUSH1 0x20 DUP1 SWAP2 DIV MUL PUSH1 0x20 ADD PUSH1 0x40 MLOAD SWAP1 DUP2 ADD PUSH1 0x40 MSTORE DUP1 SWAP3 SWAP2 SWAP1 DUP2 DUP2 MSTORE PUSH1 0x20 ADD DUP3 DUP1 SLOAD PUSH2 0xFF SWAP1 PUSH2 0x2D4 JUMP JUMPDEST DUP1 ISZERO PUSH2 0x14C JUMPI DUP1 PUSH1 0x1F LT PUSH2 0x121 JUMPI PUSH2 0x100 DUP1 DUP4 SLOAD DIV MUL DUP4 MSTORE SWAP2 PUSH1 0x20 ADD SWAP2 PUSH2 0x14C JUMP JUMPDEST DUP3 ADD SWAP2 SWAP1 PUSH1 0x0 MSTORE PUSH1 0x20 PUSH1 0x0 KECCAK256 SWAP1 JUMPDEST DUP2 SLOAD DUP2 MSTORE SWAP1 PUSH1 0x1 ADD SWAP1 PUSH1 0x20 ADD DUP1 DUP4 GT PUSH2 0x12F JUMPI DUP3 SWAP1 SUB PUSH1 0x1F AND DUP3 ADD SWAP2 JUMPDEST POP POP POP POP POP DUP2 JUMP JUMPDEST PUSH1 0x1 SLOAD DUP2 JUMP JUMPDEST PUSH1 0x0 PUSH20 0xFFFFFFFFFFFFFFFFFFFFFFFFFFFFFFFFFFFFFFFF DUP3 AND SWAP1 POP SWAP2 SWAP1 POP JUMP JUMPDEST PUSH1 0x0 PUSH2 0x185 DUP3 PUSH2 0x15A JUMP JUMPDEST SWAP1 POP SWAP2 SWAP1 POP JUMP JUMPDEST PUSH2 0x195 DUP2 PUSH2 0x17A JUMP JUMPDEST DUP3 MSTORE POP POP JUMP JUMPDEST PUSH1 0x0 PUSH1 0x20 DUP3 ADD SWAP1 POP PUSH2 0x1B0 PUSH1 0x0 DUP4 ADD DUP5 PUSH2 0x18C JUMP JUMPDEST SWAP3 SWAP2 POP POP JUMP JUMPDEST PUSH1 0x0 DUP2 MLOAD SWAP1 POP SWAP2 SWAP1 POP JUMP JUMPDEST PUSH1 0x0 DUP3 DUP3 MSTORE PUSH1 0x20 DUP3 ADD SWAP1 POP SWAP3 SWAP2 POP POP JUMP JUMPDEST PUSH1 0x0 JUMPDEST DUP4 DUP2 LT ISZERO PUSH2 0x1F0 JUMPI DUP1 DUP3 ADD MLOAD DUP2 DUP5 ADD MSTORE PUSH1 0x20 DUP2 ADD SWAP1 POP PUSH2 0x1D5 JUMP JUMPDEST DUP4 DUP2 GT ISZERO PUSH2 0x1FF JUMPI PUSH1 0x0 DUP5 DUP5 ADD MSTORE JUMPDEST POP POP POP POP JUMP JUMPDEST PUSH1 0x0 PUSH1 0x1F NOT PUSH1 0x1F DUP4 ADD AND SWAP1 POP SWAP2 SWAP1 POP JUMP JUMPDEST PUSH1 0x0 PUSH2 0x221 DUP3 PUSH2 0x1B6 JUMP JUMPDEST PUSH2 0x22B DUP2 DUP6 PUSH2 0x1C1 JUMP JUMPDEST SWAP4 POP PUSH2 0x23B DUP2 DUP6 PUSH1 0x20 DUP7 ADD PUSH2 0x1D2 JUMP JUMPDEST PUSH2 0x244 DUP2 PUSH2 0x205 JUMP JUMPDEST DUP5 ADD SWAP2 POP POP SWAP3 SWAP2 POP POP JUMP JUMPDEST PUSH1 0x0 PUSH1 0x20 DUP3 ADD SWAP1 POP DUP2 DUP2 SUB PUSH1 0x0 DUP4 ADD MSTORE PUSH2 0x269 DUP2 DUP5 PUSH2 0x216 JUMP JUMPDEST SWAP1 POP SWAP3 SWAP2 POP POP JUMP JUMPDEST PUSH1 0x0 DUP2 SWAP1 POP SWAP2 SWAP1 POP JUMP JUMPDEST PUSH2 0x284 DUP2 PUSH2 0x271 JUMP JUMPDEST DUP3 MSTORE POP POP JUMP JUMPDEST PUSH1 0x0 PUSH1 0x20 DUP3 ADD SWAP1 POP PUSH2 0x29F PUSH1 0x0 DUP4 ADD DUP5 PUSH2 0x27B JUMP JUMPDEST SWAP3 SWAP2 POP POP JUMP JUMPDEST PUSH32 0x4E487B7100000000000000000000000000000000000000000000000000000000 PUSH1 0x0 MSTORE PUSH1 0x22 PUSH1 0x4 MSTORE PUSH1 0x24 PUSH1 0x0 REVERT JUMPDEST PUSH1 0x0 PUSH1 0x2 DUP3 DIV SWAP1 POP PUSH1 0x1 DUP3 AND DUP1 PUSH2 0x2EC JUMPI PUSH1 0x7F DUP3 AND SWAP2 POP JUMPDEST PUSH1 0x20 DUP3 LT DUP2 SUB PUSH2 0x2FF JUMPI PUSH2 0x2FE PUSH2 0x2A5 JUMP JUMPDEST JUMPDEST POP SWAP2 SWAP1 POP JUMP INVALID LOG2 PUSH5 0x6970667358 0x22 SLT KECCAK256 PUSH27 0x30E16A1327E66212A04413BEFDE36491D1BC9FD7FCB4E4D22C683C CODESIZE 0xDF REVERT MSIZE PUSH5 0x736F6C6343 STOP ADDMOD 0xF STOP CALLER LOG2 PUSH5 0x6970667358 0x22 SLT KECCAK256 0x2E CALLDATACOPY 0xE1 0xA7 PUSH18 0x3D1E91105FA84C4631954989F43095E78E38 GT 0xE6 0xE3 0xB5 PUSH9 0xFFDC2D3164736F6C63 NUMBER STOP ADDMOD 0xF STOP CALLER "
				},
				"gasEstimates": {
					"creation": {
						"codeDepositCost": "812400",
						"executionCost": "844",
						"totalCost": "813244"
					},
					"external": {
						"books(uint256)": "infinite",
						"newBook(string)": "infinite"
					}
				},
				"methodIdentifiers": {
					"books(uint256)": "68744046",
					"newBook(string)": "1805884c"
				}
			},
			"storageLayout": {
				"storage": [
					{
						"astId": 34,
						"contract": "contracts/BookFactory.sol:BookFactory",
						"label": "books",
						"offset": 0,
						"slot": "0",
						"type": "t_array(t_contract(Book)30)dyn_storage"
					}
				],
				"types": {
					"t_array(t_contract(Book)30)dyn_storage": {
						"base": "t_contract(Book)30",
						"encoding": "dynamic_array",
						"label": "contract Book[]",
						"numberOfBytes": "32"
					},
					"t_contract(Book)30": {
						"encoding": "inplace",
						"label": "contract Book",
						"numberOfBytes": "20"
					}
				}
			},
			"userdoc": {
				"kind": "user",
				"methods": {},
				"version": 1
			}
		}
	}
}